:020000040800F2
:10000000F835012091040008FD040008FD040008F3
:10001000FD040008FD040008FD04000800000000C5
:10002000000000000000000000000000592100084E
:10003000FD04000800000000F12200084923000828
:10004000FD040008FD040008FD040008FD0400088C
:10005000FD040008FD040008FD040008FD0400087C
:10006000FD040008FD040008FD040008FD0400086C
:10007000FD040008FD040008FD040008FD0400085C
:10008000FD040008FD040008FD040008FD0400084C
:10009000FD040008FD040008FD040008FD0400083C
:1000A000FD040008FD040008FD040008FD0400082C
:1000B000FD040008FD040008FD040008FD0400081C
:1000C000FD040008FD040008FD040008FD0400080C
:1000D000FD040008FD040008FD040008FD040008FC
:1000E000FD040008FD040008FD040008FD040008EC
:1000F000FD040008FD040008FD040008FD040008DC
:10010000FD040008FD040008FD040008FD040008CB
:10011000FD040008FD040008FD040008FD040008BB
:10012000FD040008FD040008FD040008FD040008AB
:10013000FD040008FD040008FD040008FD0400089B
:10014000FD040008FD040008FD040008FD0400088B
:10015000FD040008FD040008FD040008FD0400087B
:10016000FD040008FD040008FD040008FD0400086B
:10017000FD040008FD040008FD040008FD0400085B
:10018000FD040008FD04000880B586B000AF78606B
:100190000023FB6001F034F8404B1B68002B01D1B9
:1001A00000F0D0F83E4B1A687B681340002B6DD1ED
:1001B0007B68002B0DD008237A6813447B607B6832
:1001C00003F00703002B04D07B6823F007030833F8
:1001D0007B607B68002B59D0324B1B687A689A424F
:1001E00054D8314B3B61304B1B687B6104E07B6929
:1001F0003B617B691B687B617B695A687B689A42BB
:1002000003D27B691B68002BF1D1244B1B687A69F0
:100210009A423BD03B691A6808231344FB607B6910
:100220001A683B691A607B695A687B68D21A08238E
:100230005B009A420FD97A697B681344BB607B6983
:100240005A687B68D21ABB685A607B697A685A60C0
:10025000B86800F0C5F8134B1A687B695B68D21A5E
:10026000104B1A600F4B1A68104B1B689A4203D24E
:100270000C4B1A680D4B1A607B695A68084B1B6857
:100280001A437B695A607B6900221A6000F0C6FF3E
:10029000FB6818461837BD4680BD00BF282C0120DA
:1002A0002C2C012000000020202C01200400002024
:1002B00080B584B000AF78607B68FB607B68002B02
:1002C00038D008235B42FA681344FB60FB68BB60CC
:1002D000BB685A68194B1B681340002B02D101F010
:1002E000F9FFFEE7BB681B68002B02D001F0F2FFAC
:1002F000FEE7BB685A68114B1B681340002B19D0EE
:10030000BB681B68002B15D1BB685A680B4B1B6878
:10031000DB431A40BB685A6000F072FFBB685A6842
:10032000074B1B681A44064B1A60B86800F058F86F
:1003300000F074FF1037BD4680BD00BF2C2C01209B
:100340000000002080B584B000AF1F4B23F00703EE
:10035000FB601E4BFA681A601C4B00225A601C4B53
:10036000FA681344BB6008235B42BA681344BB605D
:10037000184BBA681A60174B1B6803F00703002B71
:1003800002D001F0A7FFFEE7124B1B6800225A6063
:10039000104B1B6800221A60FB687B600C4A082324
:1003A000D21A7B685A600B4B1A687B681A600A4B3A
:1003B0001A680823D21A084B1A60084B4FF0004203
:1003C0001A601037BD4680BD28000020202C012077
:1003D000F82B0100282C0120000000202C2C0120EB
:1003E00080B485B000AF7860274BFB6002E0FB680B
:1003F0001B68FB60FB681A687B689A42F7D3FB684E
:10040000BB60FB685B68BA681A447B689A4208D193
:10041000FB685A687B685B681A44FB685A60FB6833
:100420007B607B68BB607B685B68BA681A44FB686A
:100430001B689A4218D1FB681A68144B1B689A42D1
:100440000DD07B685A68FB681B685B681A447B6840
:100450005A60FB681B681A687B681A6008E00B4BDF
:100460001A687B681A6003E0FB681A687B681A6088
:10047000FA687B689A4202D0FB687A681A6014377F
:10048000BD465DF8047B7047202C0120282C0120FC
:1004900080B582B000AF134B7B60134B3B6007E02D
:1004A0003B681A1D3A607A68111D796012681A60FB
:1004B0003A680E4B9A42F3D30D480E494FF00002B2
:1004C0008842B8BF40F8042BFFF6FAAFDFF82800E7
:1004D000016841F47001016000F046FA0837BD463A
:1004E00080BD00BFD43300080000002020000020A1
:1004F00020000020F42D012088ED00E080B400AF42
:10050000FEE700BF80B500AF00F0FCF82320032118
:1005100000F072F8142000F06FF92020382100F06C
:100520006BF8142000F068F92220012100F064F833
:10053000142000F061F92420002100F05DF814205F
:1005400000F05AF92520022100F056F8142000F09E
:1005500053F92620072100F04FF8142000F04CF941
:1005600030200B49052200F065F8142000F044F912
:100570002A200849052200F05DF8142000F03CF91B
:100580002120002100F038F8C82000F035F980BDA6
:10059000080000201000002080B582B000AF786015
:1005A00000F0B0F827207E2100F026F8142000F09B
:1005B00023F920203A2100F01FF8142000F01CF944
:1005C00000F096F8E12000F063F8002000F060F8F9
:1005D00000F084F8142000F00FF9A02079682022A0
:1005E00000F028F800F098F8C82000F005F900F0B5
:1005F00089F80837BD4680BD80B584B000AF02469B
:100600000B46FA71BB7100F073F8142000F0F4F897
:10061000FB79184600F03CF80346FB73BB7918469B
:1006200000F036F800F05AF8FB7B18461037BD464C
:1006300080BD00BF80B584B000AF3960134602466C
:10064000FA71BB7100F054F8142000F0D5F8FB7972
:10065000184600F01DF80346BB600023FB600AE06B
:100660003B681B78184600F013F83B6801333B6089
:10067000FB680133FB60BA79FB689A42F0D800F05E
:100680002DF8BB68DBB218461037BD4680BD00BFF1
:1006900080B582B000AF0346FB7100BF0E48022157
:1006A00002F0CAFC0346002BF8D0FB799BB20A4843
:1006B000194602F093FC00BF0748012102F0BCFC80
:1006C0000346002BF8D0044802F07AFC0346DBB264
:1006D00018460837BD4680BD0030014080B500AFE8
:1006E0000248102101F034FB80BD00BF0000024031
:1006F00080B500AF0248102101F038FB80BD00BF7B
:100700000000024080B500AF0248082101F02EFB36
:1007100080BD00BF0000024080B500AF0248082144
:1007200001F016FB80BD00BF0000024080B588B01C
:1007300000AF0120012100F047F94FF48050012162
:1007400000F060F92A480521052201F01DFB284828
:100750000721052201F018FB25480621052201F09A
:1007600013FBE0237B6002233B7202237B72002396
:10077000BB720223FB723B1D1D48194601F05AFA59
:100780000120012100F020F918237B6001233B7236
:1007900002237B720023BB720123FB723B1D1448B2
:1007A000194601F047FA0023BB814FF48273FB81A5
:1007B00000233B8200237B820023BB824FF4007323
:1007C000FB8238233B8300237B830723BB8307F112
:1007D0000C030848194602F08FFB0648002102F07E
:1007E0000BFC0448012102F0CBFB2037BD4680BD45
:1007F000000002400030014080B485B000AF786056
:1008000007E06423FB6000BFFB685A1EFA60002B00
:10081000FAD17B685A1E7A60002BF2D11437BD469C
:100820005DF8047B704700BF80B582B000AF082040
:10083000012100F0C9F84FF470433B6001233B7184
:100840000023BB7103237B710023FB713B460348EC
:10085000194601F0EFF90837BD4680BD000C024093
:1008600080B584B000AF0346FB80FB88FB6000F0DE
:100870005BFD0346BB6007F108031846F96800F00A
:1008800027FC1037BD4680BD80B582B000AF7860D0
:100890009FED030B00200021034A02F0FBF9F7E76C
:1008A000CDCCCCCCCCCC214088330008AFF3008039
:1008B00080B582B000AF7860FFF738FFFFF722FE07
:1008C00020203821FFF798FE244B1B78DBB2FF2B4A
:1008D00005D123484FF4704101F048FAF4E71F4B6B
:1008E0001B78DAB21F4B1A701E48FFF755FE1C48E2
:1008F0004FF4704101F03AFA1A4B1B78013B032B7D
:1009000022D801A252F823F019090008250900088D
:10091000310900083D09000811484FF4805101F0E9
:1009200017FA17E00E484FF4005101F011FA11E0E8
:100930000B484FF4804101F00BFA0BE008484FF4EC
:10094000004101F005FA05E005484FF4704101F05F
:100950000DFA00BF0A20FFF783FFB5E76C2D0120D9
:10096000000C0240702D012080B584B004AF01F06E
:1009700003FBFFF759FF02F027FA0223009300233D
:10098000019300230293002303930B480B49822217
:10099000002300F0E9FA02230093002301930023CF
:1009A000029300230393064806498222002300F0A5
:1009B000DBFA00F0EDFBFEE7B10800088C3300081D
:1009C000890800089833000880B483B000AF7860CD
:1009D0000B46FB70FB78002B06D0094B084A116BC5
:1009E0007A680A431A6306E0054B054A116B7A6878
:1009F000D2430A401A630C37BD465DF8047B70474A
:100A00000038024080B483B000AF78600B46FB70C2
:100A1000FB78002B06D0094B084A516C7A680A43D0
:100A20005A6406E0054B054A516C7A68D2430A4085
:100A30005A640C37BD465DF8047B704700380240AD
:100A400080B586B004AF00237B6000F051FA0F4BF5
:100A50001B68002B0FD00223009300230193002377
:100A60000293002303930A480A494FF48272002339
:100A700000F07AFA78607B68002B02D101F02AFC42
:100A8000FEE77B6818460837BD4680BD602C012014
:100A9000950B0008A033000880B588B000AFF8605F
:100AA000B9607A603B600023FB611D4B1B68002B23
:100AB00030D0BB683B617B687B61FB68BB61BB6816
:100AC000052B1CDC00F0F8FF0346022B0BD1144B66
:100AD0001A6807F1100310461946BA6A002301F09C
:100AE00029FDF86116E00E4B1A6807F11003104655
:100AF00019460022002301F01DFDF8610AE0084BB1
:100B00001A6807F11003104619463A68002301F0ED
:100B1000D1FDF861FB6918462037BD4680BD00BF96
:100B2000602C012080B586B002AF78603960184B28
:100B30001B68DB68DB68FB60FB680433184601F068
:100B4000F1F9FB68DB69012B1BD1FB689A697B68B3
:100B50001344F86819463A687B6800F0A7F8034622
:100B6000012B0ED100230093F86800217A6800233E
:100B7000FFF792FFB860BB68002B02D101F0AAFB1F
:100B8000FEE7FB685B6AF86898471037BD4680BD92
:100B9000582C012080B584B000AF786007F10803BD
:100BA000184600F03FF8F860BB68F868194600F096
:100BB00003F800F0BDF8F1E780B584B000AF7860CD
:100BC000396000F01DFB07F10803184600F04EF8ED
:100BD000F860BB68002B1ED13B68002B0AD17A68F5
:100BE000FB689A4206D800F019FB7868F968FFF7AD
:100BF00099FF12E00A4B1A687968FB68CB1A104615
:100C0000194601F0CFFF00F009FB0346002B04D189
:100C100001F028FB01E000F001FB1037BD4680BD6C
:100C2000602C012080B485B000AF78600E4B1B684B
:100C30001B68002B14BF00230123DBB21A467B681C
:100C40001A607B681B68002B05D1074B1B68DB68AB
:100C50001B68FB6001E00023FB60FB68184614374B
:100C6000BD465DF8047B7047582C012080B584B0E8
:100C700000AF786000F058FBF8600B4B1B68FA6817
:100C80009A4205D200F0DCF87B6801221A6002E08B
:100C90007B6800221A60044BFA681A60FB681846E9
:100CA0001037BD4680BD00BF642C012080B586B0E2
:100CB00000AFF860B9607A603B6000237B61FB683D
:100CC000BA685A60FB68FA681A61BA687B689A4227
:100CD00012D87A683B68D21AFB689B699A4202D3A1
:100CE00001237B611BE0104B1A68FB68043310463C
:100CF000194601F0DFF812E07A683B689A4206D2A2
:100D0000BA683B689A4202D301237B6107E0074B34
:100D10001A68FB6804331046194601F0CBF87B696A
:100D200018461837BD4680BD5C2C0120582C012088
:100D300080B58AB002AF70E0BB68002B6DDB3B6909
:100D4000FB61FB695B69002B04D0FB690433184627
:100D500001F0E8F83B1D1846FFF788FFB861BB6853
:100D6000092B59D801A252F823F000BF950D0008B5
:100D7000950D0008950D0008190E0008E70D0008F4
:100D8000110E0008950D0008950D0008190E0008B9
:100D9000E70D0008FA68FB699B691A44FB68F8696B
:100DA0001146BA69FFF782FF0346012B1AD1FB698E
:100DB0005B6AF8699847FB69DB69012B12D1FA6815
:100DC000FB699B69134400220092F86900211A46CE
:100DD0000023FFF761FE78617B69002B02D101F0EF
:100DE00079FAFEE719E0FA68FB699A61FB699B6989
:100DF000002B02D101F06EFAFEE7FB699A69BB692C
:100E00001344F8691946BA69BB69FFF74FFF04E05C
:100E1000F869FFF74DFA00E000BF084B1A6807F1C8
:100E20000803104619460022002301F0ADFC0346DA
:100E3000002B81D12037BD4680BD00BF602C012032
:100E400080B588B002AF3DE0274B1B68DB681B68AC
:100E50007B61254B1B68DB68DB683B613B690433C6
:100E6000184601F05FF83B695B6A386998473B694F
:100E7000DB69012B26D13B699A697B691344FB60CE
:100E8000FA687B699A420ED93B69FA685A603B69F5
:100E90003A691A61144B1A683B69043310461946C3
:100EA00001F008F80EE000230093386900217A6908
:100EB0000023FFF7F1FDB860BB68002B02D101F001
:100EC00009FAFEE7084B1B681B68002BBCD1064BD8
:100ED0001B687B60054B1A68034B1A60034B7A68EA
:100EE0001A601837BD4680BD582C01205C2C0120AB
:100EF00080B500AF01F0C6F9154B1B68002B24D15B
:100F0000144800F087FF144800F084FF134B114A87
:100F10001A60134B104A1A600A200C21002201F0BB
:100F2000C7FA02460A4B1A60094B1B68002B02D114
:100F300001F0D0F9FEE7064B1B68002B05D0044BEF
:100F40001B681846074901F005FE01F0ABF980BDAA
:100F5000602C0120302C0120442C0120582C012031
:100F60005C2C0120A833000880B58AB002AFF8607D
:100F7000B9603B601346FB80FB68002B02D101F097
:100F8000A9F9FEE7BB6A042B02D901F0A3F9FEE739
:100F9000FB881846396B00F019FDB861BB69002B5E
:100FA00072D0BB691A6BFB8803F18043013B9B0045
:100FB00013447B617B6923F007037B617B6903F04A
:100FC0000703002B02D001F085F9FEE7FB880093B0
:100FD000B869B968BA6A7B6B00F002FC7869F96895
:100FE0003A6801F077F80246BB691A60FB6A002B89
:100FF00002D0FB6ABA691A6001F044F92E4B1B68F3
:101000005A1C2D4B1A602D4B1B68002B09D12B4B02
:10101000BA691A60284B1B68012B0FD100F028FC1D
:101020000CE0274B1B68002B08D1244B1B68DA6AA5
:10103000BB6A9A4202D8214BBA691A60214B1B68DD
:101040005A1C204B1A601F4B1A68BB691A64BB6993
:10105000DA6A1D4B1B689A4203D9BB69DA6A1A4BDC
:101060001A60BB69DA6A13469B0013449B00174A57
:101070001A44BB6904331046194600F0F7FE0123F9
:10108000FB6101F00FF902E04FF0FF33FB61FB69F8
:10109000012B0BD10A4B1B68002B07D0074B1B6899
:1010A000DA6ABB6A9A4201D201F0DCF8FB691846A1
:1010B0002037BD4680BD00BF402D0120682C012097
:1010C0004C2D01205C2D0120482D01206C2C01208D
:1010D00080B586B000AF7860396000237B617B68A3
:1010E000002B02D101F0F6F8FEE73B68002B02D19D
:1010F00001F0F0F8FEE7234B1B68002B02D001F053
:10110000E9F8FEE700F07CF81F4B1B683B617B6849
:101110001A683B681344FB607B681A683B699A4213
:101120000BD97B681A68FB689A4211D9FA683B6947
:101130009A420DD901237B610AE07B681A68FB683B
:101140009A4203D8FA683B699A4201D901237B612C
:101150007B68FA681A607B69002B08D00B4B1B6810
:101160000433184600F0DEFEF86800F0F9FB00F0EA
:1011700055F8B860BB68002B01D101F073F818373F
:10118000BD4680BD602D0120442D0120682C01202A
:1011900080B586B004AF00230093002301930023A1
:1011A0000293002303931248124982220023FFF77F
:1011B000DBFE78607B68012B02D1FFF741FC786091
:1011C0007B68012B0AD101F085F80B4B01221A60D4
:1011D0000A4B00221A6000F0DDFF05E07B68002B5F
:1011E00002D101F077F8FEE70837BD4680BD00BFA9
:1011F000C1170008B03300084C2D0120442D0120F8
:1012000080B400AF044B1B685A1C034B1A60BD46E8
:101210005DF8047B704700BF602D012080B582B06F
:1012200000AF00237B60384B1B68002B02D101F01C
:1012300051F8FEE701F026F8334B1B685A1E324B7B
:101240001A60314B1B68002B56D1304B1B68002BAA
:1012500052D02FE02E4BDB68DB683B603B681833D5
:10126000184600F05FFE3B680433184600F05AFE53
:101270003B68DA6A274B1B689A4203D93B68DA6AF3
:10128000244B1A603B68DA6A13469B0013449B00A8
:10129000214A1A443B6804331046194600F0E6FD23
:1012A0003B68DA6A1D4B1B68DB6A9A4202D31C4B0F
:1012B00001221A60164B1B68002BCBD1194B1B68FF
:1012C000002B11D00CE000F041F80346002B02D0B7
:1012D000134B01221A60134B1B685A1E114B1A60E4
:1012E000104B1B68002BEED10D4B1B68012B03D15B
:1012F00001237B6000F0B6FF00F0D4FF7B68184646
:101300000837BD4680BD00BF602D0120402D012063
:10131000002D0120482D01206C2C0120682C01207B
:10132000542D0120502D012080B582B000AF00F077
:10133000A9FF054B1B687B6000F0B4FF7B68184673
:101340000837BD4680BD00BF442D012080B586B062
:1013500000AF00237B614E4B1B68002B40F0878061
:101360004C4B1B685A1C4B4B1A604A4B1B683B6129
:101370003B69002B18D1484B1B681B68002B02D01F
:1013800000F0A8FFFEE7444B1B68FB60434B1A6864
:10139000414B1A60414BFA681A60414B1B685A1C5A
:1013A0003F4B1A6000F054FB3E4B1B683A699A426F
:1013B0004ED3394B1B681B68002B01D1012300E081
:1013C0000023002B04D0374B4FF0FF321A603FE070
:1013D000314B1B68DB68DB68BB60BB685B687B60AC
:1013E0003A697B689A4203D22E4B7A681A602FE0E2
:1013F000BB680433184600F095FDBB689B6A002B60
:1014000004D0BB681833184600F08CFDBB68DA6A5C
:10141000254B1B689A4203D9BB68DA6A224B1A60D3
:10142000BB68DA6A13469B0013449B001F4A1A44A8
:10143000BB6804331046194600F018FDBB68DA6A31
:101440001B4B1B68DB6A9A4201D301237B61B0E727
:10145000174B1B68DA6A154913469B0013449B001F
:101460000B441B68012B07D901237B6104E0114B5E
:101470001B685A1C0F4B1A600F4B1B68002B01D0C6
:1014800001237B617B6918461837BD4680BD00BFCC
:10149000602D0120442D0120F82C0120FC2C01207E
:1014A000582D012018000020482D01206C2C01200F
:1014B000682C0120502D0120542D012080B582B0D0
:1014C00000AF224B1B68002B03D0214B01221A6076
:1014D00038E01F4B00221A600BE01E4B1B68002BEC
:1014E00002D100F0F7FEFEE71A4B1B685A1E194B9B
:1014F0001A60184B1A68184913469B0013449B0046
:101500000B441B68002BE8D0124B1A6813469B0053
:1015100013449B00104A13447B607B685B685A68E5
:101520007B685A607B685A687B6808339A4204D1AA
:101530007B685B685A687B685A607B685B68DA68BE
:10154000064B1A600837BD4680BD00BF602D0120E4
:10155000542D0120482D01206C2C0120682C0120E5
:1015600080B584B000AF786039607B68002B02D111
:1015700000F0B0FEFEE7124B1B681833786819467E
:1015800000F098FC0E4B1B680433184600F0CAFCB0
:101590003B68B3F1FF3F07D1094B1B68043309488F
:1015A000194600F063FC07E0074B1A683B681344D8
:1015B000FB60F86800F0D4F91037BD4680BD00BF6D
:1015C000682C01202C2D0120442D012080B584B0F1
:1015D00000AF786039607B68002B02D100F07AFEA2
:1015E000FEE70C4B1B6818337868194600F03EFC88
:1015F000084B1B680433184600F094FC064B1A682D
:101600003B681344FB60F86800F0AAF91037BD4648
:1016100080BD00BF682C0120442D012080B584B01E
:1016200000AF78607B68DB68DB68BB60BB68002B61
:1016300002D100F04FFEFEE7BB681833184600F0F9
:1016400071FC1E4B1B68002B1DD1BB680433184670
:1016500000F068FCBB68DA6A194B1B689A4203D930
:10166000BB68DA6A164B1A60BB68DA6A13469B00DD
:1016700013449B00134A1A44BB68043310461946AE
:1016800000F0F4FB05E0BB6818330F48194600F082
:10169000EDFBBB68DA6A0D4B1B68DB6A9A4205D921
:1016A0000123FB600A4B01221A6001E00023FB606A
:1016B000FB6818461037BD4680BD00BF602D012075
:1016C000482D01206C2C0120002D0120682C0120C8
:1016D000542D012080B582B000AF78607B68002B6C
:1016E00002D100F0F7FDFEE7054B1A687B681A602F
:1016F000044B1A687B685A600837BD4680BD00BF3E
:10170000582D0120442D012080B584B000AF7860B1
:1017100039607B68002B02D100F0DCFDFEE73B68FE
:10172000002B02D100F0D6FDFEE700F0ABFD1C4B14
:101730001B68BB603B681B68B3F1FF3F02D100230D
:10174000FB6026E07B681A68164B1B689A4207D03C
:101750007B685A68BB689A4202D80123FB6018E094
:101760007B685B68BA68D21A3B681B689A420ED2E3
:101770003B681A687B685968BB68CB1A1A443B6897
:101780001A607868FFF7A6FF0023FB6001E00123E1
:10179000FB6000F087FDFB6818461037BD4680BD32
:1017A000442D0120582D012080B400AF034B0122AD
:1017B0001A60BD465DF8047B704700BF542D0120C0
:1017C00080B582B000AF786000F090F8034B1B68E2
:1017D000012B01D900F046FDF6E700BF6C2C01207B
:1017E00080B586B000AFF860B9607A603B600023D6
:1017F0007B6112E0BA687B6913441A78F9687B69E7
:101800000B4430331A71BA687B6913441B78002B80
:1018100000D105E07B6901337B617B69092BE9D944
:10182000FB68002283F83D207B68042B01D9042348
:101830007B60FB687A68DA62FB687A689A64FB68A6
:101840000433184600F006FBFB681833184600F016
:1018500001FBFB68FA681A617B68C3F10502FB684B
:101860009A61FB68FA685A621837BD4680BD00BFAE
:1018700080B582B000AF00237B600CE07A6813462D
:101880009B0013449B00114A1344184600F0C2FA0F
:101890007B6801337B607B68042BEFD90C4800F038
:1018A000B9FA0C4800F0B6FA0B4800F0B3FA0B484E
:1018B00000F0B0FA0A4800F0ADFA0A4B044A1A6088
:1018C000094B044A1A600837BD4680BD6C2C0120C4
:1018D000D02C0120E42C0120002D0120142D01200A
:1018E0002C2D0120F82C0120FC2C012080B582B089
:1018F00000AF28E0FFF784FC164B1B68002B14BFD9
:1019000000230123DBB27B60FFF788FC7B68002BA0
:1019100019D100F0B7FC0F4BDB68DB683B603B681C
:101920000433184600F0FEFA0B4B1B685A1E0A4B94
:101930001A600A4B1B685A1E084B1A6000F0B2FC72
:10194000386800F075F8054B1B68002BD2D10837BA
:10195000BD4680BD142D0120402D0120282D0120E1
:1019600080B582B000AF7860134B1B687A685A600C
:10197000124B1B687A689A4209D2114B1A680E4BB7
:101980001B6804331046194600F094FA10E00D4B22
:101990001A68094B1B6804331046194600F08AFA8E
:1019A000094B1B687A689A4202D2074B7A681A6020
:1019B0000837BD4680BD00BF682C0120442D0120A2
:1019C000FC2C0120F82C01201800002080B584B0E8
:1019D00000AF03463960FB804C20FEF7D5FBF86072
:1019E000FB68002B1FD03B68002B06D1FB889B00B7
:1019F0001846FEF7C9FB034600E03B68FA6813632C
:101A0000FB681B6B002B05D1F868FEF751FC002327
:101A1000FB6008E0FB681A6BFB889B001046A52161
:101A20001A4601F067FCFB6818461037BD4680BDBA
:101A300080B582B000AF78607B681B6B1846FEF7FC
:101A400037FC7868FEF734FC0837BD4680BD00BF20
:101A500080B483B000AF0E4B1B681B68002B01D114
:101A6000012300E00023002B04D00A4B4FF0FF328B
:101A70001A6008E0064B1B68DB68DB687B607B68EC
:101A80005A68044B1A600C37BD465DF8047B7047FA
:101A9000F82C01201800002080B483B000AF054B63
:101AA0001B687B607B6818460C37BD465DF8047B7D
:101AB000704700BF682C012080B483B000AF0B4B8F
:101AC0001B68002B02D101237B6008E0084B1B68D8
:101AD000002B02D102237B6001E000237B607B6846
:101AE00018460C37BD465DF8047B70474C2D01202D
:101AF000602D012080B584B000AF78607B68FB600A
:101B00007B68002B4AD0FB68DA6A264B1B68DB6ACD
:101B10009A4243D2FB689B69002B06DB214B1B6872
:101B2000DB6AC3F10502FB689A61FB685969FB68CF
:101B3000DA6A13469B0013449B001B4A13449942E4
:101B400001D1012300E00023002B22D0FB680433E5
:101B5000184600F0E7F9134B1B68DA6AFB68DA6293
:101B6000FB68DA6A114B1B689A4203D9FB68DA6A90
:101B70000E4B1A60FB68DA6A13469B0013449B0005
:101B8000094A1A44FB6804331046194600F06EF9FE
:101B900004E0044B1B68DA6AFB68DA621037BD4662
:101BA00080BD00BF682C01206C2C0120482D012035
:101BB00080B584B000AF78607B68FB607B68002BE9
:101BC00030D0FB68DA6AFB689B6C9A422AD0FB68CB
:101BD0000433184600F0A6F9FB689A6CFB68DA62D9
:101BE000FB689B69002B05DBFB68DB6AC3F1050220
:101BF000FB689A61FB68DA6A0C4B1B689A4203D94E
:101C0000FB68DA6A094B1A60FB68DA6A13469B00C4
:101C100013449B00064A1A44FB68043310461946D5
:101C200000F024F91037BD4680BD00BF482D0120CB
:101C30006C2C012080B487B000AF7860396000233D
:101C40007B6100233B610023FB6000237B6176E026
:101C50007B69012202FA03F33B613B681A683B6926
:101C60001340FB60FA683B699A4265D17B681A6849
:101C70007B695B00032101FA03F3DB431A407B68B5
:101C80001A607B681A683B681B7919467B695B00A0
:101C900001FA03F31A437B681A603B681B79012B36
:101CA00003D03B681B79022B2ED17B689A687B6935
:101CB0005B00032101FA03F3DB431A407B689A605F
:101CC0007B689A683B685B7919467B695B0001FA1F
:101CD00003F31A437B689A607B685A687B699BB2FE
:101CE000012101FA03F3DB431A407B685A607B68E9
:101CF0005A683B689B7919467B699BB201FA03F3EA
:101D00009BB21A437B685A607B68DA687B699BB236
:101D10005B00032101FA03F3DB431A407B68DA60BE
:101D20007B68DA683B68DB7919467B695B0001FAFE
:101D300003F31A437B68DA607B6901337B617B695B
:101D40000F2B85D91C37BD465DF8047B704700BF5B
:101D500080B483B000AF78600B467B807B687A8864
:101D60001A830C37BD465DF8047B704780B483B09E
:101D700000AF78600B467B807B687A885A830C378B
:101D8000BD465DF8047B704780B485B000AF7860D5
:101D900013460A467A807B700023FB600023BB60F9
:101DA0007A787B8803F007039B0002FA03F3FB6059
:101DB0007B88DB089BB21A467B88DB089BB21946FE
:101DC0007B68083153F821107B8803F007039B00E0
:101DD0000F2000FA03F3DB4319407B68083243F815
:101DE00022107B88DB089BB21A467B68083253F8C6
:101DF0002220FB681343BB607B88DB089BB21A463A
:101E00007B680832B96843F822101437BD465DF884
:101E1000047B704780B483B000AF78607B6803F1C7
:101E200008027B685A607B684FF0FF329A607B68DB
:101E300003F108027B68DA607B6803F108027B68C3
:101E40001A617B6800221A600C37BD465DF8047B7E
:101E5000704700BF80B483B000AF78607B68002219
:101E60001A610C37BD465DF8047B704780B485B0BD
:101E700000AF786039607B685B68FB603B68FA683C
:101E80005A60FB689A683B689A60FB689B683A688E
:101E90005A60FB683A689A603B687A681A617B68A6
:101EA0001B685A1C7B681A601437BD465DF8047BBA
:101EB000704700BF80B485B000AF786039603B6880
:101EC0001B68BB60BB68B3F1FF3F03D17B681B6934
:101ED000FB600CE07B680833FB6002E0FB685B683A
:101EE000FB60FB685B681A68BB689A42F6D9FB68BE
:101EF0005A683B685A603B685B683A689A603B681E
:101F0000FA689A60FB683A685A603B687A681A61B6
:101F10007B681B685A1C7B681A601437BD465DF8E5
:101F2000047B704780B485B000AF78607B681B6924
:101F3000FB607B685B687A6892689A607B689B68E4
:101F40007A6852685A60FB685A687B689A4203D183
:101F50007B689A68FB685A607B6800221A61FB689C
:101F60001B685A1EFB681A60FB681B68184614370A
:101F7000BD465DF8047B704780B500AF154B154A30
:101F8000D2F8882042F47002C3F88820124B124A1B
:101F9000126842F001021A600F4B00229A600E4A4A
:101FA0000D4B1B6823F0847323F4803313600A4BBA
:101FB0000A4A5A60084B084A126822F480221A60C2
:101FC000054B0022DA6000F00BF8024B4FF0006284
:101FD0009A6080BD00ED00E000380240103000241F
:101FE00080B483B000AF00237B6000233B60354B9F
:101FF000344A126842F480321A60324B1B6803F490
:1020000000333B607B6801337B603B68002B03D16E
:102010007B68B3F5A06FF0D12A4B1B6803F4003343
:10202000002B02D001233B6001E000233B603B68B2
:10203000012B42D1234B234A126C42F080521A6486
:10204000214B214A126842F480421A601D4B1D4AFE
:1020500092689A601B4B1B4A926842F400429A6055
:10206000184B184A926842F4A0529A60154B174ACE
:102070005A60144B134A126842F080721A6000BF13
:10208000104B1B6803F00073002BF9D0104B40F28B
:1020900005621A600B4B0B4A926822F003029A60A9
:1020A000084B084A926842F002029A6000BF054B52
:1020B0009B6803F00C03082BF9D10C37BD465DF883
:1020C000047B7047003802400070004019544007FC
:1020D000003C024080B485B000AFF860B9607A601F
:1020E000FB68043BFB60FB684FF080721A60FB6882
:1020F000043BFB60BA68FB681A60FB68043BFB604A
:102100000C4AFB681A60FB68143BFB607A68FB684A
:102110001A60FB68043BFB60FB686FF002021A6008
:10212000FB68203BFB60FB6818461437BD465DF832
:10213000047B70473921000880B500AF054B1B6850
:10214000B3F1FF3F02D000F0C5F8FEE700F0C2F89F
:10215000FEE700BF1C000020064B19680868B0E8C5
:10216000F04F80F30988BFF36F8F4FF0000080F3CA
:1021700011887047682C012005480068006880F3CA
:10218000088862B6BFF34F8FBFF36F8F00DF00BFC9
:1021900008ED00E080B584B000AF2C4BFB60FB681D
:1021A0001B78DBB2BB60FB68FF221A70FB681B78F0
:1021B000DBB2FB71FB79DBB203F05003DAB2244BE4
:1021C0001A70244B07221A6009E0224B1B685A1E22
:1021D000204B1A60FB79DBB25B00DBB2FB71FB7951
:1021E000DBB2DBB25BB2002BEFDB1A4B1B681A02CF
:1021F000184B1A60174B1B6803F4E062154B1A600A
:10220000BB68DAB2FB681A70134B134A126842F4C7
:1022100070021A60104B104A126842F070421A6045
:1022200000F0A6F80D4B00221A6000F0B3F80C4B3A
:102230000B4A126842F040421A60FFF79DFFFFF719
:102240007BFF002318461037BD4680BD00E400E048
:10225000642D0120682D012020ED00E01C000020ED
:1022600034EF00E080B400AF054B4FF080521A60AD
:10227000BFF34F8FBFF36F8FBD465DF8047B704790
:1022800004ED00E080B500AF00F024F8044B1B68BB
:102290005A1C034B1A60BFF34F8FBFF36F8F80BD83
:1022A0001C00002080B500AF094B1B68002B02D139
:1022B00000F010F8FEE7064B1B685A1E044B1A602C
:1022C000034B1B68002B02D1002000F00DF880BDED
:1022D0001C000020EFF311804FF0500181F31188B2
:1022E00070470023184600BF80F31188704700BF75
:1022F000EFF30980BFF36F8F124B1A681EF0100FB7
:1023000008BF20ED108A20E9F04F10604DF8043D21
:102310004FF0500080F31188FFF7D0F84FF0000025
:1023200080F3118808BC19680868B0E8F04F1EF007
:10233000100F08BFB0EC108A80F30988BFF36F8FCD
:10234000704700BF682C012080B500AFFFF7C2FFC7
:10235000FEF7FCFF0346002B03D0044B4FF08052E6
:102360001A600020FFF7C0FF80BD00BF04ED00E051
:1023700080B400AF044B054A1A60054B07221A606F
:10238000BD465DF8047B704714E000E03F9002001A
:1023900010E000E0DFF80C00016841F4700101601A
:1023A0007047000088ED00E080B582B000AFEFF329
:1023B00005837B607B680F2B0CD90D4A7B68134427
:1023C0001B78FB700B4B1B78FA789A4202D2FFF70E
:1023D00081FFFEE7084B1B6803F4E062074B1B68B4
:1023E0009A4202D9FFF776FFFEE70837BD4680BD67
:1023F000F0E300E0642D01200CED00E0682D0120E9
:1024000080B584B000AF786039607B68FB60FB68A2
:10241000002B02D1FFF75EFFFEE7FFF733FFFB68FB
:102420001A68FB68DB6BF968096C01FB03F31A445B
:10243000FB685A60FB6800229A63FB681A68FB68B5
:102440009A60FB681A68FB68DB6B013BF968096CF2
:1024500001FB03F31A44FB68DA60FB684FF0FF32BC
:102460005A64FB684FF0FF329A643B68002B0ED130
:10247000FB681B69002B14D0FB6810331846FFF76C
:10248000CDF80346012B0CD1FFF7ECFE09E0FB6809
:1024900010331846FFF7BEFCFB6824331846FFF7DD
:1024A000B9FCFFF7FFFE012318461037BD4680BD7B
:1024B00080B588B000AFF860B9601346FB710023A7
:1024C000FB61FB68002B2AD05420FDF75DFEB8614C
:1024D000BB69002B23D0FB68BA6802FB03F301330E
:1024E0007B617869FDF750FE0246BB691A60BB69E3
:1024F0001B68002B10D0BB69FA68DA63BB69BA6845
:102500001A64B8690121FFF77BFFBB69FA7983F888
:102510005020BB69FB6102E0B869FDF7C9FEFB69A9
:10252000002B02D1FFF7D6FEFEE7FB6918462037E5
:10253000BD4680BD80B588B000AFF860B9607A60F4
:102540003B600023FB61FB68BB61BB69002B02D1D0
:10255000FFF7C0FEFEE7BB68002B03D1BB691B6C15
:10256000002B01D1012300E00023002B02D1FFF753
:10257000B1FEFEE73B68022B03D1BB69DB6B012B8D
:1025800001D1012300E00023002B02D1FFF7A2FEBE
:10259000FEE7FFF791FA0346002B02D17B68002B80
:1025A00001D1012300E00023002B02D1FFF792FEAE
:1025B000FEE7FFF767FEBB699A6BBB69DB6B9A426C
:1025C00002D33B68022B16D1B869B9683A6800F0AB
:1025D000B9F9BB695B6A002B09D0BB692433184683
:1025E000FFF71CF80346012B01D1FFF73BFEFFF775
:1025F00059FE012359E07B68002B03D1FFF752FEFF
:10260000002352E0FB69002B06D107F110031846A6
:10261000FFF760F80123FB61FFF744FEFEF7F0FDD2
:10262000FFF730FEBB695B6CB3F1FF3F02D1BB69C2
:1026300000225A64BB699B6CB3F1FF3F02D1BB69B6
:1026400000229A64FFF72EFE07F110023B1D104690
:102650001946FFF759F80346002B1ED1B86900F060
:1026600061FA0346002B12D0BB6903F110027B68AC
:1026700010461946FEF774FFB86900F0F1F9FEF74D
:10268000CDFD0346002B0FD1FFF7ECFD0CE0B86940
:1026900000F0E6F9FEF7C2FD8BE7B86900F0E0F95B
:1026A000FEF7BCFD002300E083E718462037BD4657
:1026B00080BD00BF80B588B000AFF860B9607A60B7
:1026C0003B60FB68BB61BB69002B02D1FFF702FED8
:1026D000FEE7BB68002B03D1BB691B6C002B01D14B
:1026E000012300E00023002B02D1FFF7F3FDFEE7FA
:1026F0003B68022B03D1BB69DB6B012B01D10123AA
:1027000000E00023002B02D1FFF7E4FDFEE7FFF716
:102710004BFEFFF7DFFD7861BB699A6BBB69DB6B32
:102720009A4202D33B68022B24D1B869B9683A684F
:1027300000F008F9BB699B6CB3F1FF3F12D1BB6994
:102740005B6A002B13D0BB6924331846FEF766FF83
:102750000346002B0BD07B68002B08D07B6801223E
:102760001A6004E0BB699B6C5A1CBB699A64012324
:10277000FB6101E00023FB617869FFF7B5FDFB69B0
:1027800018462037BD4680BD80B58AB000AFF860DE
:10279000B9607A603B6000237B62FB683B623B6A06
:1027A000002B02D1FFF796FDFEE7BB68002B03D19B
:1027B0003B6A1B6C002B01D1012300E00023002B9E
:1027C00002D1FFF787FDFEE7FFF776F90346002BFE
:1027D00002D17B68002B01D1012300E00023002BF4
:1027E00002D1FFF777FDFEE7FFF74CFD3B6A9B6BDD
:1027F000002B3BD03B6ADB68FB61386AB96800F0AC
:1028000009F93B68002B1CD13B6A9B6B5A1E3B6A43
:102810009A633B6A1B68002B04D1FFF73DF902461F
:102820003B6A5A603B6A1B69002B1BD03B6A103322
:102830001846FEF7F3FE0346012B13D1FFF712FDF6
:1028400010E03B6AFA69DA603B6A5B6A002B09D0E8
:102850003B6A24331846FEF7E1FE0346002B01D005
:10286000FFF700FDFFF71EFD012366E07B68002BEC
:1028700003D1FFF717FD00235FE07B6A002B06D131
:1028800007F114031846FEF725FF01237B62FFF7CB
:1028900009FDFEF7B5FCFFF7F5FC3B6A5B6CB3F195
:1028A000FF3F02D13B6A00225A643B6A9B6CB3F142
:1028B000FF3F02D13B6A00229A64FFF7F3FC07F165
:1028C00014023B1D10461946FEF71EFF0346002B5F
:1028D0002BD1386A00F010F90346002B1FD03B6A59
:1028E0001B68002B08D1FFF7CDFC3B6A5B681846DC
:1028F000FFF700F9FFF7D6FC3B6A03F124027B687F
:1029000010461946FEF72CFE386A00F0A9F8FEF7CB
:1029100085FC0346002B0FD1FFF7A4FC0CE0386ABE
:1029200000F09EF8FEF77AFC5EE7386A00F098F84F
:10293000FEF774FC002300E056E718462837BD4632
:1029400080BD00BF80B584B000AFF860B9607A6028
:10295000FB681B6C002B0CD1FB681B68002B51D152
:10296000FB685B681846FFF723F9FB6800225A6092
:1029700048E07B68002B1AD1FB689A68FB681B6CE7
:102980001046B9681A4600F01BFCFB689A68FB68A1
:102990001B6C1A44FB689A60FB689A68FB685B686A
:1029A0009A422FD3FB681A68FB689A602AE0FB689A
:1029B000DA68FB681B6C1046B9681A4600F000FC28
:1029C000FB68DA68FB681B6C5B421A44FB68DA60E0
:1029D000FB68DA68FB681B689A4207D2FB685A6892
:1029E000FB681B6C5B421A44FB68DA607B68022B55
:1029F00008D1FB689B6B002B04D0FB689B6B5A1EB5
:102A0000FB689A63FB689B6B5A1CFB689A631037E0
:102A1000BD4680BD80B582B000AF786039607B680C
:102A20001B68002B19D07B68DA687B681B6C1A4422
:102A30007B68DA607B68DA687B685B689A4203D3FC
:102A40007B681A687B68DA607B68DA687B681B6C75
:102A5000386811461A4600F0B3FB0837BD4680BD02
:102A600080B582B000AF7860FFF70CFC14E07B68A3
:102A70005B6A002B0AD07B6824331846FEF7CEFD34
:102A80000346002B03D0FEF78FFE00E008E07B68D2
:102A90009B6C5A1E7B689A647B689B6C002BE6DCFF
:102AA0007B684FF0FF329A64FFF7FCFBFFF7EAFB0D
:102AB00014E07B681B69002B0FD07B68103318462D
:102AC000FEF7ACFD0346002B01D0FEF76DFE7B68E0
:102AD0005B6C5A1E7B685A6400E003E07B685B6CA9
:102AE000002BE6DC7B684FF0FF325A64FFF7DAFB1D
:102AF0000837BD4680BD00BF80B584B000AF7860A8
:102B0000FFF7C0FB7B689B6B002B02D10123FB60AE
:102B100001E00023FB60FFF7C5FBFB681846103798
:102B2000BD4680BD80B584B000AF7860FFF7AAFBDA
:102B30007B689A6B7B68DB6B9A4202D10123FB6056
:102B400001E00023FB60FFF7ADFBFB681846103780
:102B5000BD4680BD80B485B000AF78603960002389
:102B6000FB6014E00E4BFA6853F83230002B0BD1A7
:102B70000B4BFA68396843F83210094AFB68DB00EE
:102B800013447A685A6005E0FB680133FB60FB6818
:102B9000072BE7D91437BD465DF8047B704700BFAB
:102BA000B42D012080B584B000AF786039607B68B7
:102BB000FB60FFF767FBFB685B6CB3F1FF3F02D183
:102BC000FB6800225A64FB689B6CB3F1FF3F02D1A3
:102BD000FB6800229A64FFF765FBFB689B6B002B88
:102BE00005D1FB68243318463968FEF7EFFCF86816
:102BF000FFF736FF1037BD4680BD00BF80B582B0FD
:102C000000AF78607B689BB21846FDF729FE083755
:102C1000BD4680BD80B582B000AF0346FB71FB7935
:102C2000194AA2FB03125209642101FB02F29B1A0A
:102C3000DAB2164BA3FB0213DB08DBB203F00F037F
:102C4000134AD35C184600F09BF8FB790E4AA2FBAE
:102C500003125209642101FB02F29B1ADAB20B4BF8
:102C6000A3FB0213D9080B469B000B445B00D31A4D
:102C7000DBB203F00F03064AD35C184600F080F87D
:102C80000837BD4680BD00BF1F85EB51CDCCCCCCF5
:102C9000B8330008B0B586B000AF87ED040BF8601C
:102CA000B9607A60D7E904014FF000024FF00003E9
:102CB00000F03EFA0346002B23D0F868B96800F014
:102CC00003F9786800F0B8F8BB680233F868194671
:102CD00000F0FAF81C4800F0AFF8BB680333F8685E
:102CE000194600F0F1F83C697B6983F00045204605
:102CF000294600F045FA0346DBB21846FFF78AFF83
:102D00001EE0F868B96800F0DFF8786800F094F821
:102D1000BB680233F868194600F0D6F80B4800F09B
:102D20008BF8BB680333F868194600F0CDF8D7E993
:102D3000040100F025FA0346DBB21846FFF76AFFEC
:102D40001837BD46B0BD00BFCC330008D0330008F3
:102D500080B582B000AF04200121FDF735FE0123CC
:102D60003B7140F2FF333B600023BB713B4603489D
:102D70001946FEF75FFF0837BD4680BD00080240D8
:102D800080B582B000AF0346FB80FB880D48194632
:102D9000FEF7DEFF0B484FF48071FEF7D9FF0120EC
:102DA000FFF72CFF07484FF48071FEF7DFFFFB8829
:102DB00004481946FEF7DAFF0120FFF71FFF083726
:102DC000BD4680BD0008024080B500AFFFF7C0FFE0
:102DD0002820FFF713FF17484FF40071FEF7C6FFD6
:102DE00014483021FEF7B4FF0520FFF707FF114814
:102DF0003021FEF7ADFF0120FFF700FF0D48302125
:102E0000FEF7A6FF0120FFF7F9FE3820FFF7B8FF15
:102E10000C20FFF7B5FF0120FFF7B2FF0620FFF7F8
:102E2000AFFF0220FFF7ACFF02484FF40071FEF73E
:102E30008FFF80BD0008024080B582B000AF78608F
:102E40007B681B781846FFF79BFF7B6801337B602C
:102E50007B681B78002BF3D10837BD4680BD00BFCF
:102E600080B582B000AF0346FB8016484FF48071F6
:102E7000FEF77CFF13484FF40071FEF777FF11480F
:102E80004FF48071FEF764FFFB880E481946FEF789
:102E90005FFF0120FFF7B2FE0A484FF48071FEF792
:102EA00065FFFB8807481946FEF760FF0120FFF722
:102EB000A5FE04484FF40071FEF74AFF0837BD46EF
:102EC00080BD00BF0008024080B582B000AF7860CE
:102ED00039603B6843F080033B607B68012B02D183
:102EE0003B6840333B603B689BB21846FFF7B8FF36
:102EF0000837BD4680BD00BF80B485B000AF7860A4
:102F000039600023FB817B681B88FB81FB8903F40C
:102F10004153FB813B681A883B685B8813439AB234
:102F20003B689B8813439AB23B68DB8813439AB291
:102F30003B681B8913439AB23B685B8913439AB27F
:102F40003B689B8913439AB23B68DB8913439AB26F
:102F5000FB891343FB817B68FA891A807B689B8B12
:102F60009BB223F400639AB27B689A833B681A8A07
:102F70007B681A821437BD465DF8047B704700BF3A
:102F800080B483B000AF78600B46FB70FB78002BF9
:102F900008D07B681B889BB243F040039AB27B68E1
:102FA0001A8007E07B681B889BB223F040039AB22B
:102FB0007B681A800C37BD465DF8047B704700BF04
:102FC00080B483B000AF78607B689B899BB2184661
:102FD0000C37BD465DF8047B704700BF80B483B0FA
:102FE00000AF78600B467B807B687A889A810C37CB
:102FF000BD465DF8047B704780B483B000AF786055
:103000000B46FB70FB78002B08D07B681B889BB2BB
:1030100043F400539AB27B681A8007E07B681B88F0
:103020009BB223F400539AB27B681A800C37BD46DA
:103030005DF8047B704700BF80B485B000AF786056
:103040000B467B800023FB737B681B899AB27B88CD
:1030500013409BB2002B02D00123FB7301E000233D
:10306000FB73FB7B18461437BD465DF8047B704745
:103070004FF0FF3C06E000BF4FF0010C02E000BF44
:103080004FF0010C4DF804CD4FEA410C7FEA6C5C27
:103090004FEA430C18BF7FEA6C5C1BD001B050EACA
:1030A000410C0CBF52EA430C91EA030F02BF90EAB5
:1030B000020F0020704710F1000F91EA030F58BF74
:1030C000994208BF90422CBFD8176FEAE37040F0D6
:1030D000010070474FEA410C7FEA6C5C02D150EA74
:1030E000013C07D14FEA430C7FEA6C5CD6D152EA2F
:1030F000033CD3D05DF8040B704700BF84461046F4
:1031000062468C461946634600E000BF01B5FFF7F2
:10311000B7FF002848BF10F1000F01BD4DF808EDC2
:10312000FFF7F4FF0CBF012000205DF808FB00BF93
:103130004DF808EDFFF7EAFF34BF012000205DF8ED
:1031400008FB00BF4DF808EDFFF7E0FF94BF01203A
:1031500000205DF808FB00BF4DF808EDFFF7CEFF3B
:1031600094BF012000205DF808FB00BF4DF808ED7A
:10317000FFF7C4FF34BF012000205DF808FB00BF4B
:103180004A0011D212F5001211D20DD56FF47873E6
:10319000B3EB62520ED44FEAC12343F0004343EA3B
:1031A000505323FA02F070474FF00000704750EA86
:1031B000013002D14FF0FF3070474FF000007047F0
:1031C000844641EA000313F003036DD1403A41D332
:1031D00051F8043B40F8043B51F8043B40F8043BF1
:1031E00051F8043B40F8043B51F8043B40F8043BE1
:1031F00051F8043B40F8043B51F8043B40F8043BD1
:1032000051F8043B40F8043B51F8043B40F8043BC0
:1032100051F8043B40F8043B51F8043B40F8043BB0
:1032200051F8043B40F8043B51F8043B40F8043BA0
:1032300051F8043B40F8043B51F8043B40F8043B90
:1032400051F8043B40F8043B51F8043B40F8043B80
:10325000403ABDD2303211D351F8043B40F8043B20
:1032600051F8043B40F8043B51F8043B40F8043B60
:1032700051F8043B40F8043B103AEDD20C3205D330
:1032800051F8043B40F8043B043AF9D2043208D028
:10329000D2071CBF11F8013B00F8013B01D30B889A
:1032A00003806046704700BF082A13D38B078DD078
:1032B00010F003038AD0C3F10403D21ADB071CBF4A
:1032C00011F8013B00F8013B80D331F8023B20F8B4
:1032D000023B7BE7043AD9D3013A11F8013B00F8ED
:1032E000013BF9D20B7803704B7843708B78837075
:1032F00060467047F0B4840743D0541E002A3ED085
:10330000CDB2034603E0621E002C38D0144603F809
:10331000015B9A07F7D1032C2AD9CDB245EA0525DE
:103320000F2C45EA054515D9A4F110073F0903F113
:10333000100606EB07161A46156055609560D560B5
:103340001032B242F8D104F00F040137032C03EB22
:1033500007130DD91E462246043A032A46F8045B99
:10336000FAD8221F22F003020432134404F00304AB
:103370002CB1C9B21C4403F8011BA342FBD1F0BC21
:10338000704714460346C6E7547400006E52463236
:10339000344C303100000000427574746F6E0000D0
:1033A000546D722053766300546D7251000000001A
:1033B00049444C4500000000303132333435363753
:1033C00038394142434445462E0000002D0000009C
:0433D0002B000000CE
:1033D400F82B0100F82B0100E7E7E7E7E70000001E
:1033E400E7E7E7E7E7000000FFFFFFFFAAAAAAAAB2
:0400000508000000EF
:00000001FF
