:020000040800F2
:100000001036012091040008FD040008FD040008DA
:10001000FD040008FD040008FD04000800000000C5
:100020000000000000000000000000001D26000885
:10003000FD04000800000000B52700080D28000896
:10004000FD040008FD040008FD040008FD0400088C
:10005000FD040008FD040008FD040008FD0400087C
:10006000FD040008FD040008FD040008FD0400086C
:10007000FD040008FD040008FD040008FD0400085C
:10008000FD040008FD040008FD040008FD0400084C
:10009000FD040008FD040008FD040008FD0400083C
:1000A000FD040008FD040008FD040008FD0400082C
:1000B000FD040008FD040008FD040008FD0400081C
:1000C000FD040008FD040008FD040008FD0400080C
:1000D000FD040008FD040008FD040008FD040008FC
:1000E000FD040008FD040008FD040008FD040008EC
:1000F000FD040008FD040008FD040008FD040008DC
:10010000FD040008FD040008FD040008FD040008CB
:10011000FD040008FD040008FD040008FD040008BB
:10012000FD040008FD040008FD040008FD040008AB
:10013000FD040008FD040008FD040008FD0400089B
:10014000FD040008FD040008FD040008FD0400088B
:10015000FD040008FD040008FD040008FD0400087B
:10016000FD040008FD040008FD040008FD0400086B
:10017000FD040008FD040008FD040008FD0400085B
:10018000FD040008FD04000880B586B000AF78606B
:100190000023FB6001F02CF8404B1B68002B01D1C1
:1001A00000F0D0F83E4B1A687B681340002B6DD1ED
:1001B0007B68002B0DD008237A6813447B607B6832
:1001C00003F00703002B04D07B6823F007030833F8
:1001D0007B607B68002B59D0324B1B687A689A424F
:1001E00054D8314B3B61304B1B687B6104E07B6929
:1001F0003B617B691B687B617B695A687B689A42BB
:1002000003D27B691B68002BF1D1244B1B687A69F0
:100210009A423BD03B691A6808231344FB607B6910
:100220001A683B691A607B695A687B68D21A08238E
:100230005B009A420FD97A697B681344BB607B6983
:100240005A687B68D21ABB685A607B697A685A60C0
:10025000B86800F0C5F8134B1A687B695B68D21A5E
:10026000104B1A600F4B1A68104B1B689A4203D24E
:100270000C4B1A680D4B1A607B695A68084B1B6857
:100280001A437B695A607B6900221A6000F0BEFF46
:10029000FB6818461837BD4680BD00BF382C0120CA
:1002A0003C2C012000000020302C01200400002004
:1002B00080B584B000AF78607B68FB607B68002B02
:1002C00038D008235B42FA681344FB60FB68BB60CC
:1002D000BB685A68194B1B681340002B02D102F00F
:1002E0005BFAFEE7BB681B68002B02D002F054FAF1
:1002F000FEE7BB685A68114B1B681340002B19D0EE
:10030000BB681B68002B15D1BB685A680B4B1B6878
:10031000DB431A40BB685A6000F06AFFBB685A684A
:10032000074B1B681A44064B1A60B86800F058F86F
:1003300000F06CFF1037BD4680BD00BF3C2C012093
:100340000000002080B584B000AF1F4B23F00703EE
:10035000FB601E4BFA681A601C4B00225A601C4B53
:10036000FA681344BB6008235B42BA681344BB605D
:10037000184BBA681A60174B1B6803F00703002B71
:1003800002D002F009FAFEE7124B1B6800225A6005
:10039000104B1B6800221A60FB687B600C4A082324
:1003A000D21A7B685A600B4B1A687B681A600A4B3A
:1003B0001A680823D21A084B1A60084B4FF0004203
:1003C0001A601037BD4680BD38000020302C012057
:1003D000F82B0100382C0120000000203C2C0120CB
:1003E00080B485B000AF7860274BFB6002E0FB680B
:1003F0001B68FB60FB681A687B689A42F7D3FB684E
:10040000BB60FB685B68BA681A447B689A4208D193
:10041000FB685A687B685B681A44FB685A60FB6833
:100420007B607B68BB607B685B68BA681A44FB686A
:100430001B689A4218D1FB681A68144B1B689A42D1
:100440000DD07B685A68FB681B685B681A447B6840
:100450005A60FB681B681A687B681A6008E00B4BDF
:100460001A687B681A6003E0FB681A687B681A6088
:10047000FA687B689A4202D0FB687A681A6014377F
:10048000BD465DF8047B7047302C0120382C0120DC
:1004900080B582B000AF134B7B60134B3B6007E02D
:1004A0003B681A1D3A607A68111D796012681A60FB
:1004B0003A680E4B9A42F3D30D480E494FF00002B2
:1004C0008842B8BF40F8042BFFF6FAAFDFF82800E7
:1004D000016841F47001016000F040FA0837BD4640
:1004E00080BD00BF44340008000000203000002020
:1004F00030000020102E012088ED00E080B400AF15
:10050000FEE700BF80B500AF00F0FCF82320032118
:1005100000F072F8142000F06FF92020382100F06C
:100520006BF8142000F068F92220012100F064F833
:10053000142000F061F92420002100F05DF814205F
:1005400000F05AF92520022100F056F8142000F09E
:1005500053F92620072100F04FF8142000F04CF941
:1005600030200B49052200F065F8142000F044F912
:100570002A200849052200F05DF8142000F03CF91B
:100580002120002100F038F8C82000F035F980BDA6
:10059000080000201000002080B582B000AF786015
:1005A00000F0B0F827207E2100F026F8142000F09B
:1005B00023F920203A2100F01FF8142000F01CF944
:1005C00000F096F8E12000F063F8002000F060F8F9
:1005D00000F084F8142000F00FF9A02079682022A0
:1005E00000F028F800F098F8C82000F005F900F0B5
:1005F00089F80837BD4680BD80B584B000AF02469B
:100600000B46FA71BB7100F073F8142000F0F4F897
:10061000FB79184600F03CF80346FB73BB7918469B
:1006200000F036F800F05AF8FB7B18461037BD464C
:1006300080BD00BF80B584B000AF3960134602466C
:10064000FA71BB7100F054F8142000F0D5F8FB7972
:10065000184600F01DF80346BB600023FB600AE06B
:100660003B681B78184600F013F83B6801333B6089
:10067000FB680133FB60BA79FB689A42F0D800F05E
:100680002DF8BB68DBB218461037BD4680BD00BFF1
:1006900080B582B000AF0346FB7100BF0E48022157
:1006A00002F0BAFD0346002BF8D0FB799BB20A4852
:1006B000194602F083FD00BF0748012102F0ACFD9E
:1006C0000346002BF8D0044802F06AFD0346DBB273
:1006D00018460837BD4680BD0030014080B500AFE8
:1006E0000248102101F096FD80BD00BF00000240CD
:1006F00080B500AF0248102101F09AFD80BD00BF17
:100700000000024080B500AF0248082101F090FDD2
:1007100080BD00BF0000024080B500AF0248082144
:1007200001F078FD80BD00BF0000024080B588B0B8
:1007300000AF0120012100F03FF94FF4805001216A
:1007400000F058F92A480521052201F07FFD2848CC
:100750000721052201F07AFD25480621052201F036
:1007600075FDE0237B6002233B7202237B72002332
:10077000BB720223FB723B1D1D48194601F0A2FC0F
:100780000120012100F018F918237B6001233B723E
:1007900002237B720023BB720123FB723B1D1448B2
:1007A000194601F08FFC0023BB814FF48273FB815B
:1007B00000233B8200237B820023BB824FF4007323
:1007C000FB8238233B8300237B830723BB8307F112
:1007D0000C030848194602F07FFC0648002102F08D
:1007E000FBFC0448012102F0BBFC2037BD4680BD64
:1007F000000002400030014080B485B000AF786056
:1008000007E06423FB6000BFFB685A1EFA60002B00
:10081000FAD17B685A1E7A60002BF2D11437BD469C
:100820005DF8047B704700BF80B582B000AF082040
:10083000012100F0C1F84FF470433B6001233B718C
:100840000023BB7103237B710023FB713B460348EC
:10085000194601F037FC0837BD4680BD000C024048
:1008600080B584B000AF0346FB80FB88FB6000F0DE
:1008700053FD0346BB6007F108031846F96800F012
:100880001FFC1037BD4680BD80B582B000AF7860D8
:1008900001F0F4FA03461A46014B1A70F8E700BF5C
:1008A0007C2D012080B582B000AF7860FFF73EFF5D
:1008B000FFF728FE20203821FFF79EFE244B1B78EF
:1008C000DBB2FF2B05D123484FF4704101F0B0FC9F
:1008D000F4E71F4B1B78DAB21F4B1A701E48FFF764
:1008E0005BFE1C484FF4704101F0A2FC1A4B1B78D0
:1008F000013B032B22D801A252F823F00D09000876
:1009000019090008250900083109000811484FF4A9
:10091000805101F07FFC17E00E484FF4005101F0C8
:1009200079FC11E00B484FF4804101F073FC0BE0BF
:1009300008484FF4004101F06DFC05E005484FF414
:10094000704101F075FC00BF0A20FFF789FFB5E791
:100950007C2D0120000C0240802D012080B584B048
:1009600004AF01F06BFDFFF75FFF0223009300234C
:10097000019300230293002303930B480B49822227
:10098000002300F0E9FA02230093002301930023DF
:10099000029300230393064806498222002300F0B5
:1009A000DBFA00F0EDFBFEE7A508000818340008AC
:1009B000890800082434000880B483B000AF786050
:1009C0000B46FB70FB78002B06D0094B084A116BD5
:1009D0007A680A431A6306E0054B054A116B7A6888
:1009E000D2430A401A630C37BD465DF8047B70475A
:1009F0000038024080B483B000AF78600B46FB70D3
:100A0000FB78002B06D0094B084A516C7A680A43E0
:100A10005A6406E0054B054A516C7A68D2430A4095
:100A20005A640C37BD465DF8047B704700380240BD
:100A300080B586B004AF00237B6000F051FA0F4B05
:100A40001B68002B0FD00223009300230193002387
:100A50000293002303930A480A494FF48272002349
:100A600000F07AFA78607B68002B02D101F094FEE6
:100A7000FEE77B6818460837BD4680BD702C012014
:100A8000850B00082C34000880B588B000AFF860F2
:100A9000B9607A603B600023FB611D4B1B68002B33
:100AA00030D0BB683B617B687B61FB68BB61BB6826
:100AB000052B1CDC00F0F8FF0346022B0BD1144B76
:100AC0001A6807F1100310461946BA6A002301F0AC
:100AD00093FFF86116E00E4B1A6807F110031046F9
:100AE00019460022002301F087FFF8610AE0084B55
:100AF0001A6807F11003104619463A68002302F0FD
:100B00003BF8F861FB6918462037BD4680BD00BF41
:100B1000702C012080B586B002AF78603960184B28
:100B20001B68DB68DB68FB60FB680433184601F078
:100B30005BFCFB68DB69012B1BD1FB689A697B6856
:100B40001344F86819463A687B6800F0A7F8034632
:100B5000012B0ED100230093F86800217A6800234E
:100B6000FFF792FFB860BB68002B02D101F014FEC2
:100B7000FEE7FB685B6AF86898471037BD4680BDA2
:100B8000682C012080B584B000AF786007F10803BD
:100B9000184600F03FF8F860BB68F868194600F0A6
:100BA00003F800F0BDF8F1E780B584B000AF7860DD
:100BB000396000F01DFB07F10803184600F04EF8FD
:100BC000F860BB68002B1ED13B68002B0AD17A6805
:100BD000FB689A4206D800F019FB7868F968FFF7BD
:100BE00099FF12E00A4B1A687968FB68CB1A104625
:100BF000194602F039FA00F009FB0346002B04D134
:100C000001F092FD01E000F001FB1037BD4680BD10
:100C1000702C012080B485B000AF78600E4B1B684B
:100C20001B68002B14BF00230123DBB21A467B682C
:100C30001A607B681B68002B05D1074B1B68DB68BB
:100C40001B68FB6001E00023FB60FB68184614375B
:100C5000BD465DF8047B7047682C012080B584B0E8
:100C600000AF786000F058FBF8600B4B1B68FA6827
:100C70009A4205D200F0DCF87B6801221A6002E09B
:100C80007B6800221A60044BFA681A60FB681846F9
:100C90001037BD4680BD00BF742C012080B586B0E2
:100CA00000AFF860B9607A603B6000237B61FB684D
:100CB000BA685A60FB68FA681A61BA687B689A4237
:100CC00012D87A683B68D21AFB689B699A4202D3B1
:100CD00001237B611BE0104B1A68FB68043310464C
:100CE000194601F049FB12E07A683B689A4206D245
:100CF000BA683B689A4202D301237B6107E0074B45
:100D00001A68FB6804331046194601F035FB7B690D
:100D100018461837BD4680BD6C2C0120682C012078
:100D200080B58AB002AF70E0BB68002B6DDB3B6919
:100D3000FB61FB695B69002B04D0FB690433184637
:100D400001F052FB3B1D1846FFF788FFB861BB68F6
:100D5000092B59D801A252F823F000BF850D0008D5
:100D6000850D0008850D0008090E0008D70D000844
:100D7000010E0008850D0008850D0008090E000809
:100D8000D70D0008FA68FB699B691A44FB68F8698B
:100D90001146BA69FFF782FF0346012B1AD1FB699E
:100DA0005B6AF8699847FB69DB69012B12D1FA6825
:100DB000FB699B69134400220092F86900211A46DE
:100DC0000023FFF761FE78617B69002B02D101F0FF
:100DD000E3FCFEE719E0FA68FB699A61FB699B692D
:100DE000002B02D101F0D8FCFEE7FB699A69BB69D0
:100DF0001344F8691946BA69BB69FFF74FFF04E06D
:100E0000F869FFF755FA00E000BF084B1A6807F1D0
:100E10000803104619460022002301F017FF03467D
:100E2000002B81D12037BD4680BD00BF702C012032
:100E300080B588B002AF3DE0274B1B68DB681B68BC
:100E40007B61254B1B68DB68DB683B613B690433D6
:100E5000184601F0C9FA3B695B6A386998473B69F3
:100E6000DB69012B26D13B699A697B691344FB60DE
:100E7000FA687B699A420ED93B69FA685A603B6905
:100E80003A691A61144B1A683B69043310461946D3
:100E900001F072FA0EE000230093386900217A69AC
:100EA0000023FFF7F1FDB860BB68002B02D101F011
:100EB00073FCFEE7084B1B681B68002BBCD1064B7C
:100EC0001B687B60054B1A68034B1A60034B7A68FA
:100ED0001A601837BD4680BD682C01206C2C01209B
:100EE00080B500AF01F030FC154B1B68002B24D1FE
:100EF000144801F0F1F9144801F0EEF9134B114ACE
:100F00001A60134B104A1A600A200C21002201F0CB
:100F100031FD02460A4B1A60094B1B68002B02D1B7
:100F200001F03AFCFEE7064B1B68002B05D0044B92
:100F30001B681846074902F06FF801F015FC80BDE8
:100F4000702C0120402C0120542C0120682C012001
:100F50006C2C01203434000880B58AB002AFF860F0
:100F6000B9603B601346FB80FB68002B02D101F0A7
:100F700013FCFEE7BB6A042B02D901F00DFCFEE76F
:100F8000FB881846396B00F019FDB861BB69002B6E
:100F900072D0BB691A6BFB8803F18043013B9B0055
:100FA00013447B617B6923F007037B617B6903F05A
:100FB0000703002B02D001F0EFFBFEE7FB88009354
:100FC000B869B968BA6A7B6B00F002FC7869F968A5
:100FD0003A6801F0E1FA0246BB691A60FB6A002B2D
:100FE00002D0FB6ABA691A6001F0AEFB2E4B1B6897
:100FF0005A1C2D4B1A602D4B1B68002B09D12B4B13
:10100000BA691A60284B1B68012B0FD100F028FC2D
:101010000CE0274B1B68002B08D1244B1B68DA6AB5
:10102000BB6A9A4202D8214BBA691A60214B1B68ED
:101030005A1C204B1A601F4B1A68BB691A64BB69A3
:10104000DA6A1D4B1B689A4203D9BB69DA6A1A4BEC
:101050001A60BB69DA6A13469B0013449B00174A67
:101060001A44BB6904331046194601F061F90123A3
:10107000FB6101F079FB02E04FF0FF33FB61FB699C
:10108000012B0BD10A4B1B68002B07D0074B1B68A9
:10109000DA6ABB6A9A4201D201F046FBFB69184644
:1010A0002037BD4680BD00BF502D0120782C012087
:1010B0005C2D01206C2D0120582D01207C2C01205D
:1010C00080B586B000AF7860396000237B617B68B3
:1010D000002B02D101F060FBFEE73B68002B02D140
:1010E00001F05AFBFEE7234B1B68002B02D001F0F6
:1010F00053FBFEE700F07CF81F4B1B683B617B68ED
:101100001A683B681344FB607B681A683B699A4223
:101110000BD97B681A68FB689A4211D9FA683B6957
:101120009A420DD901237B610AE07B681A68FB684B
:101130009A4203D8FA683B699A4201D901237B613C
:101140007B68FA681A607B69002B08D00B4B1B6820
:101150000433184601F048F9F86800F0F9FB00F094
:1011600055F8B860BB68002B01D101F0DDFA1837E3
:10117000BD4680BD702D0120542D0120782C01200A
:1011800080B586B004AF00230093002301930023B1
:101190000293002303931248124982220023FFF78F
:1011A000DBFE78607B68012B02D1FFF741FC7860A1
:1011B0007B68012B0AD101F0EFFA0B4B01221A6078
:1011C0000A4B00221A6001F047FA05E07B68002B09
:1011D00002D101F0E1FAFEE70837BD4680BD00BF4D
:1011E000B11700083C3400085C2D0120542D01206B
:1011F00080B400AF044B1B685A1C034B1A60BD46F9
:101200005DF8047B704700BF702D012080B582B06F
:1012100000AF00237B60384B1B68002B02D101F02C
:10122000BBFAFEE701F090FA334B1B685A1E324BB3
:101230001A60314B1B68002B56D1304B1B68002BBA
:1012400052D02FE02E4BDB68DB683B603B681833E5
:10125000184601F0C9F83B680433184601F0C4F899
:101260003B68DA6A274B1B689A4203D93B68DA6A03
:10127000244B1A603B68DA6A13469B0013449B00B8
:10128000214A1A443B6804331046194601F050F8CD
:101290003B68DA6A1D4B1B68DB6A9A4202D31C4B1F
:1012A00001221A60164B1B68002BCBD1194B1B680F
:1012B000002B11D00CE000F041F80346002B02D0C7
:1012C000134B01221A60134B1B685A1E114B1A60F4
:1012D000104B1B68002BEED10D4B1B68012B03D16B
:1012E00001237B6001F020FA01F03EFA7B6818468A
:1012F0000837BD4680BD00BF702D0120502D012054
:10130000102D0120582D01207C2C0120782C01204B
:10131000642D0120602D012080B582B000AF01F066
:1013200013FA054B1B687B6001F01EFA7B681846B8
:101330000837BD4680BD00BF542D012080B586B062
:1013400000AF00237B614E4B1B68002B40F0878071
:101350004C4B1B685A1C4B4B1A604A4B1B683B6139
:101360003B69002B18D1484B1B681B68002B02D02F
:1013700001F012FAFEE7444B1B68FB60434B1A680E
:10138000414B1A60414BFA681A60414B1B685A1C6A
:101390003F4B1A6000F054FB3E4B1B683A699A427F
:1013A0004ED3394B1B681B68002B01D1012300E091
:1013B0000023002B04D0374B4FF0FF321A603FE080
:1013C000314B1B68DB68DB68BB60BB685B687B60BC
:1013D0003A697B689A4203D22E4B7A681A602FE0F2
:1013E000BB680433184600F0FFFFBB689B6A002B04
:1013F00004D0BB681833184600F0F6FFBB68DA6A01
:10140000254B1B689A4203D9BB68DA6A224B1A60E3
:10141000BB68DA6A13469B0013449B001F4A1A44B8
:10142000BB6804331046194600F082FFBB68DA6AD5
:101430001B4B1B68DB6A9A4201D301237B61B0E737
:10144000174B1B68DA6A154913469B0013449B002F
:101450000B441B68012B07D901237B6104E0114B6E
:101460001B685A1C0F4B1A600F4B1B68002B01D0D6
:1014700001237B617B6918461837BD4680BD00BFDC
:10148000702D0120542D0120082D01200C2D01204C
:10149000682D012018000020582D01207C2C0120EF
:1014A000782C0120602D0120642D012080B582B0B0
:1014B00000AF224B1B68002B03D0214B01221A6086
:1014C00038E01F4B00221A600BE01E4B1B68002BFC
:1014D00002D101F061F9FEE71A4B1B685A1E194B45
:1014E0001A60184B1A68184913469B0013449B0056
:1014F0000B441B68002BE8D0124B1A6813469B0064
:1015000013449B00104A13447B607B685B685A68F5
:101510007B685A607B685A687B6808339A4204D1BA
:101520007B685B685A687B685A607B685B68DA68CE
:10153000064B1A600837BD4680BD00BF702D0120E4
:10154000642D0120582D01207C2C0120782C0120B5
:1015500080B584B000AF786039607B68002B02D121
:1015600001F01AF9FEE7124B1B6818337868194628
:1015700000F002FF0E4B1B680433184600F034FFE6
:101580003B68B3F1FF3F07D1094B1B68043309489F
:10159000194600F0CDFE07E0074B1A683B6813447C
:1015A000FB60F86800F0D4F91037BD4680BD00BF7D
:1015B000782C01203C2D0120542D012080B584B0D1
:1015C00000AF786039607B68002B02D101F0E4F84D
:1015D000FEE70C4B1B6818337868194600F0A8FE2C
:1015E000084B1B680433184600F0FEFE064B1A68D1
:1015F0003B681344FB60F86800F0AAF91037BD4659
:1016000080BD00BF782C0120542D012080B584B00E
:1016100000AF78607B68DB68DB68BB60BB68002B71
:1016200002D101F0B9F8FEE7BB681833184600F0A4
:10163000DBFE1E4B1B68002B1DD1BB680433184614
:1016400000F0D2FEBB68DA6A194B1B689A4203D9D4
:10165000BB68DA6A164B1A60BB68DA6A13469B00ED
:1016600013449B00134A1A44BB68043310461946BE
:1016700000F05EFE05E0BB6818330F48194600F025
:1016800057FEBB68DA6A0D4B1B68DB6A9A4205D9C4
:101690000123FB600A4B01221A6001E00023FB607A
:1016A000FB6818461037BD4680BD00BF702D012075
:1016B000582D01207C2C0120102D0120782C012098
:1016C000642D012080B582B000AF78607B68002B6C
:1016D00002D101F061F8FEE7054B1A687B681A60D9
:1016E000044B1A687B685A600837BD4680BD00BF4E
:1016F000682D0120542D012080B584B000AF7860A2
:1017000039607B68002B02D101F046F8FEE73B68A8
:10171000002B02D101F040F8FEE701F015F81C4B58
:101720001B68BB603B681B68B3F1FF3F02D100231D
:10173000FB6026E07B681A68164B1B689A4207D04C
:101740007B685A68BB689A4202D80123FB6018E0A4
:101750007B685B68BA68D21A3B681B689A420ED2F3
:101760003B681A687B685968BB68CB1A1A443B68A7
:101770001A607868FFF7A6FF0023FB6001E00123F1
:10178000FB6000F0F1FFFB6818461037BD4680BDD6
:10179000542D0120682D012080B400AF034B01229D
:1017A0001A60BD465DF8047B704700BF642D0120C0
:1017B00080B582B000AF786000F090F8034B1B68F2
:1017C000012B01D900F0B0FFF6E700BF7C2C01200F
:1017D00080B586B000AFF860B9607A603B600023E6
:1017E0007B6112E0BA687B6913441A78F9687B69F7
:1017F0000B4430331A71BA687B6913441B78002B91
:1018000000D105E07B6901337B617B69092BE9D954
:10181000FB68002283F83D207B68042B01D9042358
:101820007B60FB687A68DA62FB687A689A64FB68B6
:101830000433184600F070FDFB681833184600F0BA
:101840006BFDFB68FA681A617B68C3F10502FB68EF
:101850009A61FB68FA685A621837BD4680BD00BFBE
:1018600080B582B000AF00237B600CE07A6813463D
:101870009B0013449B00114A1344184600F02CFDB2
:101880007B6801337B607B68042BEFD90C4800F048
:1018900023FD0C4800F020FD0B4800F01DFD0B4817
:1018A00000F01AFD0A4800F017FD0A4B044A1A60BE
:1018B000094B044A1A600837BD4680BD7C2C0120C4
:1018C000E02C0120F42C0120102D0120242D0120DA
:1018D0003C2D0120082D01200C2D012080B582B067
:1018E00000AF28E0FFF784FC164B1B68002B14BFE9
:1018F00000230123DBB27B60FFF788FC7B68002BB1
:1019000019D100F021FF0F4BDB68DB683B603B68BF
:101910000433184600F068FD0B4B1B685A1E0A4B37
:101920001A600A4B1B685A1E084B1A6000F01CFF15
:10193000386800F075F8054B1B68002BD2D10837CA
:10194000BD4680BD242D0120502D0120382D0120C1
:1019500080B582B000AF7860134B1B687A685A601C
:10196000124B1B687A689A4209D2114B1A680E4BC7
:101970001B6804331046194600F0FEFC10E00D4BC6
:101980001A68094B1B6804331046194600F0F4FC32
:10199000094B1B687A689A4202D2074B7A681A6030
:1019A0000837BD4680BD00BF782C0120542D012092
:1019B0000C2D0120082D01201800002080B584B0D6
:1019C00000AF03463960FB804C20FEF7DDFBF8607A
:1019D000FB68002B1FD03B68002B06D1FB889B00C7
:1019E0001846FEF7D1FB034600E03B68FA68136334
:1019F000FB681B6B002B05D1F868FEF759FC002330
:101A0000FB6008E0FB681A6BFB889B001046A52171
:101A10001A4601F0B7FCFB6818461037BD4680BD7A
:101A200080B582B000AF78607B681B6B1846FEF70C
:101A30003FFC7868FEF73CFC0837BD4680BD00BF20
:101A400080B483B000AF0E4B1B681B68002B01D124
:101A5000012300E00023002B04D00A4B4FF0FF329B
:101A60001A6008E0064B1B68DB68DB687B607B68FC
:101A70005A68044B1A600C37BD465DF8047B70470A
:101A8000082D01201800002080B483B000AF054B62
:101A90001B687B607B6818460C37BD465DF8047B8D
:101AA000704700BF782C012080B483B000AF0B4B8F
:101AB0001B68002B02D101237B6008E0084B1B68E8
:101AC000002B02D102237B6001E000237B607B6856
:101AD00018460C37BD465DF8047B70475C2D01202D
:101AE000702D012080B584B000AF78607B68FB600A
:101AF0007B68002B4AD0FB68DA6A264B1B68DB6ADE
:101B00009A4243D2FB689B69002B06DB214B1B6882
:101B1000DB6AC3F10502FB689A61FB685969FB68DF
:101B2000DA6A13469B0013449B001B4A13449942F4
:101B300001D1012300E00023002B22D0FB680433F5
:101B4000184600F051FC134B1B68DA6AFB68DA6236
:101B5000FB68DA6A114B1B689A4203D9FB68DA6AA0
:101B60000E4B1A60FB68DA6A13469B0013449B0015
:101B7000094A1A44FB6804331046194600F0D8FBA2
:101B800004E0044B1B68DA6AFB68DA621037BD4672
:101B900080BD00BF782C01207C2C0120582D012015
:101BA00080B584B000AF78607B68FB607B68002BF9
:101BB00030D0FB68DA6AFB689B6C9A422AD0FB68DB
:101BC0000433184600F010FCFB689A6CFB68DA627C
:101BD000FB689B69002B05DBFB68DB6AC3F1050230
:101BE000FB689A61FB68DA6A0C4B1B689A4203D95E
:101BF000FB68DA6A094B1A60FB68DA6A13469B00D5
:101C000013449B00064A1A44FB68043310461946E5
:101C100000F08EFB1037BD4680BD00BF582D01205F
:101C20007C2C012080B500AF1A200121FEF7C4FEF4
:101C3000264B00221A71254B00229A71234B032256
:101C40005A71224B0222DA71204B4FF400621A6063
:101C50001F481E4900F036FA1C4B4FF400521A6020
:101C60001B481A4900F02EFA184B4FF400421A6034
:101C70001748164900F026FA144B4FF400621A6018
:101C80001448124900F01EFA104B4FF400521A602B
:101C900010480E4900F016FA0C4B4FF400421A603F
:101CA0000C480A4900F00EFA084B4FF400721A6013
:101CB0000948064900F006FA044B4FF400621A6026
:101CC0000548024900F0FEF980BD00BFC82D012083
:101CD0000010024000040240000C024080B500AF3A
:101CE000094B01221A71084B0222DA71064B4FF49C
:101CF00000621A600548044900F0E4F903484FF413
:101D0000006100F087FA80BDC82D0120000C024060
:101D100080B500AF094B01221A71084B0222DA711B
:101D2000064B4FF400621A600548044900F0CAF9F6
:101D300003484FF4006100F07BFA80BDC82D0120FC
:101D4000000C024080B500AF094B01221A71084B0C
:101D50000222DA71064B4FF400721A6005480449FA
:101D600000F0B0F903484FF4007100F053FA80BD61
:101D7000C82D0120000C024080B500AF094B0122A4
:101D80001A71084B0222DA71064B4FF400621A6096
:101D90000548044900F096F903484FF4007100F03B
:101DA00047FA80BDC82D0120000C024080B500AF6D
:101DB000094B01221A71084B0222DA71064B4FF4CB
:101DC00000421A600548044900F07CF903484FF4CA
:101DD000004100F01FFA80BDC82D01200004024020
:101DE00080B500AF094B01221A71084B0222DA714B
:101DF000064B4FF400421A600548044900F062F9AE
:101E000003484FF4004100F013FA80BDC82D0120B3
:101E10000004024080B500AF094B01221A71084B43
:101E20000222DA71064B4FF400521A600548044949
:101E300000F048F903484FF4005100F0EBF980BD81
:101E4000C82D01200004024080B500AF094B0122DB
:101E50001A71084B0222DA71064B4FF400521A60D5
:101E60000548044900F02EF903484FF4005100F0F2
:101E7000DFF980BDC82D01200004024080B500AF0D
:101E8000FFF7D0FEFFF72AFF8B484FF4006100F008
:101E9000A7F90346012B07D1322001F011F9FFF712
:101EA00037FF864B1B7804E185484FF4004100F072
:101EB00097F90346012B07D1322001F001F9FFF712
:101EC00027FF7E4B5B78F4E07D484FF4005100F033
:101ED00087F90346012B07D1322001F0F1F8FFF713
:101EE00017FF764B9B78E4E075484FF4006100F0F3
:101EF00077F90346012B07D1322001F0E1F8FFF713
:101F000007FF6E4BDB78D4E0FFF702FFFFF78AFE96
:101F1000FFF718FF68484FF4006100F061F90346CD
:101F2000012B07D1322001F0CBF8FFF725FF634BDF
:101F30001B79BEE062484FF4004100F051F90346BE
:101F4000012B07D1322001F0BBF8FFF715FF5B4BE7
:101F50005B79AEE05A484FF4005100F041F9034676
:101F6000012B07D1322001F0ABF8FFF705FF534BEF
:101F70009B799EE052484FF4006100F031F903462E
:101F8000012B07D1322001F09BF8FFF7F5FE4B4BF8
:101F9000DB798EE0FFF7F0FEFFF744FEFFF706FF68
:101FA00045484FF4006100F01BF90346012B07D1AF
:101FB000322001F085F8FFF713FF404B1B7A78E0E1
:101FC0003F484FF4004100F00BF90346012B07D1C5
:101FD000322001F075F8FFF703FF384B5B7A68E0B9
:101FE00037484FF4005100F0FBF80346012B07D1AE
:101FF000322001F065F8FFF7F3FE304B9B7A58E092
:102000002F484FF4006100F0EBF80346012B07D195
:10201000322001F055F8FFF7E3FE284BDB7A48E069
:10202000FFF7DEFEFFF7FEFDFFF7F4FE22484FF458
:10203000006100F0D5F80346012B07D1322001F0F2
:102040003FF8FFF701FF1D4B1B7B32E01C484FF4AC
:10205000004100F0C5F80346012B07D1322001F002
:102060002FF8FFF789FE154B5B7B22E014484FF4F5
:10207000005100F0B5F80346012B07D1322001F0E2
:102080001FF8FFF779FE0D4B9B7B12E00C484FF4D5
:10209000006100F0A5F80346012B07D1322001F0C2
:1020A0000FF8FFF769FE054BDB7B02E0FFF7CCFE84
:1020B000FF23184680BD00BF000402401C00002022
:1020C0000010024080B487B000AF78603960002310
:1020D0007B6100233B610023FB6000237B6176E092
:1020E0007B69012202FA03F33B613B681A683B6992
:1020F0001340FB60FA683B699A4265D17B681A68B5
:102100007B695B00032101FA03F3DB431A407B6820
:102110001A607B681A683B681B7919467B695B000B
:1021200001FA03F31A437B681A603B681B79012BA1
:1021300003D03B681B79022B2ED17B689A687B69A0
:102140005B00032101FA03F3DB431A407B689A60CA
:102150007B689A683B685B7919467B695B0001FA8A
:1021600003F31A437B689A607B685A687B699BB269
:10217000012101FA03F3DB431A407B685A607B6854
:102180005A683B689B7919467B699BB201FA03F355
:102190009BB21A437B685A607B68DA687B699BB2A2
:1021A0005B00032101FA03F3DB431A407B68DA602A
:1021B0007B68DA683B68DB7919467B695B0001FA6A
:1021C00003F31A437B68DA607B6901337B617B69C7
:1021D0000F2B85D91C37BD465DF8047B704700BFC7
:1021E00080B485B000AF78600B467B800023FB7322
:1021F0007B681A697B881340002B02D00123FB7394
:1022000001E00023FB73FB7B18461437BD465DF8E5
:10221000047B704780B483B000AF78600B467B804E
:102220007B687A881A830C37BD465DF8047B70475B
:1022300080B483B000AF78600B467B807B687A887F
:102240005A830C37BD465DF8047B704780B485B077
:1022500000AF786013460A467A807B700023FB60EB
:102260000023BB607A787B8803F007039B0002FAA7
:1022700003F3FB607B88DB089BB21A467B88DB0894
:102280009BB219467B68083153F821107B8803F014
:1022900007039B000F2000FA03F3DB4319407B6820
:1022A000083243F822107B88DB089BB21A467B6811
:1022B000083253F82220FB681343BB607B88DB089D
:1022C0009BB21A467B680832B96843F8221014376B
:1022D000BD465DF8047B704780B483B000AF786082
:1022E0007B6803F108027B685A607B684FF0FF321D
:1022F0009A607B6803F108027B68DA607B6803F10F
:1023000008027B681A617B6800221A600C37BD46A0
:102310005DF8047B704700BF80B483B000AF786085
:102320007B6800221A610C37BD465DF8047B70475C
:1023300080B485B000AF786039607B685B68FB6013
:102340003B68FA685A60FB689A683B689A60FB6869
:102350009B683A685A60FB683A689A603B687A689A
:102360001A617B681B685A1C7B681A601437BD466B
:102370005DF8047B704700BF80B485B000AF786023
:1023800039603B681B68BB60BB68B3F1FF3F03D19A
:102390007B681B69FB600CE07B680833FB6002E034
:1023A000FB685B68FB60FB685B681A68BB689A4205
:1023B000F6D9FB685A683B685A603B685B683A68C4
:1023C0009A603B68FA689A60FB683A685A603B68B2
:1023D0007A681A617B681B685A1C7B681A6014371C
:1023E000BD465DF8047B704780B485B000AF78606F
:1023F0007B681B69FB607B685B687A6892689A609F
:102400007B689B687A6852685A60FB685A687B6888
:102410009A4203D17B689A68FB685A607B68002205
:102420001A61FB681B685A1EFB681A60FB681B6810
:1024300018461437BD465DF8047B704780B500AF81
:10244000154B154AD2F8882042F47002C3F8882050
:10245000124B124A126842F001021A600F4B00221E
:102460009A600E4A0D4B1B6823F0847323F480336B
:1024700013600A4B0A4A5A60084B084A126822F451
:1024800080221A60054B0022DA6000F00BF8024B44
:102490004FF000629A6080BD00ED00E0003802401D
:1024A0001030002480B483B000AF00237B60002391
:1024B0003B60354B344A126842F480321A60324B2A
:1024C0001B6803F400333B607B6801337B603B682F
:1024D000002B03D17B68B3F5A06FF0D12A4B1B68AA
:1024E00003F40033002B02D001233B6001E0002302
:1024F0003B603B68012B42D1234B234A126C42F0D4
:1025000080521A64214B214A126842F480421A60B8
:102510001D4B1D4A92689A601B4B1B4A926842F4FD
:1025200000429A60184B184A926842F4A0529A608E
:10253000154B174A5A60144B134A126842F08072C6
:102540001A6000BF104B1B6803F00073002BF9D01A
:10255000104B40F205621A600B4B0B4A926822F056
:1025600003029A60084B084A926842F002029A609D
:1025700000BF054B9B6803F00C03082BF9D10C3707
:10258000BD465DF8047B7047003802400070004093
:1025900019544007003C024080B485B000AFF86099
:1025A000B9607A60FB68043BFB60FB684FF08072A7
:1025B0001A60FB68043BFB60BA68FB681A60FB6842
:1025C000043BFB600C4AFB681A60FB68143BFB6031
:1025D0007A68FB681A60FB68043BFB60FB686FF07D
:1025E00002021A60FB68203BFB60FB681846143748
:1025F000BD465DF8047B7047FD25000880B500AF3F
:10260000054B1B68B3F1FF3F02D000F0C5F8FEE7B1
:1026100000F0C2F8FEE700BF2C000020064B19684E
:102620000868B0E8F04F80F30988BFF36F8F4FF070
:10263000000080F311887047782C0120054800685D
:10264000006880F3088862B6BFF34F8FBFF36F8FC7
:1026500000DF00BF08ED00E080B584B000AF2C4B78
:10266000FB60FB681B78DBB2BB60FB68FF221A7063
:10267000FB681B78DBB2FB71FB79DBB203F0500324
:10268000DAB2244B1A70244B07221A6009E0224B5D
:102690001B685A1E204B1A60FB79DBB25B00DBB271
:1026A000FB71FB79DBB2DBB25BB2002BEFDB1A4BC9
:1026B0001B681A02184B1A60174B1B6803F4E06280
:1026C000154B1A60BB68DAB2FB681A70134B134AD9
:1026D000126842F470021A60104B104A126842F0FD
:1026E00070421A6000F0A6F80D4B00221A6000F04C
:1026F000B3F80C4B0B4A126842F040421A60FFF7E5
:102700009DFFFFF77BFF002318461037BD4680BDB5
:1027100000E400E0742D0120782D012020ED00E080
:102720002C00002034EF00E080B400AF054B4FF0E8
:1027300080521A60BFF34F8FBFF36F8FBD465DF8B5
:10274000047B704704ED00E080B500AF00F024F892
:10275000044B1B685A1C034B1A60BFF34F8FBFF327
:102760006F8F80BD2C00002080B500AF094B1B6827
:10277000002B02D100F010F8FEE7064B1B685A1E32
:10278000044B1A60034B1B68002B02D1002000F0A1
:102790000DF880BD2C000020EFF311804FF05001A8
:1027A00081F3118870470023184600BF80F3118819
:1027B000704700BFEFF30980BFF36F8F124B1A68A9
:1027C0001EF0100F08BF20ED108A20E9F04F1060B6
:1027D0004DF8043D4FF0500080F31188FEF766FE7F
:1027E0004FF0000080F3118808BC19680868B0E851
:1027F000F04F1EF0100F08BFB0EC108A80F309886C
:10280000BFF36F8F704700BF782C012080B500AFF9
:10281000FFF7C2FFFEF792FD0346002B03D0044BE7
:102820004FF080521A600020FFF7C0FF80BD00BF4C
:1028300004ED00E080B400AF044B054A1A60054B7C
:1028400007221A60BD465DF8047B704714E000E083
:102850003F90020010E000E0DFF80C00016841F456
:10286000700101607047000088ED00E080B582B023
:1028700000AFEFF305837B607B680F2B0CD90D4A0B
:102880007B6813441B78FB700B4B1B78FA789A42D9
:1028900002D2FFF781FFFEE7084B1B6803F4E062FA
:1028A000074B1B689A4202D9FFF776FFFEE708370D
:1028B000BD4680BDF0E300E0742D01200CED00E08A
:1028C000782D012080B584B000AF786039607B68D6
:1028D000FB60FB68002B02D1FFF75EFFFEE7FFF70E
:1028E00033FFFB681A68FB68DB6BF968096C01FB56
:1028F00003F31A44FB685A60FB6800229A63FB6882
:102900001A68FB689A60FB681A68FB68DB6B013B1E
:10291000F968096C01FB03F31A44FB68DA60FB6891
:102920004FF0FF325A64FB684FF0FF329A643B6805
:10293000002B0ED1FB681B69002B14D0FB681033F1
:102940001846FEF763FE0346012B0CD1FFF7ECFEA1
:1029500009E0FB6810331846FFF7BEFCFB68243320
:102960001846FFF7B9FCFFF7FFFE012318461037A2
:10297000BD4680BD80B588B000AFF860B960134631
:10298000FB710023FB61FB68002B2AD05420FDF76C
:10299000FBFBB861BB69002B23D0FB68BA6802FB64
:1029A00003F301337B617869FDF7EEFB0246BB69F7
:1029B0001A60BB691B68002B10D0BB69FA68DA6328
:1029C000BB69BA681A64B8690121FFF77BFFBB696C
:1029D000FA7983F85020BB69FB6102E0B869FDF722
:1029E00067FCFB69002B02D1FFF7D6FEFEE7FB690F
:1029F00018462037BD4680BD80B588B000AFF8606E
:102A0000B9607A603B600023FB61FB68BB61BB6916
:102A1000002B02D1FFF7C0FEFEE7BB68002B03D1FD
:102A2000BB691B6C002B01D1012300E00023002BAC
:102A300002D1FFF7B1FEFEE73B68022B03D1BB6971
:102A4000DB6B012B01D1012300E00023002B02D11D
:102A5000FFF7A2FEFEE7FFF727F80346002B02D19F
:102A60007B68002B01D1012300E00023002B02D161
:102A7000FFF792FEFEE7FFF767FEBB699A6BBB6943
:102A8000DB6B9A4202D33B68022B16D1B869B96856
:102A90003A6800F0B9F9BB695B6A002B09D0BB69E1
:102AA00024331846FEF7B2FD0346012B01D1FFF790
:102AB0003BFEFFF759FE012359E07B68002B03D151
:102AC000FFF752FE002352E0FB69002B06D107F10D
:102AD00010031846FEF7F6FD0123FB61FFF744FEE5
:102AE000FEF786FBFFF730FEBB695B6CB3F1FF3F7F
:102AF00002D1BB6900225A64BB699B6CB3F1FF3FF2
:102B000002D1BB6900229A64FFF72EFE07F1100282
:102B10003B1D10461946FEF7EFFD0346002B1ED164
:102B2000B86900F061FA0346002B12D0BB6903F1CB
:102B300010027B6810461946FEF70AFDB86900F0DE
:102B4000F1F9FEF763FB0346002B0FD1FFF7ECFD15
:102B50000CE0B86900F0E6F9FEF758FB8BE7B869BE
:102B600000F0E0F9FEF752FB002300E083E718468F
:102B70002037BD4680BD00BF80B588B000AFF8608B
:102B8000B9607A603B60FB68BB61BB69002B02D116
:102B9000FFF702FEFEE7BB68002B03D1BB691B6C8D
:102BA000002B01D1012300E00023002B02D1FFF70D
:102BB000F3FDFEE73B68022B03D1BB69DB6B012B06
:102BC00001D1012300E00023002B02D1FFF7E4FD37
:102BD000FEE7FFF74BFEFFF7DFFD7861BB699A6BFD
:102BE000BB69DB6B9A4202D33B68022B24D1B869E4
:102BF000B9683A6800F008F9BB699B6CB3F1FF3F14
:102C000012D1BB695B6A002B13D0BB692433184611
:102C1000FEF7FCFC0346002B0BD07B68002B08D092
:102C20007B6801221A6004E0BB699B6C5A1CBB697B
:102C30009A640123FB6101E00023FB617869FFF7DF
:102C4000B5FDFB6918462037BD4680BD80B58AB00A
:102C500000AFF860B9607A603B6000237B62FB687C
:102C60003B623B6A002B02D1FFF796FDFEE7BB6893
:102C7000002B03D13B6A1B6C002B01D1012300E028
:102C80000023002B02D1FFF787FDFEE7FEF70CFFC4
:102C90000346002B02D17B68002B01D1012300E009
:102CA0000023002B02D1FFF777FDFEE7FFF74CFD75
:102CB0003B6A9B6B002B3BD03B6ADB68FB61386A4D
:102CC000B96800F009F93B68002B1CD13B6A9B6B8B
:102CD0005A1E3B6A9A633B6A1B68002B04D1FEF7BD
:102CE000D3FE02463B6A5A603B6A1B69002B1BD02D
:102CF0003B6A10331846FEF789FC0346012B13D1BB
:102D0000FFF712FD10E03B6AFA69DA603B6A5B6A22
:102D1000002B09D03B6A24331846FEF777FC0346A4
:102D2000002B01D0FFF700FDFFF71EFD012366E039
:102D30007B68002B03D1FFF717FD00235FE07B6A60
:102D4000002B06D107F114031846FEF7BBFC012344
:102D50007B62FFF709FDFEF74BFAFFF7F5FC3B6AD4
:102D60005B6CB3F1FF3F02D13B6A00225A643B6ABD
:102D70009B6CB3F1FF3F02D13B6A00229A64FFF7DC
:102D8000F3FC07F114023B1D10461946FEF7B4FC94
:102D90000346002B2BD1386A00F010F90346002BB4
:102DA0001FD03B6A1B68002B08D1FFF7CDFC3B6AA4
:102DB0005B681846FEF796FEFFF7D6FC3B6A03F108
:102DC00024027B6810461946FEF7C2FB386A00F001
:102DD000A9F8FEF71BFA0346002B0FD1FFF7A4FC5E
:102DE0000CE0386A00F09EF8FEF710FA5EE7386AE9
:102DF00000F098F8FEF70AFA002300E056E71846BC
:102E00002837BD4680BD00BF80B584B000AFF860F4
:102E1000B9607A60FB681B6C002B0CD1FB681B68E7
:102E2000002B51D1FB685B681846FEF7B9FEFB68C2
:102E300000225A6048E07B68002B1AD1FB689A6830
:102E4000FB681B6C1046B9681A4600F001FAFB6873
:102E50009A68FB681B6C1A44FB689A60FB689A6866
:102E6000FB685B689A422FD3FB681A68FB689A601C
:102E70002AE0FB68DA68FB681B6C1046B9681A46E2
:102E800000F0E6F9FB68DA68FB681B6C5B421A44E9
:102E9000FB68DA60FB68DA68FB681B689A4207D255
:102EA000FB685A68FB681B6C5B421A44FB68DA607B
:102EB0007B68022B08D1FB689B6B002B04D0FB685E
:102EC0009B6B5A1EFB689A63FB689B6B5A1CFB68E2
:102ED0009A631037BD4680BD80B582B000AF786080
:102EE00039607B681B68002B19D07B68DA687B68C7
:102EF0001B6C1A447B68DA607B68DA687B685B6805
:102F00009A4203D37B681A687B68DA607B68DA6868
:102F10007B681B6C386811461A4600F099F908372F
:102F2000BD4680BD80B582B000AF7860FFF70CFC75
:102F300014E07B685B6A002B0AD07B682433184658
:102F4000FEF764FB0346002B03D0FEF725FC00E0F0
:102F500008E07B689B6C5A1E7B689A647B689B6C5C
:102F6000002BE6DC7B684FF0FF329A64FFF7FCFB36
:102F7000FFF7EAFB14E07B681B69002B0FD07B682E
:102F800010331846FEF742FB0346002B01D0FEF734
:102F900003FC7B685B6C5A1E7B685A6400E003E0AC
:102FA0007B685B6C002BE6DC7B684FF0FF325A6479
:102FB000FFF7DAFB0837BD4680BD00BF80B584B09F
:102FC00000AF7860FFF7C0FB7B689B6B002B02D1E2
:102FD0000123FB6001E00023FB60FFF7C5FBFB68FA
:102FE00018461037BD4680BD80B584B000AF78600C
:102FF000FFF7AAFB7B689A6B7B68DB6B9A4202D176
:103000000123FB6001E00023FB60FFF7ADFBFB68E1
:1030100018461037BD4680BD80B485B000AF7860DB
:1030200039600023FB6014E00E4BFA6853F832302D
:10303000002B0BD10B4BFA68396843F83210094A60
:10304000FB68DB0013447A685A6005E0FB680133D3
:10305000FB60FB68072BE7D91437BD465DF8047B9E
:10306000704700BFD02D012080B584B000AF7860DC
:1030700039607B68FB60FFF767FBFB685B6CB3F153
:10308000FF3F02D1FB6800225A64FB689B6CB3F1DE
:10309000FF3F02D1FB6800229A64FFF765FBFB68E3
:1030A0009B6B002B05D1FB68243318463968FEF76B
:1030B00085FAF868FFF736FF1037BD4680BD00BFC0
:1030C00080B582B000AF78607B689BB21846FDF790
:1030D000C7FB0837BD4680BD80B485B000AF7860BF
:1030E00039600023FB817B681B88FB81FB8903F42B
:1030F0004153FB813B681A883B685B8813439AB253
:103100003B689B8813439AB23B68DB8813439AB2AF
:103110003B681B8913439AB23B685B8913439AB29D
:103120003B689B8913439AB23B68DB8913439AB28D
:10313000FB891343FB817B68FA891A807B689B8B30
:103140009BB223F400639AB27B689A833B681A8A25
:103150007B681A821437BD465DF8047B704700BF58
:1031600080B483B000AF78600B46FB70FB78002B17
:1031700008D07B681B889BB243F040039AB27B68FF
:103180001A8007E07B681B889BB223F040039AB249
:103190007B681A800C37BD465DF8047B704700BF22
:1031A00080B483B000AF78607B689B899BB218467F
:1031B0000C37BD465DF8047B704700BF80B483B018
:1031C00000AF78600B467B807B687A889A810C37E9
:1031D000BD465DF8047B704780B483B000AF786073
:1031E0000B46FB70FB78002B08D07B681B889BB2DA
:1031F00043F400539AB27B681A8007E07B681B880F
:103200009BB223F400539AB27B681A800C37BD46F8
:103210005DF8047B704700BF80B485B000AF786074
:103220000B467B800023FB737B681B899AB27B88EB
:1032300013409BB2002B02D00123FB7301E000235B
:10324000FB73FB7B18461437BD465DF8047B704763
:10325000844641EA000313F003036DD1403A41D3A1
:1032600051F8043B40F8043B51F8043B40F8043B60
:1032700051F8043B40F8043B51F8043B40F8043B50
:1032800051F8043B40F8043B51F8043B40F8043B40
:1032900051F8043B40F8043B51F8043B40F8043B30
:1032A00051F8043B40F8043B51F8043B40F8043B20
:1032B00051F8043B40F8043B51F8043B40F8043B10
:1032C00051F8043B40F8043B51F8043B40F8043B00
:1032D00051F8043B40F8043B51F8043B40F8043BF0
:1032E000403ABDD2303211D351F8043B40F8043B90
:1032F00051F8043B40F8043B51F8043B40F8043BD0
:1033000051F8043B40F8043B103AEDD20C3205D39F
:1033100051F8043B40F8043B043AF9D2043208D097
:10332000D2071CBF11F8013B00F8013B01D30B8809
:1033300003806046704700BF082A13D38B078DD0E7
:1033400010F003038AD0C3F10403D21ADB071CBFB9
:1033500011F8013B00F8013B80D331F8023B20F823
:10336000023B7BE7043AD9D3013A11F8013B00F85C
:10337000013BF9D20B7803704B7843708B788370E4
:1033800060467047F0B4840743D0541E002A3ED0F4
:10339000CDB2034603E0621E002C38D0144603F879
:1033A000015B9A07F7D1032C2AD9CDB245EA05254E
:1033B0000F2C45EA054515D9A4F110073F0903F183
:1033C000100606EB07161A46156055609560D56025
:1033D0001032B242F8D104F00F040137032C03EB92
:1033E00007130DD91E462246043A032A46F8045B09
:1033F000FAD8221F22F003020432134404F003041B
:103400002CB1C9B21C4403F8011BA342FBD1F0BC90
:10341000704714460346C6E76E524632344C30318C
:1034200000000000427574746F6E0000546D7220CD
:1034300053766300546D72510000000049444C45BE
:043440000000000088
:10344400F82B0100F82B0100E7E7E7E7E7000000AD
:10345400E7E7E7E7E7000000FFFFFFFF0102030AD9
:103464000405060B0708090C0E000F0DAAAAAAAA48
:0400000508000000EF
:00000001FF
