:020000040800F2
:10000000A035012091040008FD040008FD0400084B
:10001000FD040008FD040008FD04000800000000C5
:10002000000000000000000000000000791C000833
:10003000FD04000800000000111E0008691E0008F1
:10004000FD040008FD040008FD040008FD0400088C
:10005000FD040008FD040008FD040008FD0400087C
:10006000FD040008FD040008FD040008FD0400086C
:10007000FD040008FD040008FD040008FD0400085C
:10008000FD040008FD040008FD040008FD0400084C
:10009000FD040008FD040008FD040008FD0400083C
:1000A000FD040008FD040008FD040008FD0400082C
:1000B000FD040008FD040008FD040008FD0400081C
:1000C000FD040008FD040008FD040008FD0400080C
:1000D000FD040008FD040008FD040008FD040008FC
:1000E000FD040008FD040008FD040008FD040008EC
:1000F000FD040008FD040008FD040008FD040008DC
:10010000FD040008FD040008FD040008FD040008CB
:10011000FD040008FD040008FD040008FD040008BB
:10012000FD040008FD040008FD040008FD040008AB
:10013000FD040008FD040008FD040008FD0400089B
:10014000FD040008FD040008FD040008FD0400088B
:10015000FD040008FD040008FD040008FD0400087B
:10016000FD040008FD040008FD040008FD0400086B
:10017000FD040008FD040008FD040008FD0400085B
:10018000FD040008FD04000880B586B000AF78606B
:100190000023FB6000F00AFE404B1B68002B01D1DE
:1001A00000F0D0F83E4B1A687B681340002B6DD1ED
:1001B0007B68002B0DD008237A6813447B607B6832
:1001C00003F00703002B04D07B6823F007030833F8
:1001D0007B607B68002B59D0324B1B687A689A424F
:1001E00054D8314B3B61304B1B687B6104E07B6929
:1001F0003B617B691B687B617B695A687B689A42BB
:1002000003D27B691B68002BF1D1244B1B687A69F0
:100210009A423BD03B691A6808231344FB607B6910
:100220001A683B691A607B695A687B68D21A08238E
:100230005B009A420FD97A697B681344BB607B6983
:100240005A687B68D21ABB685A607B697A685A60C0
:10025000B86800F0C5F8134B1A687B695B68D21A5E
:10026000104B1A600F4B1A68104B1B689A4203D24E
:100270000C4B1A680D4B1A607B695A68084B1B6857
:100280001A437B695A607B6900221A6000F09CFD6A
:10029000FB6818461837BD4680BD00BF182C0120EA
:1002A0001C2C012000000020102C01200400002044
:1002B00080B584B000AF78607B68FB607B68002B02
:1002C00038D008235B42FA681344FB60FB68BB60CC
:1002D000BB685A68194B1B681340002B02D101F010
:1002E00089FDFEE7BB681B68002B02D001F082FD90
:1002F000FEE7BB685A68114B1B681340002B19D0EE
:10030000BB681B68002B15D1BB685A680B4B1B6878
:10031000DB431A40BB685A6000F048FDBB685A686E
:10032000074B1B681A44064B1A60B86800F058F86F
:1003300000F04AFD1037BD4680BD00BF1C2C0120D7
:100340000000002080B584B000AF1F4B23F00703EE
:10035000FB601E4BFA681A601C4B00225A601C4B53
:10036000FA681344BB6008235B42BA681344BB605D
:10037000184BBA681A60174B1B6803F00703002B71
:1003800002D001F037FDFEE7124B1B6800225A60D5
:10039000104B1B6800221A60FB687B600C4A082324
:1003A000D21A7B685A600B4B1A687B681A600A4B3A
:1003B0001A680823D21A084B1A60084B4FF0004203
:1003C0001A601037BD4680BD18000020102C012097
:1003D000F82B0100182C0120000000201C2C01200B
:1003E00080B485B000AF7860274BFB6002E0FB680B
:1003F0001B68FB60FB681A687B689A42F7D3FB684E
:10040000BB60FB685B68BA681A447B689A4208D193
:10041000FB685A687B685B681A44FB685A60FB6833
:100420007B607B68BB607B685B68BA681A44FB686A
:100430001B689A4218D1FB681A68144B1B689A42D1
:100440000DD07B685A68FB681B685B681A447B6840
:100450005A60FB681B681A687B681A6008E00B4BDF
:100460001A687B681A6003E0FB681A687B681A6088
:10047000FA687B689A4202D0FB687A681A6014377F
:10048000BD465DF8047B7047102C0120182C01201C
:1004900080B582B000AF134B7B60134B3B6007E02D
:1004A0003B681A1D3A607A68111D796012681A60FB
:1004B0003A680E4B9A42F3D30D480E494FF00002B2
:1004C0008842B8BF40F8042BFFF6FAAFDFF82800E7
:1004D000016841F47001016000F050F80837BD4632
:1004E00080BD00BF18290008000000201000002077
:1004F000100000209C2D012088ED00E080B400AFAA
:10050000FEE700BF80B584B000AF0346FB80002348
:10051000FB6000F0DFFC0346BB6007F108031846F0
:10052000F96800F0ABFB1037BD4680BD80B584B0E4
:1005300000AF78600820012100F03AF84FF47043D2
:10054000BB6001233B7302237B7307F108030A4856
:10055000194601F045F908484FF4004101F0CEF981
:100560000A20FFF7CFFF04484FF4004101F0D4F90F
:100570000A20FFF7C7FFEEE7000C024080B584B009
:1005800004AF01F089FA01230093002301930023B3
:10059000029300230393044804498222002300F0BD
:1005A000B9FA00F0CBFBFEE72D050008F82800089B
:1005B00080B483B000AF78600B46FB70FB78002BF3
:1005C00006D0094B084A116B7A680A431A6306E0A1
:1005D000054B054A116B7A68D2430A401A630C37FF
:1005E000BD465DF8047B70470038024080B586B098
:1005F00004AF00237B6000F051FA0F4B1B68002B07
:100600000FD00223009300230193002302930023C1
:1006100003930A480A494FF48272002300F07AFAE1
:1006200078607B68002B02D101F0E4FBFEE77B6879
:1006300018460837BD4680BD502C012041070008F0
:100640000029000880B588B000AFF860B9607A6012
:100650003B600023FB611D4B1B68002B30D0BB6847
:100660003B617B687B61FB68BB61BB68052B1CDC65
:1006700000F0F8FF0346022B0BD1144B1A6807F168
:10068000100310461946BA6A002301F0E3FCF86132
:1006900016E00E4B1A6807F11003104619460022A7
:1006A000002301F0D7FCF8610AE0084B1A6807F153
:1006B0001003104619463A68002301F08BFDF861DB
:1006C000FB6918462037BD4680BD00BF502C012075
:1006D00080B586B002AF78603960184B1B68DB6864
:1006E000DB68FB60FB680433184601F0ABF9FB687C
:1006F000DB69012B1BD1FB689A697B681344F8689E
:1007000019463A687B6800F0A7F80346012B0ED122
:1007100000230093F86800217A680023FFF792FF16
:10072000B860BB68002B02D101F064FBFEE7FB68F8
:100730005B6AF86898471037BD4680BD482C012099
:1007400080B584B000AF786007F10803184600F068
:100750003FF8F860BB68F868194600F003F800F04D
:10076000BDF8F1E780B584B000AF7860396000F083
:100770001DFB07F10803184600F04EF8F860BB684F
:10078000002B1ED13B68002B0AD17A68FB689A4285
:1007900006D800F019FB7868F968FFF799FF12E0B6
:1007A0000A4B1A687968FB68CB1A1046194601F0A3
:1007B00089FF00F009FB0346002B04D101F0E2FAA7
:1007C00001E000F001FB1037BD4680BD502C012038
:1007D00080B485B000AF78600E4B1B681B68002B9F
:1007E00014BF00230123DBB21A467B681A607B68C2
:1007F0001B68002B05D1074B1B68DB681B68FB607F
:1008000001E00023FB60FB6818461437BD465DF825
:10081000047B7047482C012080B584B000AF78601D
:1008200000F058FBF8600B4B1B68FA689A4205D23F
:1008300000F0DCF87B6801221A6002E07B6800228D
:100840001A60044BFA681A60FB6818461037BD46F8
:1008500080BD00BF542C012080B586B000AFF86089
:10086000B9607A603B6000237B61FB68BA685A60BC
:10087000FB68FA681A61BA687B689A4212D87A688B
:100880003B68D21AFB689B699A4202D301237B61C1
:100890001BE0104B1A68FB6804331046194601F040
:1008A00099F812E07A683B689A4206D2BA683B68C7
:1008B0009A4202D301237B6107E0074B1A68FB6869
:1008C00004331046194601F085F87B69184618373D
:1008D000BD4680BD4C2C0120482C012080B58AB03B
:1008E00002AF70E0BB68002B6DDB3B69FB61FB690D
:1008F0005B69002B04D0FB690433184601F0A2F8B1
:100900003B1D1846FFF788FFB861BB68092B59D813
:1009100001A252F823F000BF410900084109000874
:1009200041090008C509000893090008BD0900082D
:100930004109000841090008C50900089309000899
:10094000FA68FB699B691A44FB68F8691146BA6941
:10095000FFF782FF0346012B1AD1FB695B6AF86936
:100960009847FB69DB69012B12D1FA68FB699B6927
:10097000134400220092F86900211A460023FFF771
:1009800061FE78617B69002B02D101F033FAFEE74A
:1009900019E0FA68FB699A61FB699B69002B02D137
:1009A00001F028FAFEE7FB699A69BB691344F8690C
:1009B0001946BA69BB69FFF74FFF04E0F869FFF712
:1009C00077FC00E000BF084B1A6807F108031046E7
:1009D00019460022002301F067FC0346002B81D159
:1009E0002037BD4680BD00BF502C012080B588B0A7
:1009F00002AF3DE0274B1B68DB681B687B61254B22
:100A00001B68DB68DB683B613B690433184601F017
:100A100019F83B695B6A386998473B69DB69012BC8
:100A200026D13B699A697B691344FB60FA687B694C
:100A30009A420ED93B69FA685A603B693A691A6171
:100A4000144B1A683B6904331046194600F0C2FF84
:100A50000EE000230093386900217A690023FFF734
:100A6000F1FDB860BB68002B02D101F0C3F9FEE7CD
:100A7000084B1B681B68002BBCD1064B1B687B60B6
:100A8000054B1A68034B1A60034B7A681A601837D3
:100A9000BD4680BD482C01204C2C012080B500AF04
:100AA00001F080F9154B1B68002B24D1144800F08D
:100AB00041FF144800F03EFF134B114A1A60134BDC
:100AC000104A1A600A200C21002201F081FA024625
:100AD0000A4B1A60094B1B68002B02D101F08AF9FE
:100AE000FEE7064B1B68002B05D0044B1B6818461D
:100AF000074901F0BFFD01F065F980BD502C0120D0
:100B0000202C0120342C0120482C01204C2C0120C9
:100B10000829000880B58AB002AFF860B9603B6070
:100B20001346FB80FB68002B02D101F063F9FEE75E
:100B3000BB6A042B02D901F05DF9FEE7FB88184679
:100B4000396B00F019FDB861BB69002B72D0BB692D
:100B50001A6BFB8803F18043013B9B0013447B61CC
:100B60007B6923F007037B617B6903F00703002B9C
:100B700002D001F03FF9FEE7FB880093B869B9683D
:100B8000BA6A7B6B00F002FC7869F9683A6801F098
:100B900031F80246BB691A60FB6A002B02D0FB6A7F
:100BA000BA691A6001F0FEF82E4B1B685A1C2D4BD7
:100BB0001A602D4B1B68002B09D12B4BBA691A60A8
:100BC000284B1B68012B0FD100F028FC0CE0274BB1
:100BD0001B68002B08D1244B1B68DA6ABB6A9A4257
:100BE00002D8214BBA691A60214B1B685A1C204B52
:100BF0001A601F4B1A68BB691A64BB69DA6A1D4B1D
:100C00001B689A4203D9BB69DA6A1A4B1A60BB693E
:100C1000DA6A13469B0013449B00174A1A44BB69C7
:100C200004331046194600F0B1FE0123FB6101F0C8
:100C3000C9F802E04FF0FF33FB61FB69012B0BD1D8
:100C40000A4B1B68002B07D0074B1B68DA6ABB6A8C
:100C50009A4201D201F096F8FB6918462037BD464A
:100C600080BD00BF302D0120582C01203C2D0120DB
:100C70004C2D0120382D01205C2C012080B586B040
:100C800000AF7860396000237B617B68002B02D164
:100C900001F0B0F8FEE73B68002B02D101F0AAF8A2
:100CA000FEE7234B1B68002B02D001F0A3F8FEE700
:100CB00000F07CF81F4B1B683B617B681A683B683F
:100CC0001344FB607B681A683B699A420BD97B68C6
:100CD0001A68FB689A4211D9FA683B699A420DD9A1
:100CE00001237B610AE07B681A68FB689A4203D89B
:100CF000FA683B699A4201D901237B617B68FA68F3
:100D00001A607B69002B08D00B4B1B680433184614
:100D100000F098FEF86800F0F9FB00F055F8B860B4
:100D2000BB68002B01D101F02DF81837BD4680BDFE
:100D3000502D0120342D0120582C012080B586B083
:100D400004AF0023009300230193002302930023A8
:100D500003931248124982220023FFF7DBFE7860DA
:100D60007B68012B02D1FFF741FC78607B68012B87
:100D70000AD101F03FF80B4B01221A600A4B002206
:100D80001A6000F097FF05E07B68002B02D101F0AC
:100D900031F8FEE70837BD4680BD00BF6D1300087F
:100DA000102900083C2D0120342D012080B400AF13
:100DB000044B1B685A1C034B1A60BD465DF8047B4C
:100DC000704700BF502D012080B582B000AF0023D6
:100DD0007B60384B1B68002B02D101F00BF8FEE75B
:100DE00000F0E0FF334B1B685A1E324B1A60314B48
:100DF0001B68002B56D1304B1B68002B52D02FE0C4
:100E00002E4BDB68DB683B603B681833184600F00C
:100E100019FE3B680433184600F014FE3B68DA6A9A
:100E2000274B1B689A4203D93B68DA6A244B1A6045
:100E30003B68DA6A13469B0013449B00214A1A441C
:100E40003B6804331046194600F0A0FD3B68DA6A9F
:100E50001D4B1B68DB6A9A4202D31C4B01221A60AD
:100E6000164B1B68002BCBD1194B1B68002B11D0E4
:100E70000CE000F041F80346002B02D0134B012296
:100E80001A60134B1B685A1E114B1A60104B1B68DB
:100E9000002BEED10D4B1B68012B03D101237B608E
:100EA00000F070FF00F08EFF7B6818460837BD46E3
:100EB00080BD00BF502D0120302D0120F02C0120DD
:100EC000382D01205C2C0120582C0120442D0120BC
:100ED000402D012080B582B000AF00F063FF054BCC
:100EE0001B687B6000F06EFF7B6818460837BD46C4
:100EF00080BD00BF342D012080B586B000AF002337
:100F00007B614E4B1B68002B40F087804C4B1B686D
:100F10005A1C4B4B1A604A4B1B683B613B69002BC8
:100F200018D1484B1B681B68002B02D000F062FFF1
:100F3000FEE7444B1B68FB60434B1A68414B1A6049
:100F4000414BFA681A60414B1B685A1C3F4B1A60B0
:100F500000F054FB3E4B1B683A699A424ED3394B22
:100F60001B681B68002B01D1012300E00023002B2C
:100F700004D0374B4FF0FF321A603FE0314B1B6813
:100F8000DB68DB68BB60BB685B687B603A697B6879
:100F90009A4203D22E4B7A681A602FE0BB68043362
:100FA000184600F04FFDBB689B6A002B04D0BB685D
:100FB0001833184600F046FDBB68DA6A254B1B68FB
:100FC0009A4203D9BB68DA6A224B1A60BB68DA6AB4
:100FD00013469B0013449B001F4A1A44BB6804330A
:100FE0001046194600F0D2FCBB68DA6A1B4B1B683E
:100FF000DB6A9A4201D301237B61B0E7174B1B6880
:10100000DA6A154913469B0013449B000B441B6886
:10101000012B07D901237B6104E0114B1B685A1C8B
:101020000F4B1A600F4B1B68002B01D001237B6113
:101030007B6918461837BD4680BD00BF502D012082
:10104000342D0120E82C0120EC2C0120482D01201A
:1010500008000020382D01205C2C0120582C012094
:10106000402D0120442D012080B582B000AF224BDD
:101070001B68002B03D0214B01221A6038E01F4B64
:1010800000221A600BE01E4B1B68002B02D100F0FF
:10109000B1FEFEE71A4B1B685A1E194B1A60184B1B
:1010A0001A68184913469B0013449B000B441B68A5
:1010B000002BE8D0124B1A6813469B0013449B0088
:1010C000104A13447B607B685B685A687B685A608F
:1010D0007B685A687B6808339A4204D17B685B68F6
:1010E0005A687B685A607B685B68DA68064B1A60EE
:1010F0000837BD4680BD00BF502D0120442D012082
:10110000382D01205C2C0120582C012080B584B0A2
:1011100000AF786039607B68002B02D100F06AFE76
:10112000FEE7124B1B6818337868194600F052FC32
:101130000E4B1B680433184600F084FC3B68B3F187
:10114000FF3F07D1094B1B6804330948194600F0DB
:101150001DFC07E0074B1A683B681344FB60F86806
:1011600000F0D4F91037BD4680BD00BF582C0120D7
:101170001C2D0120342D012080B584B000AF786093
:1011800039607B68002B02D100F034FEFEE70C4B87
:101190001B6818337868194600F0F8FB084B1B6889
:1011A0000433184600F04EFC064B1A683B681344A3
:1011B000FB60F86800F0AAF91037BD4680BD00BF9B
:1011C000582C0120342D012080B584B000AF786008
:1011D0007B68DB68DB68BB60BB68002B02D100F07A
:1011E00009FEFEE7BB681833184600F02BFC1E4BC7
:1011F0001B68002B1DD1BB680433184600F022FC8D
:10120000BB68DA6A194B1B689A4203D9BB68DA6A71
:10121000164B1A60BB68DA6A13469B0013449B00A6
:10122000134A1A44BB6804331046194600F0AEFB5B
:1012300005E0BB6818330F48194600F0A7FBBB68F0
:10124000DA6A0D4B1B68DB6A9A4205D90123FB6001
:101250000A4B01221A6001E00023FB60FB6818467C
:101260001037BD4680BD00BF502D0120382D012014
:101270005C2C0120F02C0120582C0120442D012051
:1012800080B582B000AF78607B68002B02D100F09F
:10129000B1FDFEE7054B1A687B681A60044B1A68BB
:1012A0007B685A600837BD4680BD00BF482D0120CD
:1012B000342D012080B584B000AF786039607B6840
:1012C000002B02D100F096FDFEE73B68002B02D117
:1012D00000F090FDFEE700F065FD1C4B1B68BB6055
:1012E0003B681B68B3F1FF3F02D10023FB6026E09F
:1012F0007B681A68164B1B689A4207D07B685A684D
:10130000BB689A4202D80123FB6018E07B685B68E7
:10131000BA68D21A3B681B689A420ED23B681A68B8
:101320007B685968BB68CB1A1A443B681A607868B6
:10133000FFF7A6FF0023FB6001E00123FB6000F044
:1013400041FDFB6818461037BD4680BD342D012095
:10135000482D012080B400AF034B01221A60BD4626
:101360005DF8047B704700BF442D012080B582B03A
:1013700000AF786000F090F8034B1B68012B01D997
:1013800000F000FDF6E700BF5C2C012080B586B0C0
:1013900000AFF860B9607A603B6000237B6112E0C7
:1013A000BA687B6913441A78F9687B690B44303357
:1013B0001A71BA687B6913441B78002B00D105E0D1
:1013C0007B6901337B617B69092BE9D9FB680022CA
:1013D00083F83D207B68042B01D904237B60FB68E4
:1013E0007A68DA62FB687A689A64FB6804331846A4
:1013F00000F0C0FAFB681833184600F0BBFAFB682F
:10140000FA681A617B68C3F10502FB689A61FB68A0
:10141000FA685A621837BD4680BD00BF80B582B0F9
:1014200000AF00237B600CE07A6813469B001344F6
:101430009B00114A1344184600F07CFA7B68013384
:101440007B607B68042BEFD90C4800F073FA0C48E2
:1014500000F070FA0B4800F06DFA0B4800F06AFAE1
:101460000A4800F067FA0A4B044A1A60094B044A1A
:101470001A600837BD4680BD5C2C0120C02C0120BD
:10148000D42C0120F02C0120042D01201C2D012042
:10149000E82C0120EC2C012080B582B000AF28E0C0
:1014A000FFF784FC164B1B68002B14BF002301239D
:1014B000DBB27B60FFF788FC7B68002B19D100F062
:1014C00071FC0F4BDB68DB683B603B6804331846FC
:1014D00000F0B8FA0B4B1B685A1E0A4B1A600A4BF5
:1014E0001B685A1E084B1A6000F06CFC386800F04C
:1014F00075F8054B1B68002BD2D10837BD4680BD5F
:10150000042D0120302D0120182D012080B582B03E
:1015100000AF7860134B1B687A685A60124B1B68E7
:101520007A689A4209D2114B1A680E4B1B68043331
:101530001046194600F04EFA10E00D4B1A68094BA0
:101540001B6804331046194600F044FA094B1B6827
:101550007A689A4202D2074B7A681A600837BD4609
:1015600080BD00BF582C0120342D0120EC2C01201F
:10157000E82C01200800002080B584B000AF0346AD
:101580003960FB804C20FEF7FFFDF860FB68002B04
:101590001FD03B68002B06D1FB889B001846FEF746
:1015A000F3FD034600E03B68FA681363FB681B6BBE
:1015B000002B05D1F868FEF77BFE0023FB6008E0F6
:1015C000FB681A6BFB889B001046A5211A4601F0A8
:1015D0003FF9FB6818461037BD4680BD80B582B024
:1015E00000AF78607B681B6B1846FEF761FE786879
:1015F000FEF75EFE0837BD4680BD00BF80B483B0F5
:1016000000AF0E4B1B681B68002B01D1012300E0CB
:101610000023002B04D00A4B4FF0FF321A6008E081
:10162000064B1B68DB68DB687B607B685A68044B91
:101630001A600C37BD465DF8047B7047E82C01202A
:101640000800002080B483B000AF054B1B687B60AE
:101650007B6818460C37BD465DF8047B704700BFB9
:10166000582C012080B483B000AF0B4B1B68002BBB
:1016700002D101237B6008E0084B1B68002B02D1DC
:1016800002237B6001E000237B607B6818460C37F7
:10169000BD465DF8047B70473C2D0120502D012094
:1016A00080B584B000AF78607B68FB607B68002BFE
:1016B0004AD0FB68DA6A264B1B68DB6A9A4243D23F
:1016C000FB689B69002B06DB214B1B68DB6AC3F1BF
:1016D0000502FB689A61FB685969FB68DA6A134680
:1016E0009B0013449B001B4A1344994201D10123E0
:1016F00000E00023002B22D0FB680433184600F0E2
:10170000A1F9134B1B68DA6AFB68DA62FB68DA6AD4
:10171000114B1B689A4203D9FB68DA6A0E4B1A60B8
:10172000FB68DA6A13469B0013449B00094A1A447B
:10173000FB6804331046194600F028F904E0044B16
:101740001B68DA6AFB68DA621037BD4680BD00BFED
:10175000582C01205C2C0120382D012080B584B04C
:1017600000AF78607B68FB607B68002B30D0FB6843
:10177000DA6AFB689B6C9A422AD0FB6804331846ED
:1017800000F060F9FB689A6CFB68DA62FB689B69A1
:10179000002B05DBFB68DB6AC3F10502FB689A617D
:1017A000FB68DA6A0C4B1B689A4203D9FB68DA6A59
:1017B000094B1A60FB68DA6A13469B0013449B00CE
:1017C000064A1A44FB6804331046194600F0DEF856
:1017D0001037BD4680BD00BF382D01205C2C012094
:1017E00080B487B000AF7860396000237B6100234C
:1017F0003B610023FB6000237B6176E07B69012273
:1018000002FA03F33B613B681A683B691340FB60D3
:10181000FA683B699A4265D17B681A687B695B000C
:10182000032101FA03F3DB431A407B681A607B68EB
:101830001A683B681B7919467B695B0001FA03F360
:101840001A437B681A603B681B79012B03D03B6805
:101850001B79022B2ED17B689A687B695B00032180
:1018600001FA03F3DB431A407B689A607B689A684D
:101870003B685B7919467B695B0001FA03F31A4305
:101880007B689A607B685A687B699BB2012101FA88
:1018900003F3DB431A407B685A607B685A683B68F5
:1018A0009B7919467B699BB201FA03F39BB21A43F9
:1018B0007B685A607B68DA687B699BB25B000321B6
:1018C00001FA03F3DB431A407B68DA607B68DA686D
:1018D0003B68DB7919467B695B0001FA03F31A4325
:1018E0007B68DA607B6901337B617B690F2B85D96B
:1018F0001C37BD465DF8047B704700BF80B483B0E1
:1019000000AF78600B467B807B687A881A830C373F
:10191000BD465DF8047B704780B483B000AF78604B
:101920000B467B807B687A885A830C37BD465DF80E
:10193000047B704780B483B000AF78607B6803F1AC
:1019400008027B685A607B684FF0FF329A607B68C0
:1019500003F108027B68DA607B6803F108027B68A8
:101960001A617B6800221A600C37BD465DF8047B63
:10197000704700BF80B483B000AF78607B680022FE
:101980001A610C37BD465DF8047B704780B485B0A2
:1019900000AF786039607B685B68FB603B68FA6821
:1019A0005A60FB689A683B689A60FB689B683A6873
:1019B0005A60FB683A689A603B687A681A617B688B
:1019C0001B685A1C7B681A601437BD465DF8047B9F
:1019D000704700BF80B485B000AF786039603B6865
:1019E0001B68BB60BB68B3F1FF3F03D17B681B6919
:1019F000FB600CE07B680833FB6002E0FB685B681F
:101A0000FB60FB685B681A68BB689A42F6D9FB68A2
:101A10005A683B685A603B685B683A689A603B6802
:101A2000FA689A60FB683A685A603B687A681A619B
:101A30007B681B685A1C7B681A601437BD465DF8CA
:101A4000047B704780B485B000AF78607B681B6909
:101A5000FB607B685B687A6892689A607B689B68C9
:101A60007A6852685A60FB685A687B689A4203D168
:101A70007B689A68FB685A607B6800221A61FB6881
:101A80001B685A1EFB681A60FB681B6818461437EF
:101A9000BD465DF8047B704780B500AF154B154A15
:101AA000D2F8882042F47002C3F88820124B124A00
:101AB000126842F001021A600F4B00229A600E4A2F
:101AC0000D4B1B6823F0847323F4803313600A4B9F
:101AD0000A4A5A60084B084A126822F480221A60A7
:101AE000054B0022DA6000F00BF8024B4FF0006269
:101AF0009A6080BD00ED00E0003802401030002404
:101B000080B483B000AF00237B6000233B60354B83
:101B1000344A126842F480321A60324B1B6803F474
:101B200000333B607B6801337B603B68002B03D153
:101B30007B68B3F5A06FF0D12A4B1B6803F4003328
:101B4000002B02D001233B6001E000233B603B6897
:101B5000012B42D1234B234A126C42F080521A646B
:101B6000214B214A126842F480421A601D4B1D4AE3
:101B700092689A601B4B1B4A926842F400429A603A
:101B8000184B184A926842F4A0529A60154B174AB3
:101B90005A60144B134A126842F080721A6000BFF8
:101BA000104B1B6803F00073002BF9D0104B40F270
:101BB00005621A600B4B0B4A926822F003029A608E
:101BC000084B084A926842F002029A6000BF054B37
:101BD0009B6803F00C03082BF9D10C37BD465DF868
:101BE000047B7047003802400070004019544007E1
:101BF000003C024080B485B000AFF860B9607A6004
:101C0000FB68043BFB60FB684FF080721A60FB6866
:101C1000043BFB60BA68FB681A60FB68043BFB602E
:101C20000C4AFB681A60FB68143BFB607A68FB682F
:101C30001A60FB68043BFB60FB686FF002021A60ED
:101C4000FB68203BFB60FB6818461437BD465DF817
:101C5000047B7047591C000880B500AF054B1B681A
:101C6000B3F1FF3F02D000F0C5F8FEE700F0C2F884
:101C7000FEE700BF0C000020064B19680868B0E8BA
:101C8000F04F80F30988BFF36F8F4FF0000080F3AF
:101C900011887047582C012005480068006880F3BF
:101CA000088862B6BFF34F8FBFF36F8F00DF00BFAE
:101CB00008ED00E080B584B000AF2C4BFB60FB6802
:101CC0001B78DBB2BB60FB68FF221A70FB681B78D5
:101CD000DBB2FB71FB79DBB203F05003DAB2244BC9
:101CE0001A70244B07221A6009E0224B1B685A1E07
:101CF000204B1A60FB79DBB25B00DBB2FB71FB7936
:101D0000DBB2DBB25BB2002BEFDB1A4B1B681A02B3
:101D1000184B1A60174B1B6803F4E062154B1A60EE
:101D2000BB68DAB2FB681A70134B134A126842F4AC
:101D300070021A60104B104A126842F070421A602A
:101D400000F0A6F80D4B00221A6000F0B3F80C4B1F
:101D50000B4A126842F040421A60FFF79DFFFFF7FE
:101D60007BFF002318461037BD4680BD00E400E02D
:101D7000542D0120582D012020ED00E00C00002002
:101D800034EF00E080B400AF054B4FF080521A6092
:101D9000BFF34F8FBFF36F8FBD465DF8047B704775
:101DA00004ED00E080B500AF00F024F8044B1B68A0
:101DB0005A1C034B1A60BFF34F8FBFF36F8F80BD68
:101DC0000C00002080B500AF094B1B68002B02D12E
:101DD00000F010F8FEE7064B1B685A1E044B1A6011
:101DE000034B1B68002B02D1002000F00DF880BDD2
:101DF0000C000020EFF311804FF0500181F31188A7
:101E000070470023184600BF80F31188704700BF59
:101E1000EFF30980BFF36F8F124B1A681EF0100F9B
:101E200008BF20ED108A20E9F04F10604DF8043D06
:101E30004FF0500080F31188FFF716F94FF00000C3
:101E400080F3118808BC19680868B0E8F04F1EF0EC
:101E5000100F08BFB0EC108A80F30988BFF36F8FB2
:101E6000704700BF582C012080B500AFFFF7C2FFBC
:101E7000FFF742F80346002B03D0044B4FF080528B
:101E80001A600020FFF7C0FF80BD00BF04ED00E036
:101E900080B400AF044B054A1A60054B07221A6054
:101EA000BD465DF8047B704714E000E03F900200FF
:101EB00010E000E0DFF80C00016841F470010160FF
:101EC0007047000088ED00E080B582B000AFEFF30E
:101ED00005837B607B680F2B0CD90D4A7B6813440C
:101EE0001B78FB700B4B1B78FA789A4202D2FFF7F3
:101EF00081FFFEE7084B1B6803F4E062074B1B6899
:101F00009A4202D9FFF776FFFEE70837BD4680BD4B
:101F1000F0E300E0542D01200CED00E0582D0120ED
:101F200080B584B000AF786039607B68FB60FB6887
:101F3000002B02D1FFF75EFFFEE7FFF733FFFB68E0
:101F40001A68FB68DB6BF968096C01FB03F31A4440
:101F5000FB685A60FB6800229A63FB681A68FB689A
:101F60009A60FB681A68FB68DB6B013BF968096CD7
:101F700001FB03F31A44FB68DA60FB684FF0FF32A1
:101F80005A64FB684FF0FF329A643B68002B0ED115
:101F9000FB681B69002B14D0FB6810331846FFF751
:101FA00013F90346012B0CD1FFF7ECFE09E0FB68A7
:101FB00010331846FFF7BEFCFB6824331846FFF7C2
:101FC000B9FCFFF7FFFE012318461037BD4680BD60
:101FD00080B588B000AFF860B9601346FB7100238C
:101FE000FB61FB68002B2AD05420FEF7CDF8B861C6
:101FF000BB69002B23D0FB68BA6802FB03F30133F3
:102000007B617869FEF7C0F80246BB691A60BB695C
:102010001B68002B10D0BB69FA68DA63BB69BA6829
:102020001A64B8690121FFF77BFFBB69FA7983F86D
:102030005020BB69FB6102E0B869FEF739F9FB6922
:10204000002B02D1FFF7D6FEFEE7FB6918462037CA
:10205000BD4680BD80B588B000AFF860B9607A60D9
:102060003B600023FB61FB68BB61BB69002B02D1B5
:10207000FFF7C0FEFEE7BB68002B03D1BB691B6CFA
:10208000002B01D1012300E00023002B02D1FFF738
:10209000B1FEFEE73B68022B03D1BB69DB6B012B72
:1020A00001D1012300E00023002B02D1FFF7A2FEA3
:1020B000FEE7FFF7D7FA0346002B02D17B68002B1F
:1020C00001D1012300E00023002B02D1FFF792FE93
:1020D000FEE7FFF767FEBB699A6BBB69DB6B9A4251
:1020E00002D33B68022B16D1B869B9683A6800F090
:1020F000B9F9BB695B6A002B09D0BB692433184668
:10210000FFF762F80346012B01D1FFF73BFEFFF713
:1021100059FE012359E07B68002B03D1FFF752FEE3
:10212000002352E0FB69002B06D107F1100318468B
:10213000FFF7A6F80123FB61FFF744FEFEF736FE2A
:10214000FFF730FEBB695B6CB3F1FF3F02D1BB69A7
:1021500000225A64BB699B6CB3F1FF3F02D1BB699B
:1021600000229A64FFF72EFE07F110023B1D104675
:102170001946FFF79FF80346002B1ED1B86900F0FF
:1021800061FA0346002B12D0BB6903F110027B6891
:1021900010461946FEF7BAFFB86900F0F1F9FEF7EC
:1021A00013FE0346002B0FD1FFF7ECFD0CE0B869DE
:1021B00000F0E6F9FEF708FE8BE7B86900F0E0F9F9
:1021C000FEF702FE002300E083E718462037BD46F5
:1021D00080BD00BF80B588B000AFF860B9607A609C
:1021E0003B60FB68BB61BB69002B02D1FFF702FEBD
:1021F000FEE7BB68002B03D1BB691B6C002B01D130
:10220000012300E00023002B02D1FFF7F3FDFEE7DE
:102210003B68022B03D1BB69DB6B012B01D101238E
:1022200000E00023002B02D1FFF7E4FDFEE7FFF7FB
:102230004BFEFFF7DFFD7861BB699A6BBB69DB6B17
:102240009A4202D33B68022B24D1B869B9683A6834
:1022500000F008F9BB699B6CB3F1FF3F12D1BB6979
:102260005B6A002B13D0BB6924331846FEF7ACFF22
:102270000346002B0BD07B68002B08D07B68012223
:102280001A6004E0BB699B6C5A1CBB699A64012309
:10229000FB6101E00023FB617869FFF7B5FDFB6995
:1022A00018462037BD4680BD80B58AB000AFF860C3
:1022B000B9607A603B6000237B62FB683B623B6AEB
:1022C000002B02D1FFF796FDFEE7BB68002B03D180
:1022D0003B6A1B6C002B01D1012300E00023002B83
:1022E00002D1FFF787FDFEE7FFF7BCF90346002B9D
:1022F00002D17B68002B01D1012300E00023002BD9
:1023000002D1FFF777FDFEE7FFF74CFD3B6A9B6BC1
:10231000002B3BD03B6ADB68FB61386AB96800F090
:1023200009F93B68002B1CD13B6A9B6B5A1E3B6A28
:102330009A633B6A1B68002B04D1FFF783F90246BE
:102340003B6A5A603B6A1B69002B1BD03B6A103307
:102350001846FEF739FF0346012B13D1FFF712FD94
:1023600010E03B6AFA69DA603B6A5B6A002B09D0CD
:102370003B6A24331846FEF727FF0346002B01D0A3
:10238000FFF700FDFFF71EFD012366E07B68002BD1
:1023900003D1FFF717FD00235FE07B6A002B06D116
:1023A00007F114031846FEF76BFF01237B62FFF76A
:1023B00009FDFEF7FBFCFFF7F5FC3B6A5B6CB3F134
:1023C000FF3F02D13B6A00225A643B6A9B6CB3F127
:1023D000FF3F02D13B6A00229A64FFF7F3FC07F14A
:1023E00014023B1D10461946FEF764FF0346002BFE
:1023F0002BD1386A00F010F90346002B1FD03B6A3E
:102400001B68002B08D1FFF7CDFC3B6A5B681846C0
:10241000FFF746F9FFF7D6FC3B6A03F124027B681D
:1024200010461946FEF772FE386A00F0A9F8FEF76A
:10243000CBFC0346002B0FD1FFF7A4FC0CE0386A5D
:1024400000F09EF8FEF7C0FC5EE7386A00F098F8EE
:10245000FEF7BAFC002300E056E718462837BD46D1
:1024600080BD00BF80B584B000AFF860B9607A600D
:10247000FB681B6C002B0CD1FB681B68002B51D137
:10248000FB685B681846FFF769F9FB6800225A6031
:1024900048E07B68002B1AD1FB689A68FB681B6CCC
:1024A0001046B9681A4600F039F9FB689A68FB686B
:1024B0001B6C1A44FB689A60FB689A68FB685B684F
:1024C0009A422FD3FB681A68FB689A602AE0FB687F
:1024D000DA68FB681B6C1046B9681A4600F01EF9F2
:1024E000FB68DA68FB681B6C5B421A44FB68DA60C5
:1024F000FB68DA68FB681B689A4207D2FB685A6877
:10250000FB681B6C5B421A44FB68DA607B68022B39
:1025100008D1FB689B6B002B04D0FB689B6B5A1E99
:10252000FB689A63FB689B6B5A1CFB689A631037C5
:10253000BD4680BD80B582B000AF786039607B68F1
:102540001B68002B19D07B68DA687B681B6C1A4407
:102550007B68DA607B68DA687B685B689A4203D3E1
:102560007B681A687B68DA607B68DA687B681B6C5A
:10257000386811461A4600F0D1F80837BD4680BDCC
:1025800080B582B000AF7860FFF70CFC14E07B6888
:102590005B6A002B0AD07B6824331846FEF714FED2
:1025A0000346002B03D0FEF7D5FE00E008E07B6871
:1025B0009B6C5A1E7B689A647B689B6C002BE6DCE4
:1025C0007B684FF0FF329A64FFF7FCFBFFF7EAFBF2
:1025D00014E07B681B69002B0FD07B681033184612
:1025E000FEF7F2FD0346002B01D0FEF7B3FE7B6839
:1025F0005B6C5A1E7B685A6400E003E07B685B6C8E
:10260000002BE6DC7B684FF0FF325A64FFF7DAFB01
:102610000837BD4680BD00BF80B584B000AF78608C
:10262000FFF7C0FB7B689B6B002B02D10123FB6093
:1026300001E00023FB60FFF7C5FBFB68184610377D
:10264000BD4680BD80B584B000AF7860FFF7AAFBBF
:102650007B689A6B7B68DB6B9A4202D10123FB603B
:1026600001E00023FB60FFF7ADFBFB681846103765
:10267000BD4680BD80B485B000AF7860396000236E
:10268000FB6014E00E4BFA6853F83230002B0BD18C
:102690000B4BFA68396843F83210094AFB68DB00D3
:1026A00013447A685A6005E0FB680133FB60FB68FD
:1026B000072BE7D91437BD465DF8047B704700BF90
:1026C0005C2D012080B584B000AF786039607B68F4
:1026D000FB60FFF767FBFB685B6CB3F1FF3F02D168
:1026E000FB6800225A64FB689B6CB3F1FF3F02D188
:1026F000FB6800229A64FFF765FBFB689B6B002B6D
:1027000005D1FB68243318463968FEF735FDF868B3
:10271000FFF736FF1037BD4680BD00BF844641EA53
:10272000000313F003036DD1403A41D351F8043B49
:1027300040F8043B51F8043B40F8043B51F8043B9B
:1027400040F8043B51F8043B40F8043B51F8043B8B
:1027500040F8043B51F8043B40F8043B51F8043B7B
:1027600040F8043B51F8043B40F8043B51F8043B6B
:1027700040F8043B51F8043B40F8043B51F8043B5B
:1027800040F8043B51F8043B40F8043B51F8043B4B
:1027900040F8043B51F8043B40F8043B51F8043B3B
:1027A00040F8043B51F8043B40F8043B403ABDD2AA
:1027B000303211D351F8043B40F8043B51F8043B4C
:1027C00040F8043B51F8043B40F8043B51F8043B0B
:1027D00040F8043B103AEDD20C3205D351F8043BDB
:1027E00040F8043B043AF9D2043208D0D2071CBFA7
:1027F00011F8013B00F8013B01D30B8803806046D0
:10280000704700BF082A13D38B078DD010F0030345
:102810008AD0C3F10403D21ADB071CBF11F8013BB5
:1028200000F8013B80D331F8023B20F8023B7BE704
:10283000043AD9D3013A11F8013B00F8013BF9D22F
:102840000B7803704B7843708B78837060467047C9
:10285000F0B4840743D0541E002A3ED0CDB20346C4
:1028600003E0621E002C38D0144603F8015B9A077F
:10287000F7D1032C2AD9CDB245EA05250F2C45EA1C
:10288000054515D9A4F110073F0903F1100606EB21
:1028900007161A46156055609560D5601032B24231
:1028A000F8D104F00F040137032C03EB07130DD903
:1028B0001E462246043A032A46F8045BFAD8221F31
:1028C00022F003020432134404F003042CB1C9B211
:1028D0001C4403F8011BA342FBD1F0BC7047144613
:1028E0000346C6E7437800004178000043790000C2
:1028F00041790000744300004C4544310000000061
:10290000546D722053766300546D725100000000C4
:0829100049444C4500000000A1
:10291800F82B0100F82B0100FFFFFFFFAAAAAAAAC3
:0400000508000000EF
:00000001FF
