:020000040800F2
:10000000083B0120810B0008FD0B0008FD0B0008D8
:10001000FD0B0008FD0B0008FD0B000800000000B0
:100020000000000000000000000000004542000841
:10003000FD0B00080000000059440008B14400080E
:10004000FD0B0008FD0B0008FD0B0008FD0B000870
:10005000FD0B0008FD0B0008FD0B0008FD0B000860
:10006000FD0B0008FD0B0008FD0B0008FD0B000850
:10007000FD0B0008FD0B0008FD0B0008FD0B000840
:10008000FD0B0008FD0B0008FD0B0008FD0B000830
:10009000FD0B0008FD0B0008FD0B0008FD0B000820
:1000A000FD0B0008FD0B0008FD0B0008FD0B000810
:1000B000FD0B0008FD0B0008FD0B0008FD0B000800
:1000C000FD0B0008FD0B0008FD0B0008FD0B0008F0
:1000D000FD0B0008FD0B0008FD0B0008FD0B0008E0
:1000E000FD0B0008FD0B0008FD0B0008FD0B0008D0
:1000F000FD0B0008FD0B0008FD0B0008FD0B0008C0
:10010000FD0B0008FD0B0008FD0B0008FD0B0008AF
:10011000FD0B0008FD0B0008FD0B0008FD0B00089F
:10012000FD0B0008FD0B0008FD0B0008FD0B00088F
:10013000FD0B0008FD0B0008FD0B0008FD0B00087F
:10014000FD0B0008FD0B0008FD0B0008FD0B00086F
:10015000FD0B0008FD0B0008FD0B0008FD0B00085F
:10016000FD0B0008FD0B0008FD0B0008FD0B00084F
:10017000FD0B0008FD0B0008FD0B0008FD0B00083F
:10018000FD0B0008FD0B000880B586B000AF78605D
:100190004FF00003FB6002F0D9FF43F27803C2F294
:1001A00001031B68002B01D100F00EF943F27C0320
:1001B000C2F201031A687B681340002B40F09F8055
:1001C0007B68002B12D048F64413C0F600031B884E
:1001D0007A68D3187B607B6803F00703002B05D097
:1001E0007B6823F0070303F108037B607B68002B27
:1001F00000F0858040F20003C2F200031B687A68B9
:100200009A427CD843F27003C2F201033B6143F28D
:100210007003C2F201031B687B6104E07B693B61F0
:100220007B691B687B617B695A687B689A4203D251
:100230007B691B68002BF1D143F27803C2F2010302
:100240001B687A699A425AD03B691A6848F6441387
:10025000C0F600031B88D318FB607B691A683B69F2
:100260001A607B695A687B68D21A48F64413C0F654
:1002700000031B884FEA43039A420FD97A697B68CF
:10028000D318BB607B695A687B68D21ABB685A6016
:100290007B697A685A60B86800F012F940F200038E
:1002A000C2F200031A687B695B68D21A40F200034D
:1002B000C2F200031A6040F20003C2F200031A689F
:1002C00040F20403C2F200031B689A4209D240F2D2
:1002D0000003C2F200031A6840F20403C2F20003F2
:1002E0001A607B695A6843F27C03C2F201031B68FF
:1002F0001A437B695A607B694FF000021A6002F072
:1003000037FFFB68184607F11807BD4680BD00BFE0
:1003100080B584B000AF78607B68FB607B68002BA1
:100320004DD048F64413C0F600031B88C3F1000308
:10033000FA68D318FB60FB68BB60BB685A6843F27D
:100340007C03C2F201031B681340002B02D104F0AE
:1003500075F8FEE7BB681B68002B02D004F06EF84E
:10036000FEE7BB685A6843F27C03C2F201031B68D4
:100370001340002B23D0BB681B68002B1FD1BB6828
:100380005A6843F27C03C2F201031B686FEA03035D
:100390001A40BB685A6002F0D9FEBB685A6840F246
:1003A0000003C2F200031B68D21840F20003C2F23D
:1003B00000031A60B86800F083F802F0D9FE07F174
:1003C0001007BD4680BD00BF80B584B000AF3B4B79
:1003D00023F00703FB6043F27003C2F20103FA68E3
:1003E0001A6043F27003C2F201034FF000025A6038
:1003F00048F64813C0F600031B68FA68D318BB60C0
:1004000048F64413C0F600031B88C3F10003BA6822
:10041000D318BB6043F27803C2F20103BA681A60D2
:1004200043F27803C2F201031B6803F00703002BB9
:1004300002D004F003F8FEE743F27803C2F20103AE
:100440001B684FF000025A6043F27803C2F20103C6
:100450001B684FF000021A60FB687B6048F6481387
:10046000C0F600031A6848F64413C0F600031B8860
:10047000D21A7B685A6043F27803C2F201031A6809
:100480007B681A6040F20003C2F200031A6848F663
:100490004413C0F600031B88D21A40F20003C2F2D4
:1004A00000031A6043F27C03C2F201034FF00042E2
:1004B0001A6007F11007BD4680BD00BF7804002018
:1004C00080B485B000AF786043F27003C2F20103DC
:1004D000FB6002E0FB681B68FB60FB681A687B68D6
:1004E0009A42F7D3FB68BB60FB685B68BA68D218B6
:1004F0007B689A4208D1FB685A687B685B68D218AF
:10050000FB685A60FB687B607B68BB607B685B68EC
:10051000BA68D218FB681B689A421ED1FB681A6839
:1005200043F27803C2F201031B689A420DD07B6844
:100530005A68FB681B685B68D2187B685A60FB6866
:100540001B681A687B681A600BE043F27803C2F2FA
:1005500001031A687B681A6003E0FB681A687B680D
:100560001A60FA687B689A4202D0FB687A681A605F
:1005700007F11407BD4680BC704700BF80B584B04A
:1005800000AF4FF004004FF0010102F0C9F84FF046
:100590000F03BB804FF00003FB8044F62063BB6079
:1005A0004FF00003BB814FF00003BB7307F104035E
:1005B0004FF40060C4F20000194605F053FD4FF4FB
:1005C0000060C4F200004FF0010105F0C5FD07F125
:1005D0001007BD4680BD00BF80B588B000AF0346A0
:1005E000FB804FF06003BB81FB887B614FF0010310
:1005F000FB814FF000033B8307F10C034FF40060D5
:10060000C4F20000194605F0C7FD4FF40060C4F2C3
:1006100000004FF0080105F0D1FF4FF48060C4F2F4
:1006200002004FF006014FF0020203F0B5FC07F1A3
:100630002007BD4680BD00BF80B588B000AF03462F
:10064000FB804FF06003BB81FB887B614FF00103AF
:10065000FB814FF000033B8307F10C034FF4006074
:10066000C4F20000194605F015FE4FF40060C4F214
:1006700000004FF0080105F0BDFF4FF48060C4F2A8
:1006800002004FF007014FF0020203F085FC07F172
:100690002007BD4680BD00BF80B588B000AF0346CF
:1006A000FB804FF06003BB81FB887B614FF001034F
:1006B000FB814FF000033B8307F10C034FF4006014
:1006C000C4F20000194605F079FE4FF40060C4F250
:1006D00000004FF0080105F0ADFF4FF48060C4F258
:1006E00002004FF008014FF0020203F055FC07F141
:1006F0002007BD4680BD00BF80B588B000AF03466F
:10070000FB804FF06003BB81FB887B614FF00103EE
:10071000FB814FF000033B8307F10C034FF40060B3
:10072000C4F20000194605F0D9FE4FF40060C4F28F
:1007300000004FF0080105F099FF4FF48060C4F20B
:1007400002004FF009014FF0020203F025FC07F10F
:100750002007BD4680BD00BF80B582B000AF4FF01E
:1007600002004FF0010101F0B1FF4FF470733B60E4
:100770004FF002033B714FF002037B713B464FF495
:100780008060C4F20200194603F048FB07F1080735
:10079000BD4680BD000000002DE9B04390B000AF21
:1007A00087ED080B87ED061B87ED042BC7E90201D7
:1007B000C7E900234FF000024FF00003C7E90E2302
:1007C0004FF000024FF00003C7E90C234FF0000286
:1007D0004FF00003C7E90A23D7E90201D7E9002354
:1007E000821A61EB03031046194607F055FC0246D6
:1007F0000B46104619464FF000024FF00003C4F2BA
:10080000590307F0A9FD02460B46C7E90E23D7E9B5
:100810000401D7E9062307F0C3FA02460B46104647
:100820001946D7E90E2307F06DFC02460B46104629
:1008300019464FF000024FF0804307F08DFD02464D
:100840000B46C7E90A23B7F95C3007EE103AF8EE19
:10085000C77A17EE900A07F001FC04460D46B7F977
:10086000603007EE103AF8EEC77A17EE900A07F0FC
:10087000F5FB02460B4643EC102B9FED3B1B06F0AD
:10088000DDF859EC108BB7F9583007EE103AF8EE56
:10089000C77A17EE900A07F0E1FB02460B4643ECDD
:1008A000102B9FED311B06F0C9F853EC102B40467E
:1008B000494607F075FA02460B4643EC172BB0EE9B
:1008C000470AF0EE670A06F059FA53EC102B20465F
:1008D000294607F041FD02460B4643EC172BB0EECC
:1008E000470AF0EE670A05F0E3FE53EC102B1046C2
:1008F00019461FA3D3E9002307F004FC02460B4668
:10090000C7E90C23D7E90801D7E90A2307F048FA19
:1009100002460B461046194617A3D3E9002307F0F9
:10092000F1FB02460B4614461D46D7E90C0114A301
:10093000D3E9002307F0E6FB02460B462046294692
:1009400007F02EFA02460B46C7E90823D7E9082329
:1009500043EC172BB0EE470AF0EE670A07F14007A9
:10096000BD46BDE8B08300BF0000000000000040AD
:10097000F6285C8FC2A54C405C8FC2F5285CEF3F27
:100980007B14AE47E17A943F2DE9B04390B000AFBD
:1009900087ED080B87ED061B87ED042BC7E90201E5
:1009A000C7E900234FF000024FF00003C7E90E2310
:1009B0004FF000024FF00003C7E90C234FF0000294
:1009C0004FF00003C7E90A23D7E90201D7E9002362
:1009D000821A61EB03031046194607F05DFB0246DD
:1009E0000B46104619464FF000024FF00003C4F2C8
:1009F000590307F0B1FC02460B46C7E90E23D7E9BD
:100A00000401D7E9062307F0CBF902460B4610464E
:100A10001946D7E90E2307F075FB02460B46104630
:100A200019464FF000024FF0804307F095FC024654
:100A30000B46C7E90A23B7F95830C3F1000307EEA4
:100A4000103AF8EEC77A17EE900A07F007FB044653
:100A50000D46B7F9603007EE103AF8EEC77A17EE98
:100A6000900A07F0FBFA02460B4643EC102B9FED71
:100A70003C1B05F0E3FF59EC108BB7F95C3007EE37
:100A8000103AF8EEC77A17EE900A07F0E7FA024636
:100A90000B4643EC102B9FED321B05F0CFFF53ECC0
:100AA000102B4046494607F07BF902460B4643ECC3
:100AB000172BB0EE470AF0EE670A06F05FF953EC29
:100AC000102B2046294607F047FC02460B4643EC14
:100AD000172BB0EE470AF0EE670A05F0E9FD53EC7C
:100AE000102B1046194620A3D3E9002307F00AFB78
:100AF00002460B46C7E90C23D7E90801D7E90A23C8
:100B000007F04EF902460B461046194618A3D3E9E2
:100B1000002307F0F7FA02460B4614461D46D7E9B4
:100B20000C0115A3D3E9002307F0ECFA02460B46AB
:100B30002046294607F034F902460B46C7E9082348
:100B4000D7E9082343EC172BB0EE470AF0EE670A0B
:100B500007F14007BD46BDE8B08300BFAFF300809A
:100B60000000000000000040F6285C8FC2A54C4049
:100B70005C8FC2F5285CEF3F7B14AE47E17A943F6F
:100B800080B582B000AF48F64423C0F600037B6016
:100B900040F20003C2F200033B600BE07B681A687E
:100BA0003B681A603B6803F104033B607B6803F118
:100BB00004037B603A6840F26C43C2F200039A423D
:100BC000ECD30B480B494FF000028842B8BF40F805
:100BD000042BFFF6FAAFDFF82000016841F4700142
:100BE000016001F0EDFB07F10807BD4680BD000084
:100BF000700400200833012088ED00E080B400AFCD
:100C0000FEE700BF80B500AF00F0B0F94FF0200064
:100C10004FF0390100F0DAF84FF0020000F08AFAE4
:100C20004FF023004FF0030100F0D0F84FF0020026
:100C300000F080FA4FF025004FF0020100F0C6F8F6
:100C40004FF0020000F076FA4FF026004FF0070157
:100C500000F0BCF84FF0020000F06CFA4FF03100E9
:100C60004FF0010100F0B2F84FF0020000F062FA1C
:100C70004FF022004FF0010100F0A8F84FF0020001
:100C800000F058FA4FF0300040F20801C2F20001C3
:100C90004FF0050200F0ECF84FF0020000F04AFAC5
:100CA0004FF02A0040F21001C2F200014FF005029D
:100CB00000F0DEF84FF0020000F03CFA4FF02100A7
:100CC0004FF0000100F082F84FF0020000F032FA1D
:100CD0004FF020004FF0330100F078F84FF00200A1
:100CE00000F028FA00F04EF94FF0C80000F022FAA8
:100CF00080BD00BF80B584B000AF78604FF00003C6
:100D0000FB734FF0070000F043F80346BB7300F09D
:100D10002DF94FF0020000F00DFABB7B03F0400309
:100D2000002B09D04FF0610079684FF0200200F0ED
:100D30006DF84FF00103FB734FF0020000F0FAF979
:100D40004FF027004FF0400100F040F84FF0020054
:100D500000F0F0F900F0FEF84FF0E20000F0BAF811
:100D600000F0ECF84FF0020000F0E4F94FF0200042
:100D70004FF0330100F02AF800F004F94FF0C800FA
:100D800000F0D8F9FB7B184607F11007BD4680BD7F
:100D900080B584B000AF0346FB7100F0DBF84FF084
:100DA000020000F0C7F9FB79184600F093F84FF005
:100DB000000000F08FF80346FB7300F0BFF8FB7BE8
:100DC000184607F11007BD4680BD00BF80B584B04E
:100DD00000AF02460B46FA71BB7100F0BBF84FF052
:100DE000020000F0A7F9FB79184600F073F80346FB
:100DF000FB73BB79184600F06DF800F09FF8FB7BA1
:100E0000184607F11007BD4680BD00BF90B585B0FC
:100E100000AF396013460246FA71BB7100F09AF8D0
:100E20004FF0020000F086F9FB79184600F052F806
:100E30000346BB604FF00003FB600CE03A68FB68C0
:100E4000D4184FF0000000F045F803462370FB680B
:100E500003F10103FB60BA79FB689A42EED800F017
:100E60006DF8BB68DBB2184607F11407BD4690BDAC
:100E700080B584B000AF396013460246FA71BB7189
:100E800000F068F84FF0020000F054F9FB791846C2
:100E900000F020F80346BB604FF00003FB600CE05D
:100EA0003B681B78184600F015F83B6803F1010316
:100EB0003B60FB6803F10103FB60BA79FB689A426F
:100EC000EED800F03BF8BB68DBB2184607F110071C
:100ED000BD4680BD80B582B000AF0346FB7100BF48
:100EE0004FF44050C4F201004FF0020104F0E6FA62
:100EF0000346002BF4D0FB799BB24FF44050C4F270
:100F00000100194604F0ACFA00BF4FF44050C4F29F
:100F100001004FF0010104F0D1FA0346002BF4D098
:100F20004FF44050C4F2010004F08CFA0346DBB2E7
:100F3000184607F10807BD4680BD00BF80B500AF69
:100F40004FF00000C4F202004FF0100103F008F867
:100F500080BD00BF80B500AF4FF00000C4F20200BA
:100F60004FF0100103F00AF880BD00BF80B500AF5C
:100F70004FF00000C4F202004FF0080102F0FEFF43
:100F800080BD00BF80B500AF4FF00000C4F202008A
:100F90004FF0080102F0E4FF80BD00BF80B588B0CB
:100FA00000AF4FF001004FF0010101F08FFB4FF453
:100FB00080504FF0010101F0DDFB4FF00000C4F262
:100FC00002004FF004014FF0050202F0E5FF4FF080
:100FD0000000C4F202004FF005014FF0050202F0DC
:100FE000DBFF4FF00000C4F202004FF007014FF0AA
:100FF000050202F0D1FF4FF00000C4F202004FF0F2
:1010000006014FF0050202F0C7FF4FF0E0037B60DE
:101010004FF002033B724FF002037B724FF000036C
:10102000BB724FF00203FB7207F104034FF00000A4
:10103000C4F20200194602F0F1FE4FF001004FF039
:10104000010101F043FB4FF44050C4F201004FF0A6
:10105000010104F0D7F94FF018037B604FF0010352
:101060003B724FF002037B724FF00003BB724FF0F4
:101070000103FB7207F104034FF00000C4F2020009
:10108000194602F0CBFE4FF001004FF0010101F0D4
:101090001DFB4FF004037B604FF000033B724FF0E9
:1010A00002037B724FF00003BB724FF00103FB722F
:1010B00007F104034FF00000C4F20200194602F0E9
:1010C000ADFE4FF00003BB814FF48273FB814FF004
:1010D00000033B824FF000037B824FF00003BB8292
:1010E0004FF40073FB824FF038033B834FF0000353
:1010F0007B834FF00703BB8307F10C034FF4405091
:10110000C4F20100194604F019F94FF44050C4F23A
:1011100001004FF0000104F0B1F94FF44050C4F267
:1011200001004FF0010104F04DF907F12007BD4621
:1011300080BD00BF80B582B000AF78604FF0010085
:1011400000F004F807F10807BD4680BD80B584B003
:1011500000AF0346FB80FB88FB6002F0C3F8034648
:10116000BB6007F108031846F96801F043FF07F177
:101170001007BD4680BD00BF80B582B000AF78606B
:1011800000E000BF43F2F003C2F20103D3E9002301
:10119000104619464FF000024FF0000307F024FA02
:1011A0000346002B6BD043F2F803C2F20103D3E9EC
:1011B0000023104619464FF000024FF0000307F0DD
:1011C00031FA0346002B5AD040F21E03C2F200034C
:1011D0001B889BB203F10A039AB240F21E03C2F2CB
:1011E00000031A8043F2F003C2F20103D3E90023A3
:1011F000104619464FF000024FF0000307F0EAF9DD
:101200000346002BEED140F21E03C2F200031B88FE
:101210009BB2A3F10A039AB240F21E03C2F200038A
:101220001A8040F21C03C2F200031B889BB203F138
:101230000A039AB240F21C03C2F200031A8043F27E
:10124000F803C2F20103D3E90023104619464FF018
:1012500000024FF0000307F0BDF90346002BEED16A
:1012600040F21C03C2F200031B889BB2A3F10A03E5
:101270009AB240F21C03C2F200031A808BE243F2DE
:10128000F003C2F20103D3E90023104619464FF0E0
:1012900000024FF0000307F0A7F90346002B6BD0C4
:1012A00043F2F803C2F20103D3E9002310461946C2
:1012B0004FF000024FF0000307F096F90346002BB1
:1012C0005AD040F21E03C2F200031B889BB203F106
:1012D0000A039AB240F21E03C2F200031A8043F2DC
:1012E000F003C2F20103D3E90023104619464FF080
:1012F00000024FF0000307F06DF90346002BEED11A
:1013000040F21E03C2F200031B889BB2A3F10A0342
:101310009AB240F21E03C2F200031A8040F2180390
:10132000C2F200031B889BB203F10A039AB240F297
:101330001803C2F200031A8043F2F803C2F2010359
:10134000D3E90023104619464FF000024FF0000386
:1013500007F040F90346002BEED140F21803C2F229
:1013600000031B889BB2A3F10A039AB240F2180350
:10137000C2F200031A800EE243F2F003C2F201034C
:10138000D3E90023104619464FF000024FF0000346
:1013900007F048F90346002B6BD043F2F803C2F282
:1013A0000103D3E90023104619464FF000024FF025
:1013B000000307F019F90346002B5AD040F21A0334
:1013C000C2F200031B889BB203F10A039AB240F2F7
:1013D0001A03C2F200031A8043F2F003C2F20103BF
:1013E000D3E90023104619464FF000024FF00003E6
:1013F00007F0F0F80346002BEED140F21A03C2F2D8
:1014000000031B889BB2A3F10A039AB240F21A03AD
:10141000C2F200031A8040F21803C2F200031B88D4
:101420009BB203F10A039AB240F21803C2F200031E
:101430001A8043F2F803C2F20103D3E900231046F5
:1014400019464FF000024FF0000307F0C3F80346BF
:10145000002BEED140F21803C2F200031B889BB2AE
:10146000A3F10A039AB240F21803C2F200031A80F1
:1014700091E143F2F003C2F20103D3E900231046E5
:1014800019464FF000024FF0000307F0CBF8034677
:10149000002B6BD043F2F803C2F20103D3E900231F
:1014A000104619464FF000024FF0000307F0BAF85B
:1014B0000346002B5AD040F21A03C2F200031B88E5
:1014C0009BB203F10A039AB240F21A03C2F200037C
:1014D0001A8043F2F003C2F20103D3E9002310465D
:1014E00019464FF000024FF0000307F073F803466F
:1014F000002BEED140F21A03C2F200031B889BB20C
:10150000A3F10A039AB240F21A03C2F200031A804E
:1015100040F21C03C2F200031B889BB203F10A03D2
:101520009AB240F21C03C2F200031A8043F2F8039D
:10153000C2F20103D3E90023104619464FF000021E
:101540004FF0000307F046F80346002BEED140F2BF
:101550001C03C2F200031B889BB2A3F10A039AB2D8
:1015600040F21C03C2F200031A8014E143F2F803B4
:10157000C2F20103D3E90023104619464FF00002DE
:101580004FF0000307F030F80346002B2DD040F257
:101590001803C2F200031B889BB203F10A039AB23C
:1015A00040F21803C2F200031A8043F2F803C2F2B9
:1015B0000103D3E90023104619464FF000024FF013
:1015C000000307F007F80346002BEED140F21803A2
:1015D000C2F200031B889BB2A3F10A039AB240F245
:1015E0001803C2F200031A80CBE543F2F803C2F2FB
:1015F0000103D3E90023104619464FF000024FF0D3
:10160000000307F00FF80346002B2DD040F21C0317
:10161000C2F200031B889BB203F10A039AB240F2A4
:101620001C03C2F200031A8043F2F803C2F2010362
:10163000D3E90023104619464FF000024FF0000393
:1016400006F0C8FF0346002BEED140F21C03C2F2A5
:1016500000031B889BB2A3F10A039AB240F21C0359
:10166000C2F200031A808CE543F2F803C2F20103D0
:10167000D3E90023104619464FF000024FF0000353
:1016800006F0A8FF0346002B7FF47BAD43F2F00386
:10169000C2F20103D3E90023104619464FF00002BD
:1016A0004FF0000306F0A0FF0346002B2DD040F2C0
:1016B0001E03C2F200031B889BB203F10A039AB215
:1016C00040F21E03C2F200031A8043F2F003C2F29A
:1016D0000103D3E90023104619464FF000024FF0F2
:1016E000000306F077FF0346002BEED140F21E0305
:1016F000C2F200031B889BB2A3F10A039AB240F224
:101700001E03C2F200031A803BE543F2F003C2F26B
:101710000103D3E90023104619464FF000024FF0B1
:10172000000306F07FFF0346002B2DD040F21A0382
:10173000C2F200031B889BB203F10A039AB240F283
:101740001A03C2F200031A8043F2F003C2F201034B
:10175000D3E90023104619464FF000024FF0000372
:1017600006F038FF0346002BEED140F21A03C2F216
:1017700000031B889BB2A3F10A039AB240F21A033A
:10178000C2F200031A80FCE443F2F003C2F2010348
:10179000D3E90023F5E4F4E480B582B000AF7860CB
:1017A000FEF7DAFFFEF7EAFE40F21803C2F200038A
:1017B0001B889BB21846FEF70FFF40F21A03C2F2D5
:1017C00000031B889BB21846FEF736FF40F21C034D
:1017D000C2F200031B889BB21846FEF75DFF40F281
:1017E0001E03C2F200031B889BB21846FEF784FF5B
:1017F00000E000BF43F20013C2F201031B78DBB22A
:10180000002B1ED040F21803C2F200031B889BB2CB
:1018100003F10A039AB240F21803C2F200031A80DD
:1018200040F21803C2F200031B889BB21846FEF771
:10183000D3FE43F20013C2F201034FF000021A700C
:10184000D7E743F20113C2F201031B78DBB2002B8E
:101850001ED040F21A03C2F200031B889BB203F1B0
:101860000A039AB240F21A03C2F200031A8040F24D
:101870001A03C2F200031B889BB21846FEF7DCFE77
:1018800043F20113C2F201034FF000021A70B0E7F5
:1018900043F20213C2F201031B78DBB2002B1ED00D
:1018A00040F21C03C2F200031B889BB203F10A033F
:1018B0009AB240F21C03C2F200031A8040F21C03E9
:1018C000C2F200031B889BB21846FEF7E5FE43F206
:1018D0000213C2F201034FF000021A7089E743F2CB
:1018E0000313C2F201031B78DBB2002B1ED040F2BF
:1018F0001E03C2F200031B889BB203F10A039AB2D3
:1019000040F21E03C2F200031A8040F21E03C2F22C
:1019100000031B889BB21846FEF7EEFE43F203134A
:10192000C2F201034FF000021A7062E743F204139F
:10193000C2F201031B78DBB2002B63D040F2180324
:10194000C2F200031B889BB203F10A039AB240F271
:101950001803C2F200031A8040F21A03C2F2000315
:101960001B889BB203F10A039AB240F21A03C2F237
:1019700000031A8040F21C03C2F200031B889BB2D2
:1019800003F10A039AB240F21C03C2F200031A8068
:1019900040F21E03C2F200031B889BB203F10A034C
:1019A0009AB240F21E03C2F200031A8040F21803FA
:1019B000C2F200031B889BB21846FEF70DFE40F2F0
:1019C0001A03C2F200031B889BB21846FEF734FECE
:1019D00040F21C03C2F200031B889BB21846FEF7BC
:1019E0005BFE40F21E03C2F200031B889BB2184646
:1019F000FEF782FE43F20413C2F201034FF000022D
:101A00001A70F6E643F20513C2F201031B78DBB24B
:101A1000002B1ED040F21803C2F200031B889BB2B9
:101A2000A3F10A039AB240F21803C2F200031A802B
:101A300040F21803C2F200031B889BB21846FEF75F
:101A4000CBFD43F20513C2F201034FF000021A70FE
:101A5000CFE643F20613C2F201031B78DBB2002B80
:101A60001ED040F21A03C2F200031B889BB2A3F1FE
:101A70000A039AB240F21A03C2F200031A8040F23B
:101A80001A03C2F200031B889BB21846FEF7D4FD6E
:101A900043F20613C2F201034FF000021A70A8E6E7
:101AA00043F20713C2F201031B78DBB2002B1ED0F6
:101AB00040F21C03C2F200031B889BB2A3F10A038D
:101AC0009AB240F21C03C2F200031A8040F21C03D7
:101AD000C2F200031B889BB21846FEF7DDFD43F2FD
:101AE0000713C2F201034FF000021A7081E643F2BD
:101AF0000813C2F201031B78DBB2002B1ED040F2A8
:101B00001E03C2F200031B889BB2A3F10A039AB220
:101B100040F21E03C2F200031A8040F21E03C2F21A
:101B200000031B889BB21846FEF7E6FD43F208133C
:101B3000C2F201034FF000021A705AE643F2091391
:101B4000C2F201031B78DBB2002B3FF452AE40F22D
:101B50001803C2F200031B889BB2A3F10A039AB2D6
:101B600040F21803C2F200031A8040F21A03C2F2D4
:101B700000031B889BB2A3F10A039AB240F21A0336
:101B8000C2F200031A8040F21C03C2F200031B8859
:101B90009BB2A3F10A039AB240F21C03C2F2000303
:101BA0001A8040F21E03C2F200031B889BB2A3F10D
:101BB0000A039AB240F21E03C2F200031A8040F2F6
:101BC0001803C2F200031B889BB21846FEF704FDFF
:101BD00040F21A03C2F200031B889BB21846FEF7BC
:101BE0002BFD40F21C03C2F200031B889BB2184677
:101BF000FEF752FD40F21E03C2F200031B889BB2A7
:101C00001846FEF779FD43F20913C2F201034FF0C3
:101C100000021A70EDE500BF80B582B000AF7860B9
:101C200003F0C0FA43F2B023C2F201034FF0000206
:101C30001A7043F2F003C2F2010393ED007BB0EEA1
:101C4000470AF0EE670A4FF000004FF0000148F637
:101C50004C12C0F6000203F0F1F943F2F803C2F2AD
:101C6000010393ED007BB0EE470AF0EE670A4FF0F8
:101C700001004FF0000148F65012C0F6000203F0D8
:101C8000DDF94FF000004FF0060103F03DFB40F29C
:101C90001803C2F200031B889BB2184603F0D4F865
:101CA0004FF000004FF00B0103F02EFB40F21A033F
:101CB000C2F200031B889BB2184603F0C5F84FF030
:101CC00001004FF0060103F01FFB40F21C03C2F2BB
:101CD00000031B889BB2184603F0B6F84FF00100D2
:101CE0004FF00B0103F010FB40F21E03C2F20003A1
:101CF0001B889BB2184603F0A7F89AE70000000083
:101D00002DE9F0438BB004AF786004F001F84FF494
:101D10004060C4F202004FF4004102F021F903F0E8
:101D200037FE4FF44060C4F202004FF4004102F06D
:101D300025F903F041FE0346012B07D14FF4406023
:101D4000C4F202004FF4805102F00AF94FF0000093
:101D500003F06CFE07F108034FF000021A6003F174
:101D600004034FF000021A6003F104034FF0000275
:101D70001A6003F104034FF000021A8003F102031A
:101D800007F10803184603F08FFE3A8943F2C22395
:101D9000C2F201031A807A8943F2B223C2F201032C
:101DA0001A80BA8943F2BE23C2F201031A80FA896B
:101DB00043F2C023C2F201031A803A8A43F2B423E9
:101DC000C2F201031A807A8A43F2C423C2F20103E9
:101DD0001A80BB8A1BB2184606F02EF902460B4643
:101DE000104619464FF000024FF48043C4F27503C9
:101DF00006F0B2FA02460B4610461946E2A3D3E9B2
:101E0000002305F0CDFF02460B461046194606F0AA
:101E100013FC03469AB243F2BA23C2F201031A80BA
:101E200043F2B223C2F201031B881BB207EE103A41
:101E3000F8EEC77A17EE900A06F010F904460D4640
:101E400043F2BE23C2F201031B881BB207EE103A15
:101E5000F8EEC77A17EE900A06F000F902460B4634
:101E600043EC102B9FEDC61B04F0E8FD59EC108BE2
:101E700043F2C223C2F201031B881BB207EE103AE1
:101E8000F8EEC77A17EE900A06F0E8F802460B461D
:101E900043EC102B9FEDBA1B04F0D0FD53EC102B3C
:101EA0004046494605F07CFF02460B4643EC172BA3
:101EB000B0EE470AF0EE670A04F060FF53EC102B17
:101EC0002046294606F048FA02460B4643EC172BFB
:101ED000B0EE470AF0EE670A04F0EAFB53EC102B71
:101EE00010461946AAA3D3E9002306F00BF90246CF
:101EF0000B461046194643F2E003C2F20103C3E960
:101F0000000143F2C223C2F201031B881BB2C3F1DA
:101F1000000307EE103AF8EEC77A17EE900A06F0C3
:101F20009DF804460D4643F2BE23C2F201031B880E
:101F30001BB207EE103AF8EEC77A17EE900A06F0D9
:101F40008DF802460B4643EC102B9FED8D1B04F0E1
:101F500075FD59EC108B43F2B223C2F201031B88CA
:101F60001BB207EE103AF8EEC77A17EE900A06F0A9
:101F700075F802460B4643EC102B9FED811B04F0D5
:101F80005DFD53EC102B4046494605F009FF024623
:101F90000B4643EC172BB0EE470AF0EE670A04F04D
:101FA000EDFE53EC102B2046294606F0D5F90246EB
:101FB0000B4643EC172BB0EE470AF0EE670A04F02D
:101FC00077FB53EC102B1046194671A3D3E900237D
:101FD00006F098F802460B461046194643F2E8030D
:101FE000C2F20103C3E9000143F2C023C2F20103BC
:101FF0001B881BB207EE103AF8EEC77A17EE900A6C
:1020000006F02CF802460B461046194662A3D3E9A7
:10201000002306F0A1F902460B461046194660A3BC
:10202000D3E9002305F0BCFE02460B4610461946D4
:1020300043F2A003C2F20103C3E9000143F2B42357
:10204000C2F201031B881BB207EE103AF8EEC77A02
:1020500017EE900A06F002F802460B4610461946A3
:102060004DA3D3E9002306F077F902460B4610464C
:1020700019464DA3D3E9002305F090FE02460B4616
:102080001046194643F2C003C2F20103C3E900013E
:1020900001F028F901460A464FF0000343F2C80157
:1020A000C2F20101C1E9002343F2F003C2F20103CD
:1020B00093ED005B43F2A003C2F2010393ED006BCA
:1020C00043F29803C2F2010393ED007B43F2C8038D
:1020D000C2F20103D3E9000143F2D003C2F20103CB
:1020E000D3E9004543F2C223C2F201031E8843F242
:1020F000B223C2F201031A8843F2BE23C2F20103E3
:102100001B8836B2009612B201921BB20293B0EE57
:10211000450AF0EE650AB0EE461AF0EE661AB0EE29
:10212000472AF0EE672A22462B46FEF735FBB0EE33
:10213000407AF0EE607A43F2F003C2F2010383EDDD
:10214000007B43F2F803C2F2010393ED005B43F21C
:10215000C003C2F2010393ED006B43F2B803C2F275
:10216000010393ED007B43F2C803C2F20103D3E9FC
:10217000000143F2D003C2F20103D3E9004517E0A6
:102180000000000000000040A4703D0AD743424018
:10219000F6285C8FC2A54C40000000000060604043
:1021A000CDCCCCCCCCCCE43F9A9999999999054067
:1021B00043F2C223C2F201031E8843F2B223C2F2E9
:1021C00001031A8843F2BE23C2F201031B8836B210
:1021D000009612B201921BB20293B0EE450AF0EEE5
:1021E000650AB0EE461AF0EE661AB0EE472AF0EE37
:1021F000672A22462B46FEF7C7FBB0EE407AF0EE88
:10220000607A43F2F803C2F2010383ED007B43F2EC
:10221000C803C2F20103D3E9000143F2D003C2F2C2
:102220000103C3E9000143F2A003C2F20103D3E9B1
:10223000000143F29803C2F20103C3E9000143F233
:10224000C003C2F20103D3E9000143F2B803C2F2B2
:102250000103C3E900014FF00100FEF777FF79E5C4
:1022600080B582B000AF7860FEF798FEFEF7CAFC3A
:1022700000E000BF43F2B820C2F20100FEF73AFDD1
:102280000346002BF5D043F2B823C2F201031B78BA
:102290000F2B00F2868043F2B823C2F201031A78B2
:1022A00043F2B023C2F201031A7043F2B823C2F220
:1022B00001031B7803F1FF330E2B7AD801A252F8E9
:1022C00023F000BF01230008112300082123000888
:1022D000412300085123000861230008B3230008AC
:1022E000B3230008B323000831230008712300083A
:1022F000B3230008B32300088123000891230008BA
:1023000043F20013C2F201034FF001021A7051E0D0
:1023100043F20113C2F201034FF001021A7049E0C7
:1023200043F20213C2F201034FF001021A7041E0BE
:1023300043F20313C2F201034FF001021A7039E0B5
:1023400043F20513C2F201034FF001021A7031E0AB
:1023500043F20613C2F201034FF001021A7029E0A2
:1023600043F20713C2F201034FF001021A7021E099
:1023700043F20813C2F201034FF001021A7019E090
:1023800043F20413C2F201034FF001021A7011E08C
:1023900043F20913C2F201034FF001021A7000BFA9
:1023A00008E043F2B023C2F201034FF0FF021A70BB
:1023B00000E000BF4FF01700FEF7EAFC59E700BF4E
:1023C00080B586B004AF4FF008004FF0010100F077
:1023D0007DF94FF470433B604FF001033B714FF0C8
:1023E00002037B713B464FF44060C4F20200194681
:1023F00001F014FD4FF0020300934FF0000301932E
:102400004FF0000302934FF00003039341F2791061
:10241000C0F6000048F65411C0F600014FF08202E9
:102420004FF0000300F006FD4FF0020300934FF061
:10243000000301934FF0000302934FF00003039356
:1024400041F29970C0F6000048F65811C0F600013C
:102450004FF082024FF0000300F0ECFC4FF002035B
:1024600000934FF0000301934FF0000302934FF0ED
:102470000003039341F61940C0F6000048F65C11D2
:10248000C0F600014FF082024FF0000300F0D2FCD2
:102490004FF0020300934FF0000301934FF000034D
:1024A00002934FF00003039341F60150C0F6000081
:1024B00048F66011C0F600014FF082024FF00003B1
:1024C00000F0B8FC4FF0020300934FF000030193BB
:1024D0004FF0000302934FF00003039342F2612098
:1024E000C0F6000048F66811C0F600014FF0820205
:1024F0004FF0000300F09EFC00F0E4FDFEE700BF9B
:1025000080B489B000AF78604FF00003BB614FF03A
:1025100000037B614FF00003FB614FF002033B615E
:102520004FF00003FB604FF00203BB604FF46053B9
:10253000C4F202039B6803F00C03BB61BB69042B6C
:102540000AD0082B0FD0002B60D17A684FF41053BB
:10255000C0F2F403136060E07A6847F64003C0F20B
:102560007D13136059E04FF46053C4F202035B68BB
:1025700003F480034FEA9353FB604FF46053C4F2BB
:1025800002035B6803F03F03BB60FB68002B14D0C1
:1025900047F64003C0F27D13BA68B3FBF2F24FF482
:1025A0006053C4F20203596847F6C0730B404FEA08
:1025B000931303FB02F3FB6113E04FF41053C0F2DB
:1025C000F403BA68B3FBF2F24FF46053C4F20203AF
:1025D000596847F6C0730B404FEA931303FB02F3AD
:1025E000FB614FF46053C4F202035B6803F44033B1
:1025F0004FEA134303F101034FEA43033B61FA69D6
:102600003B69B2FBF3F27B681A6006E07A684FF42C
:102610001053C0F2F403136000BF4FF46053C4F2D0
:1026200002039B6803F0F003BB61BB694FEA13131D
:10263000BB6140F22003C2F20003BA699B181B7809
:10264000DBB27B617B681A687B6922FA03F27B68E4
:102650005A604FF46053C4F202039B6803F4E053E2
:10266000BB61BB694FEA9323BB6140F22003C2F216
:102670000003BA699B181B78DBB27B617B685A68E0
:102680007B6922FA03F27B689A604FF46053C4F2CC
:1026900002039B6803F46043BB61BB694FEA533399
:1026A000BB6140F22003C2F20003BA699B181B7899
:1026B000DBB27B617B685A687B6922FA03F27B6834
:1026C000DA6007F12407BD4680BC704780B483B050
:1026D00000AF78600B46FB70FB78002B0CD04FF4FA
:1026E0006053C4F202034FF46052C4F20202116B51
:1026F0007A680A431A630DE04FF46053C4F2020390
:102700004FF46052C4F20202116B7A686FEA02025F
:102710000A401A6307F10C07BD4680BC704700BF32
:1027200080B483B000AF78600B46FB70FB78002B61
:102730000CD04FF46053C4F202034FF46052C4F261
:102740000202116C7A680A431A640DE04FF4605378
:10275000C4F202034FF46052C4F20202116C7A68B0
:102760006FEA02020A401A6407F10C07BD4680BCFA
:10277000704700BF80B483B000AF78600B46FB7039
:10278000FB78002B0CD04FF46053C4F202034FF4DB
:102790006052C4F20202516C7A680A435A640DE036
:1027A0004FF46053C4F202034FF46052C4F20202C9
:1027B000516C7A686FEA02020A405A6407F10C070A
:1027C000BD4680BC704700BF80B483B000AF786066
:1027D0000B46FB70FB78002B0CD04FF46053C4F217
:1027E00002034FF46052C4F20202116A7A680A438B
:1027F0001A620DE04FF46053C4F202034FF46052CA
:10280000C4F20202116A7A686FEA02020A401A628E
:1028100007F10C07BD4680BC704700BF80B586B08D
:1028200004AF4FF000037B6000F0ACFA43F24013BA
:10283000C2F201031B68002B1AD04FF00203009371
:102840004FF0000301934FF0000302934FF0000399
:10285000039342F6B110C0F6000048F67411C0F6BA
:1028600000014FF482724FF0000300F0E3FA786049
:102870007B68002B02D101F0E1FDFEE77B68184682
:1028800007F10807BD4680BD80B588B000AFF8608D
:10289000B9607A603B604FF00003FB6143F2401384
:1028A000C2F201031B68002B3DD0BB683B617B6813
:1028B0007B61FB68BB61BB68052B25DC01F0C6F9B9
:1028C0000346022B0FD143F24013C2F201031A68F0
:1028D00007F1100310461946BA6A4FF0000301F0E1
:1028E000F7FEF8611FE043F24013C2F201031A68D9
:1028F00007F11003104619464FF000024FF0000395
:1029000001F0E6FEF8610EE043F24013C2F201036B
:102910001A6807F11003104619463A684FF0000391
:1029200001F0A4FFF861FB69184607F12007BD46D6
:1029300080BD00BF80B586B002AF7860396043F2D9
:102940003813C2F201031B68DB68DB68FB60FB68BD
:1029500003F10403184601F0FFFBFB68DB69012B60
:102960001ED1FB689A697B68D318F86819463A68E3
:102970007B6800F0B9F80346012B11D14FF000033A
:102980000093F8684FF000017A684FF00003FFF7FA
:102990007BFFB860BB68002B02D101F04FFDFEE762
:1029A000FB685B6AF868984707F11007BD4680BD71
:1029B00080B584B000AF786007F10803184600F0D6
:1029C00043F8F860BB68F868194600F003F800F0B7
:1029D000D5F8F1E780B584B000AF7860396000F0D9
:1029E000B5FB07F10803184600F058F8F860BB681B
:1029F000002B21D13B68002B0AD17A68FB689A42F0
:102A000006D800F0B5FB7868F968FFF793FF17E088
:102A100043F24013C2F201031A687968FB68CB1ACB
:102A20001046194602F0D2F900F0A2FB0346002B33
:102A300005D101F0B9FC02E000F09AFB00E000BF14
:102A400007F11007BD4680BD80B485B000AF786047
:102A500043F23813C2F201031B681B68002B14BF3A
:102A600000230123DBB21A467B681A607B681B686F
:102A7000002B08D143F23813C2F201031B68DB6854
:102A80001B68FB6002E04FF00003FB60FB68184628
:102A900007F11407BD4680BC704700BF80B584B005
:102AA00000AF786000F01EFCF86043F24413C2F2FD
:102AB00001031B68FA689A4206D200F0F1F87B68BD
:102AC0004FF001021A6003E07B684FF000021A60C9
:102AD00043F24413C2F20103FA681A60FB68184615
:102AE00007F11007BD4680BD80B586B000AFF86025
:102AF000B9607A603B604FF000037B61FB68BA68A5
:102B00005A60FB68FA681A61BA687B689A4217D8FB
:102B10007A683B68D21AFB689B699A4203D34FF0EC
:102B200001037B6124E043F23C13C2F201031A6803
:102B3000FB6803F104031046194601F0D3FA17E0CD
:102B40007A683B689A4207D2BA683B689A4203D3D4
:102B50004FF001037B610BE043F23813C2F2010333
:102B60001A68FB6803F104031046194601F0BAFA2B
:102B70007B69184607F11807BD4680BD80B58AB04D
:102B800002AF76E0BB68002B73DB3B69FB61FB693E
:102B90005B69002B05D0FB6903F10403184601F0C3
:102BA000DBFA07F104031846FFF778FFB861BB684A
:102BB000092B5BD801A252F823F000BFE52B0008D7
:102BC000E52B0008E52B00086D2C00083B2C0008C5
:102BD000652C0008E52B0008E52B00086D2C00088B
:102BE0003B2C0008FA68FB699B69D218FB68F869FE
:102BF0001146BA69FFF778FF0346012B38D1FB690C
:102C00005B6AF8699847FB69DB69012B30D1FA6888
:102C1000FB699B69D3184FF000020092F8694FF0EE
:102C200000011A464FF00003FFF72EFE78617B6922
:102C3000002B1DD101F002FCFEE7FA68FB699A61E6
:102C4000FB699B69002B02D101F0F8FBFEE7FB69F1
:102C50009A69BB69D318F8691946BA69BB69FFF765
:102C600043FF06E0F869FDF753FB02E000BF00E018
:102C700000BF43F24013C2F201031A6807F10803D0
:102C8000104619464FF000024FF0000301F062FEBB
:102C90000346002B7FF476AF07F12007BD4680BDC9
:102CA00080B588B002AF4BE043F23813C2F20103A3
:102CB0001B68DB681B687B6143F23813C2F20103B7
:102CC0001B68DB68DB683B613B6903F10403184662
:102CD00001F042FA3B695B6A386998473B69DB69F6
:102CE000012B2DD13B699A697B69D318FB60FA6887
:102CF0007B699A4212D93B69FA685A603B693A6922
:102D00001A6143F23813C2F201031A683B6903F1F6
:102D100004031046194601F0E5F911E04FF00003F5
:102D2000009338694FF000017A694FF00003FFF714
:102D3000ABFDB860BB68002B02D101F07FFBFEE762
:102D400043F23813C2F201031B681B68002BABD19E
:102D500043F23813C2F201031B687B6043F23C1359
:102D6000C2F201031A6843F23813C2F201031A6077
:102D700043F23C13C2F201037A681A6007F11807A4
:102D8000BD4680BD80B500AF01F01EFB43F240138D
:102D9000C2F201031B68002B48D143F21010C2F2AB
:102DA000010001F04DF943F22410C2F2010001F0DC
:102DB00047F943F23813C2F2010343F21012C2F290
:102DC00001021A6043F23C13C2F2010343F22412DF
:102DD000C2F201021A604FF00A004FF00C014FF0EE
:102DE000000201F02DFC024643F24013C2F201033F
:102DF0001A6043F24013C2F201031B68002B02D198
:102E000001F01CFBFEE743F24013C2F201031B6812
:102E1000002B0BD043F24013C2F201031B6818468B
:102E200048F67C11C0F6000101F09EFF01F0E2FAC5
:102E300080BD00BF80B58AB002AFF860B9603B606A
:102E40001346FB80FB68002B02D101F0F7FAFEE786
:102E5000BB6A092B02D901F0F1FAFEE7FB8818469C
:102E6000396B00F06DFEB861BB69002B00F0A380E8
:102E7000BB691A6BFB8803F1FF334FEA8303D31856
:102E80007B617B6923F007037B617B6903F00703A8
:102E9000002B02D001F0D2FAFEE7FB880093B8695C
:102EA000B968BA6A7B6B00F015FD7869F9683A6811
:102EB00001F07EF90246BB691A60FB6A002B02D062
:102EC000FB6ABA691A6001F07FFA43F28423C2F206
:102ED00001031B6803F1010243F28423C2F20103E0
:102EE0001A6043F24813C2F201031B68002B0FD192
:102EF00043F24813C2F20103BA691A6043F2842311
:102F0000C2F201031B68012B18D100F033FD15E05C
:102F100043F29023C2F201031B68002B0ED143F24F
:102F20004813C2F201031B68DA6ABB6A9A4205D8E9
:102F300043F24813C2F20103BA691A6043F2A023B4
:102F4000C2F201031B6803F1010243F2A023C2F2A3
:102F500001031A6043F2A023C2F201031A68BB699D
:102F60001A64BB69DA6A43F28C23C2F201031B685C
:102F70009A4206D9BB69DA6A43F28C23C2F2010392
:102F80001A60BB69DA6A13464FEA83039B184FEA5B
:102F9000830343F24C12C2F201029A18BB6903F197
:102FA00004031046194601F079F84FF00103FB6164
:102FB00001F020FA02E04FF0FF33FB61FB69012BC7
:102FC00011D143F29023C2F201031B68002B0AD0F7
:102FD00043F24813C2F201031B68DA6ABB6A9A42E1
:102FE00001D201F0E1F9FB69184607F12007BD465F
:102FF00080BD00BF80B586B000AF786039604FF00B
:1030000000037B617B68002B02D101F017FAFEE719
:103010003B68002B02D101F011FAFEE743F2A42332
:10302000C2F201031B68002B02D001F007FAFEE791
:1030300000F08CF843F28823C2F201031B683B6165
:103040007B681A683B68D318FB607B681A683B6929
:103050009A420CD97B681A68FB689A4213D9FA68BD
:103060003B699A420FD94FF001037B610BE07B680B
:103070001A68FB689A4203D8FA683B699A4202D9F7
:103080004FF001037B617B68FA681A607B69002B53
:103090000CD043F24813C2F201031B6803F104038E
:1030A000184601F059F8F86800F004FD00F060F8E7
:1030B000B860BB68002B01D101F076F907F1180761
:1030C000BD4680BD80B586B004AF4FF000030093CD
:1030D0004FF0000301934FF0000302934FF0000301
:1030E000039343F6B100C0F6000048F68411C0F621
:1030F00000014FF082024FF00003FFF79BFE786063
:103100007B68012B02D1FFF789FB78607B68012B7C
:1031100012D101F093F943F29023C2F201034FF070
:1031200001021A6043F28823C2F201034FF0000249
:103130001A6001F0A5F805E07B68002B02D101F0D0
:103140007DF9FEE707F10807BD4680BD80B400AFFA
:1031500043F2A423C2F201031B6803F1010243F20C
:10316000A423C2F201031A60BD4680BC704700BFB1
:1031700080B582B000AF4FF000037B6043F2A42320
:10318000C2F201031B68002B02D101F057F9FEE7E0
:1031900001F01AF943F2A423C2F201031B6803F100
:1031A000FF3243F2A423C2F201031A6043F2A423C4
:1031B000C2F201031B68002B40F08B8043F2842392
:1031C000C2F201031B68002B00F0838047E043F24A
:1031D0004423C2F20103DB68DB683B603B6803F118
:1031E0001803184600F0B8FF3B6803F104031846C3
:1031F00000F0B2FF3B68DA6A43F28C23C2F20103AB
:103200001B689A4206D93B68DA6A43F28C23C2F201
:1032100001031A603B68DA6A13464FEA83039B187E
:103220004FEA830343F24C12C2F201029A183B6840
:1032300003F104031046194600F030FF3B68DA6AD8
:1032400043F24813C2F201031B68DB6A9A4206D3B9
:1032500043F29823C2F201034FF001021A6043F2D5
:103260004423C2F201031B68002BB0D143F2942324
:10327000C2F201031B68002B1FD017E000F046F8D4
:103280000346002B06D043F29823C2F201034FF00D
:1032900001021A6043F29423C2F201031B6803F196
:1032A000FF3243F29423C2F201031A6043F29423E3
:1032B000C2F201031B68002BE0D143F29823C2F253
:1032C00001031B68012B04D14FF001037B6001F067
:1032D0006BF801F08FF87B68184607F10807BD46C8
:1032E00080BD00BF80B582B000AF01F06DF843F241
:1032F0008823C2F201031B687B6001F07BF87B68C6
:10330000184607F10807BD4680BD00BF80B586B0EE
:1033100000AF4FF000037B6143F2A423C2F201032C
:103320001B68002B40F0D58043F28823C2F20103D2
:103330001B6803F1010243F28823C2F201031A6001
:1033400043F28823C2F201031B683B613B69002BF7
:103350002ED143F23C23C2F201031B681B68002BF1
:1033600002D001F06BF8FEE743F23C23C2F2010306
:103370001B68FB6043F24023C2F201031A6843F268
:103380003C23C2F201031A6043F24023C2F201035C
:10339000FA681A6043F29C23C2F201031B6803F12E
:1033A000010243F29C23C2F201031A6000F010FCF8
:1033B00040F23003C2F200031B683A699A4270D3AC
:1033C00000E000BF43F23C23C2F201031B681B680C
:1033D000002B02D14FF0010301E04FF00003002B5E
:1033E00007D040F23003C2F200034FF0FF321A6000
:1033F00057E043F23C23C2F201031B68DB68DB6841
:10340000BB60BB685B687B603A697B689A4206D2A6
:1034100040F23003C2F200037A681A6041E0BB68F0
:1034200003F10403184600F097FEBB689B6A002B6B
:1034300005D0BB6803F11803184600F08DFEBB6889
:10344000DA6A43F28C23C2F201031B689A4206D95E
:10345000BB68DA6A43F28C23C2F201031A60BB68CC
:10346000DA6A13464FEA83039B184FEA830343F259
:103470004C12C2F201029A18BB6803F10403104611
:10348000194600F00BFEBB68DA6A43F24813C2F239
:1034900001031B68DB6A9A4293D34FF001037B61FF
:1034A0008FE743F24813C2F201031B68D96A43F263
:1034B0004C12C2F201020B464FEA83035B184FEA3B
:1034C0008303D3181B68012B0FD94FF001037B61D5
:1034D0000BE043F29423C2F201031B6803F10102E3
:1034E00043F29423C2F201031A6043F29823C2F21A
:1034F00001031B68002B02D04FF001037B617B6945
:10350000184607F11807BD4680BD00BF80B582B0E0
:1035100000AF43F2A423C2F201031B68002B07D0C3
:1035200043F29823C2F201034FF001021A605AE0FD
:1035300043F29823C2F201034FF000021A6015E033
:1035400043F28C23C2F201031B68002B02D100F06E
:1035500075FFFEE743F28C23C2F201031B6803F1FF
:10356000FF3243F28C23C2F201031A6043F28C2330
:10357000C2F20103196843F24C12C2F201020B4677
:103580004FEA83035B184FEA8303D3181B68002BB1
:10359000D6D043F28C23C2F201031A6813464FEAD5
:1035A00083039B184FEA830343F24C12C2F20102D9
:1035B0009B187B607B685B685A687B685A607B6895
:1035C0005A687B6803F108039A4204D17B685B6800
:1035D0005A687B685A607B685B68DA6843F2481314
:1035E000C2F201031A6007F10807BD4680BD00BFA3
:1035F00080B584B000AF786039607B68002B02D161
:1036000000F01CFFFEE743F24813C2F201031B68FF
:1036100003F118037868194600F064FD43F248137B
:10362000C2F201031B6803F10403184600F094FD85
:103630003B68B3F1FF3F0ED143F24813C2F20103DE
:103640001B6803F1040343F27020C2F20100194623
:1036500000F024FD0AE043F28823C2F201031A6855
:103660003B68D318FB60F86800F024FA07F11007F4
:10367000BD4680BD80B584B000AF786039607B689E
:10368000002B02D100F0DAFEFEE743F24813C2F24B
:1036900001031B6803F118037868194600F0FEFC6B
:1036A00043F24813C2F201031B6803F104031846F6
:1036B00000F052FD43F28823C2F201031A683B680E
:1036C000D318FB60F86800F0F5F907F11007BD4664
:1036D00080BD00BF80B584B000AF78607B68DB68D8
:1036E000DB68BB60BB68002B02D100F0A7FEFEE7E1
:1036F000BB6803F11803184600F02EFD43F2A42323
:10370000C2F201031B68002B2AD1BB6803F104033A
:10371000184600F021FDBB68DA6A43F28C23C2F23E
:1037200001031B689A4206D9BB68DA6A43F28C230C
:10373000C2F201031A60BB68DA6A13464FEA8303D8
:103740009B184FEA830343F24C12C2F201029A180B
:10375000BB6803F104031046194600F09FFC09E022
:10376000BB6803F1180343F24420C2F2010019467A
:1037700000F094FCBB68DA6A43F24813C2F201031A
:103780001B68DB6A9A420AD94FF00103FB6043F2DF
:103790009823C2F201034FF001021A6002E04FF0D9
:1037A0000003FB60FB68184607F11007BD4680BDAB
:1037B00080B582B000AF78607B68002B02D100F04A
:1037C0003DFEFEE743F29C23C2F201031A687B68C8
:1037D0001A6043F28823C2F201031A687B685A60B8
:1037E00007F10807BD4680BD80B584B000AF7860A2
:1037F00039607B68002B02D100F020FEFEE73B68B9
:10380000002B02D100F01AFEFEE700F0DDFD43F2CE
:103810008823C2F201031B68BB603B681B68B3F1DD
:10382000FF3F03D14FF00003FB602CE07B681A6878
:1038300043F29C23C2F201031B689A4208D07B68C2
:103840005A68BB689A4203D84FF00103FB601AE044
:103850007B685B68BA68D21A3B681B689A420FD2D1
:103860003B681A687B685968BB68CB1AD2183B68FA
:103870001A607868FFF79CFF4FF00003FB6002E0DE
:103880004FF00103FB6000F0B5FDFB68184607F13F
:103890001007BD4680BD00BF80B400AF43F298233F
:1038A000C2F201034FF001021A60BD4680BC7047AE
:1038B00080B582B000AF786000E000BF00F0ACF8E7
:1038C00043F24C13C2F201031B68012BF5D900F03F
:1038D0006BFDF2E780B586B000AFF860B9607A6042
:1038E0003B604FF000037B6113E0BA687B69D3183B
:1038F0001A78F9687B69CB1803F130031A71BA683A
:103900007B69D3181B78002B07D07B6903F1010377
:103910007B617B69092BE8D900E000BFFB684FF0B1
:10392000000283F83D207B68092B02D94FF0090380
:103930007B60FB687A68DA62FB687A689A64FB6885
:1039400003F10403184600F09BFBFB6803F1180326
:10395000184600F095FBFB68FA681A617B68C3F1B2
:103960000A02FB689A61FB68FA685A6207F1180755
:10397000BD4680BD80B582B000AF4FF000037B60D4
:1039800012E07A6813464FEA83039B184FEA8303D9
:1039900043F24C12C2F201029B18184600F050FB91
:1039A0007B6803F101037B607B68092BE9D943F253
:1039B0001420C2F2010000F043FB43F22820C2F2BF
:1039C000010000F03DFB43F24420C2F2010000F090
:1039D00037FB43F25820C2F2010000F031FB43F202
:1039E0007020C2F2010000F02BFB43F23C23C2F234
:1039F000010343F21422C2F201021A6043F240238F
:103A0000C2F2010343F22822C2F201021A6007F156
:103A10000807BD4680BD00BF80B582B000AF3DE065
:103A2000FFF794FB43F25823C2F201031B68002BFB
:103A300014BF00230123DBB27B60FFF799FB7B6897
:103A4000002B2BD100F0C0FC43F25823C2F201033B
:103A5000DB68DB683B603B6803F10403184600F059
:103A60007BFB43F28423C2F201031B6803F1FF32A4
:103A700043F28423C2F201031A6043F26C23C2F2C0
:103A800001031B6803F1FF3243F26C23C2F201030E
:103A90001A6000F0AFFC386800F08AF843F26C233B
:103AA000C2F201031B68002BBAD107F10807BD461B
:103AB00080BD00BF80B582B000AF786043F248138C
:103AC000C2F201031B687A685A6043F28823C2F28B
:103AD00001031B687A689A4210D243F24023C2F273
:103AE00001031A6843F24813C2F201031B6803F191
:103AF00004031046194600F0F5FA1DE043F23C239A
:103B0000C2F201031A6843F24813C2F201031B68B0
:103B100003F104031046194600F0E4FA40F23003C2
:103B2000C2F200031B687A689A4205D240F2300361
:103B3000C2F200037A681A6007F10807BD4680BD2B
:103B400080B584B000AF03463960FB804FF04C0075
:103B5000FCF71AFBF860FB68002B23D03B68002BB6
:103B600007D1FB884FEA83031846FCF70DFB034699
:103B700000E03B68FA681363FB681B6B002B06D1FF
:103B8000F868FCF7C5FB4FF00003FB600AE0FB6838
:103B90001A6BFB884FEA830310464FF0A5011A46C3
:103BA00004F03AFEFB68184607F11007BD4680BDD9
:103BB00080B582B000AF78607B681B6B1846FCF75D
:103BC000A7FB7868FCF7A4FB07F10807BD4680BD9A
:103BD00080B483B000AF43F23C23C2F201031B6800
:103BE0001B68002B02D14FF0010301E04FF00003EE
:103BF000002B07D040F23003C2F200034FF0FF3237
:103C00001A600EE043F23C23C2F201031B68DB683A
:103C1000DB687B607B685A6840F23003C2F20003C5
:103C20001A6007F10C07BD4680BC704780B483B0B2
:103C300000AF43F24813C2F201031B687B607B684C
:103C4000184607F10C07BD4680BC704780B483B0AE
:103C500000AF43F29023C2F201031B68002B03D193
:103C60004FF001037B600DE043F2A423C2F2010395
:103C70001B68002B03D14FF002037B6002E04FF082
:103C800000037B607B68184607F10C07BD4680BCCB
:103C9000704700BF80B584B000AF78607B68FB6080
:103CA0007B68002B6AD0FB68DA6A43F24813C2F2E1
:103CB00001031B68DB6A9A4260D2FB689B69002B98
:103CC00009DB43F24813C2F201031B68DB6AC3F14C
:103CD0000A02FB689A61FB685969FB68DA6A134655
:103CE0004FEA83039B184FEA830343F24C12C2F25C
:103CF00001029B18994202D14FF0010301E04FF0FD
:103D00000003002B32D0FB6803F10403184600F0D7
:103D100023FA43F24813C2F201031B68DA6AFB6814
:103D2000DA62FB68DA6A43F28C23C2F201031B6891
:103D30009A4206D9FB68DA6A43F28C23C2F2010385
:103D40001A60FB68DA6A13464FEA83039B184FEA4E
:103D5000830343F24C12C2F201029A18FB6803F18A
:103D600004031046194600F099F907E043F248139E
:103D7000C2F201031B68DA6AFB68DA6207F1100716
:103D8000BD4680BD80B584B000AF78607B68FB60C5
:103D90007B68002B3DD0FB68DA6AFB689B6C9A421B
:103DA00037D0FB6803F10403184600F0D5F9FB682F
:103DB0009A6CFB68DA62FB689B69002B05DBFB6889
:103DC000DB6AC3F10A02FB689A61FB68DA6A43F2B4
:103DD0008C23C2F201031B689A4206D9FB68DA6A97
:103DE00043F28C23C2F201031A60FB68DA6A1346BD
:103DF0004FEA83039B184FEA830343F24C12C2F24B
:103E000001029A18FB6803F104031046194600F0FA
:103E100045F907F11007BD4680BD00BF80B487B0EB
:103E200000AF786039604FF000037B614FF0000312
:103E30003B614FF00003FB604FF000037B6186E0C5
:103E40007B694FF0010202FA03F33B613B681A6899
:103E50003B691340FB60FA683B699A4273D17B6807
:103E60001A687B694FEA43034FF0030101FA03F339
:103E70006FEA03031A407B681A607B681A683B6824
:103E80001B7919467B694FEA430301FA03F31A438E
:103E90007B681A603B681B79012B03D03B681B7958
:103EA000022B34D17B689A687B694FEA43034FF059
:103EB000030101FA03F36FEA03031A407B689A6077
:103EC0007B689A683B685B7919467B694FEA4303D4
:103ED00001FA03F31A437B689A607B685A687B692E
:103EE0009BB24FF0010101FA03F36FEA03031A409A
:103EF0007B685A607B685A683B689B7919467B6986
:103F00009BB201FA03F39BB21A437B685A607B6849
:103F1000DA687B699BB24FEA43034FF0030101FA71
:103F200003F36FEA03031A407B68DA607B68DA68A0
:103F30003B68DB7919467B694FEA430301FA03F3D7
:103F40001A437B68DA607B6903F101037B617B695B
:103F50000F2B7FF675AF07F11C07BD4680BC70477D
:103F600080B483B000AF78600B467B807B687A8832
:103F70001A8307F10C07BD4680BC704780B483B03C
:103F800000AF78600B467B807B687A885A8307F1A4
:103F90000C07BD4680BC704780B485B000AF786028
:103FA00013460A467A807B704FF00003FB604FF0A7
:103FB0000003BB607A787B8803F007034FEA830332
:103FC00002FA03F3FB607B884FEAD3039BB21A46E5
:103FD0007B884FEAD3039BB219467B6801F1080145
:103FE00053F821107B8803F007034FEA83034FF057
:103FF0000F0000FA03F36FEA030319407B6802F134
:10400000080243F822107B884FEAD3039BB21A467A
:104010007B6802F1080253F82220FB681343BB605F
:104020007B884FEAD3039BB21A467B6802F10802F1
:10403000B96843F8221007F11407BD4680BC7047E9
:1040400080B483B000AF78607B6803F108027B68BE
:104050005A607B684FF0FF329A607B6803F1080278
:104060007B68DA607B6803F108027B681A617B6811
:104070004FF000021A6007F10C07BD4680BC704784
:1040800080B483B000AF78607B684FF000021A61A3
:1040900007F10C07BD4680BC704700BF80B485B0F7
:1040A00000AF786039607B685B68FB603B68FA68EA
:1040B0005A60FB689A683B689A60FB689B683A683C
:1040C0005A60FB683A689A603B687A681A617B6854
:1040D0001B6803F101027B681A6007F11407BD46F3
:1040E00080BC704780B485B000AF786039603B68B1
:1040F0001B68BB60BB68B3F1FF3F03D17B681B69E2
:10410000FB600DE07B6803F10803FB6002E0FB68E5
:104110005B68FB60FB685B681A68BB689A42F6D90B
:10412000FB685A683B685A603B685B683A689A600B
:104130003B68FA689A60FB683A685A603B687A683C
:104140001A617B681B6803F101027B681A6007F142
:104150001407BD4680BC704780B485B000AF78605E
:104160007B681B69FB607B685B687A6892689A6011
:104170007B689B687A6852685A60FB685A687B68FB
:104180009A4203D17B689A68FB685A607B684FF05B
:1041900000021A61FB681B6803F1FF32FB681A60BA
:1041A000FB681B68184607F11407BD4680BC7047C2
:1041B00080B485B000AFF860B9607A60FB68A3F1A5
:1041C0000403FB60FB684FF080721A60FB68A3F188
:1041D0000403FB60BA68FB681A60FB68A3F1040380
:1041E000FB6044F22523C0F60003FA681360FB6805
:1041F000A3F11403FB607A68FB681A60FB68A3F103
:104200000403FB60FB686FF002021A60FB68A3F115
:104210002003FB60FB68184607F11407BD4680BC0D
:10422000704700BF80B500AF40F23403C2F2000314
:104230001B68B3F1FF3F02D000F000F9FEE700F089
:10424000FDF8FEE7064B19680868B0E8F04F80F308
:104250000988BFF36F8F4FF0000080F3118870471B
:104260004831012005480068006880F3088862B67C
:10427000BFF34F8FBFF36F8F00DF00BF08ED00E08B
:1042800080B584B000AF4FF46443CEF20003FB600E
:10429000FB681B78DBB2BB60FB684FF0FF021A7053
:1042A000FB681B78DBB2FB71FB79DBB203F05003D8
:1042B000DAB243F2A823C2F201031A7043F2AC232C
:1042C000C2F201034FF007021A6011E043F2AC237F
:1042D000C2F201031B6803F1FF3243F2AC23C2F2C6
:1042E00001031A60FB79DBB24FEA4303DBB2FB71D7
:1042F000FB79DBB2DBB25BB2002BE7DB43F2AC2332
:10430000C2F201031B684FEA032243F2AC23C2F25C
:1043100001031A6043F2AC23C2F201031B6803F4E9
:10432000E06243F2AC23C2F201031A60BB68DAB266
:10433000FB681A704EF62053CEF200034EF6205260
:10434000CEF20002126842F470021A604EF6205358
:10435000CEF200034EF62052CEF20002126842F076
:1043600070421A6000F0BAF840F23403C2F200035F
:104370004FF000021A6000F0C7F84EF63473CEF228
:1043800000034EF63472CEF20002126842F0404250
:104390001A60FFF767FFFFF745FF4FF0000318466D
:1043A00007F11007BD4680BD80B400AF4EF6045340
:1043B000CEF200034FF080521A60BFF34F8FBFF36D
:1043C0006F8FBD4680BC704780B500AF00F036F8F7
:1043D00040F23403C2F200031B6803F1010240F211
:1043E0003403C2F200031A60BFF34F8FBFF36F8F25
:1043F00080BD00BF80B500AF40F23403C2F20003BD
:104400001B68002B02D100F019F8FEE740F23403DC
:10441000C2F200031B6803F1FF3240F23403C2F220
:1044200000031A6040F23403C2F200031B68002B41
:1044300003D14FF0000000F00BF880BDEFF31180C6
:104440004FF0500181F3118870474FF00003184678
:1044500080F31188704700BFEFF30980BFF36F8FBF
:10446000124B1A681EF0100F08BF20ED108A20E9C9
:10447000F04F10604DF8043D4FF0500080F311886C
:10448000FFF744F84FF0000080F3118808BC19686A
:104490000868B0E8F04F1EF0100F08BFB0EC108AAB
:1044A00080F30988BFF36F8F704700BF4831012048
:1044B00080B500AFFFF7C2FFFEF728FF0346002BD1
:1044C00006D04EF60453CEF200034FF080521A602D
:1044D0004FF00000FFF7BCFF80BD00BF80B400AF0D
:1044E0004EF21403CEF2000349F23F02C0F2020280
:1044F0001A604EF21003CEF200034FF007021A606A
:10450000BD4680BC704700BFDFF80C00016841F475
:10451000700101607047000088ED00E090B583B045
:1045200000AFEFF305847C607B680F2B13D948F64E
:104530008C13C0F600031A687B68D3181B78FB70D5
:1045400043F2A823C2F201031B78FA789A4202D2FE
:10455000FFF774FFFEE74EF60C53CEF200031B6824
:1045600003F4E06243F2AC23C2F201031B689A42F7
:1045700002D9FFF763FFFEE707F10C07BD4690BDC8
:1045800080B584B000AF786039607B68FB60FB6801
:10459000002B02D1FFF752FFFEE7FFF715FFFB6884
:1045A0001A68FB68DB6BF968096C01FB03F3D2182E
:1045B000FB685A60FB684FF000029A63FB681A6858
:1045C000FB689A60FB681A68FB68DB6B03F1FF33DA
:1045D000F968096C01FB03F3D218FB68DA60FB6829
:1045E0004FF0FF325A64FB684FF0FF329A643B6829
:1045F000002B0FD1FB681B69002B17D0FB6803F160
:1046000010031846FFF766F80346012B0ED1FFF79B
:10461000CBFE0BE0FB6803F110031846FFF710FD1B
:10462000FB6803F124031846FFF70AFDFFF7E2FEDB
:104630004FF00103184607F11007BD4680BD00BFCB
:1046400080B588B000AFF860B9601346FB714FF0D9
:104650000003FB61FB68002B2DD04FF05400FBF7EB
:1046600093FDB861BB69002B25D0FB68BA6802FBDB
:1046700003F303F101037B617869FBF785FD0246D3
:10468000BB691A60BB691B68002B11D0BB69FA6853
:10469000DA63BB69BA681A64B8694FF00101FFF7C1
:1046A0006FFFBB69FA7983F85020BB69FB6102E0B8
:1046B000B869FBF72DFEFB69002B02D1FFF7BEFEA8
:1046C000FEE7FB69184607F12007BD4680BD00BF25
:1046D00080B588B000AFF860B9607A603B604FF099
:1046E0000003FB61FB68BB61BB69002B02D1FFF7D4
:1046F000A5FEFEE7BB68002B03D1BB691B6C002B3A
:1047000002D14FF0010301E04FF00003002B02D172
:10471000FFF794FEFEE73B68022B03D1BB69DB6B1E
:10472000012B02D14FF0010301E04FF00003002BF9
:1047300002D1FFF783FEFEE7FFF788FA0346002B5E
:1047400002D17B68002B02D14FF0010301E04FF052
:104750000003002B03D1FFF771FEFEE700BFFFF758
:1047600033FEBB699A6BBB69DB6B9A4202D33B6831
:10477000022B18D1B869B9683A6800F0D9F9BB6959
:104780005B6A002B0AD0BB6903F124031846FEF7CD
:10479000A1FF0346012B01D1FFF706FEFFF72AFE1A
:1047A0004FF001035DE07B68002B04D1FFF722FE90
:1047B0004FF0000355E0FB69002B07D107F1100310
:1047C0001846FEF7F5FF4FF00103FB61FFF712FEFD
:1047D000FEF7BCFCFFF7F8FDBB695B6CB3F1FF3F74
:1047E00003D1BB694FF000025A64BB699B6CB3F103
:1047F000FF3F03D1BB694FF000029A64FFF7FAFD57
:1048000007F1100207F1040310461946FEF7ECFF0A
:104810000346002B1ED1B86900F08AFA0346002B2C
:1048200012D0BB6903F110027B6810461946FEF7EF
:10483000DFFEB86900F012FAFEF79AFC0346002B7F
:104840008CD1FFF7B1FD89E7B86900F007FAFEF7F0
:104850008FFC83E7B86900F001FAFEF789FC4FF09E
:104860000003184607F12007BD4680BD80B588B01B
:1048700000AFF860B9607A603B60FB68BB61BB6900
:10488000002B02D1FFF7DAFDFEE7BB68002B03D156
:10489000BB691B6C002B02D14FF0010301E04FF00C
:1048A0000003002B02D1FFF7C9FDFEE73B68022B96
:1048B00003D1BB69DB6B012B02D14FF0010301E097
:1048C0004FF00003002B02D1FFF7B8FDFEE7FFF722
:1048D00025FEFFF7B3FD7861BB699A6BBB69DB6BA3
:1048E0009A4202D33B68022B28D1B869B9683A686A
:1048F00000F01EF9BB699B6CB3F1FF3F14D1BB699B
:104900005B6A002B16D0BB6903F124031846FEF73F
:10491000E1FE0346002B0DD07B68002B0AD07B689C
:104920004FF001021A6005E0BB699B6C03F10102C4
:10493000BB699A644FF00103FB6102E04FF0000392
:10494000FB617869FFF784FDFB69184607F12007D2
:10495000BD4680BD80B58AB000AFF860B9607A60AE
:104960003B604FF000037B62FB683B623B6A002BBD
:1049700002D1FFF763FDFEE7BB68002B03D13B6A62
:104980001B6C002B02D14FF0010301E04FF000033C
:10499000002B02D1FFF752FDFEE7FFF757F9034660
:1049A000002B02D17B68002B02D14FF0010301E004
:1049B0004FF00003002B03D1FFF740FDFEE700BFDF
:1049C000FFF702FD3B6A9B6B002B3FD03B6ADB6825
:1049D000FB61386AB96800F019F93B68002B1ED1F9
:1049E0003B6A9B6B03F1FF323B6A9A633B6A1B682D
:1049F000002B04D1FFF71AF902463B6A5A603B6A62
:104A00001B69002B1DD03B6A03F110031846FEF70B
:104A100061FE0346012B14D1FFF7C6FC11E03B6A8F
:104A2000FA69DA603B6A5B6A002B0AD03B6A03F1E1
:104A300024031846FEF74EFE0346002B01D0FFF775
:104A4000B3FCFFF7D7FC4FF001036BE07B68002B52
:104A500004D1FFF7CFFC4FF0000363E07B6A002B2B
:104A600007D107F114031846FEF7A2FE4FF0010329
:104A70007B62FFF7BFFCFEF769FBFFF7A5FC3B6A13
:104A80005B6CB3F1FF3F03D13B6A4FF000025A6405
:104A90003B6A9B6CB3F1FF3F03D13B6A4FF00002CE
:104AA0009A64FFF7A7FC07F1140207F1040310460C
:104AB0001946FEF799FE0346002B2CD1386A00F008
:104AC0001DF90346002B20D03B6A1B68002B08D140
:104AD000FFF77AFC3B6A5B681846FFF7DBF8FFF7E5
:104AE00089FC3B6A03F124027B6810461946FEF7F5
:104AF0007FFD386A00F0B2F8FEF73AFB0346002B60
:104B00007FF45DAFFFF750FC59E7386A00F0A6F874
:104B1000FEF72EFB53E7386A00F0A0F8FEF728FBFB
:104B20004FF00003184607F12807BD4680BD00BFBF
:104B300080B584B000AFF860B9607A60FB681B6C28
:104B4000002B0DD1FB681B68002B55D1FB685B68FF
:104B50001846FFF717F9FB684FF000025A604BE068
:104B60007B68002B1AD1FB689A68FB681B6C1046A7
:104B7000B9681A4603F0AEFDFB689A68FB681B6CC7
:104B8000D218FB689A60FB689A68FB685B689A4277
:104B900032D3FB681A68FB689A602DE0FB68DA681C
:104BA000FB681B6C1046B9681A4603F093FDFB685E
:104BB000DA68FB681B6CC3F10003D218FB68DA608B
:104BC000FB68DA68FB681B689A4208D2FB685A687F
:104BD000FB681B6CC3F10003D218FB68DA607B68CA
:104BE000022B09D1FB689B6B002B05D0FB689B6BEC
:104BF00003F1FF32FB689A63FB689B6B03F10102D0
:104C0000FB689A6307F11007BD4680BD80B582B08E
:104C100000AF786039607B681B68002B19D07B6817
:104C2000DA687B681B6CD2187B68DA607B68DA68AC
:104C30007B685B689A4203D37B681A687B68DA609A
:104C40007B68DA687B681B6C386811461A4603F08B
:104C500041FD07F10807BD4680BD00BF80B582B0A9
:104C600000AF7860FFF7B0FB14E07B685B6A002B55
:104C700015D07B6803F124031846FEF72BFD03468D
:104C8000002B01D0FEF708FE7B689B6C03F1FF321E
:104C90007B689A647B689B6C002BE6DC00E000BFBD
:104CA0007B684FF0FF329A64FFF7A4FBFFF78CFBA1
:104CB00014E07B681B69002B15D07B6803F110039F
:104CC0001846FEF707FD0346002B01D0FEF7E4FD72
:104CD0007B685B6C03F1FF327B685A647B685B6CBA
:104CE000002BE6DC00E000BF7B684FF0FF325A6427
:104CF000FFF780FB07F10807BD4680BD80B584B093
:104D000000AF7860FFF760FB7B689B6B002B03D1E3
:104D10004FF00103FB6002E04FF00003FB60FFF780
:104D200069FBFB68184607F11007BD4680BD00BF50
:104D300080B584B000AF7860FFF746FB7B689A6B64
:104D40007B68DB6B9A4203D14FF00103FB6002E00A
:104D50004FF00003FB60FFF74DFBFB68184607F1BF
:104D60001007BD4680BD00BF80B485B000AF78603D
:104D700039604FF00003FB601FE043F2C823C2F22A
:104D80000103FA6853F83230002B12D143F2C823E2
:104D9000C2F20103FA68396843F8321043F2C822BC
:104DA000C2F20102FB684FEAC303D3187A685A6063
:104DB00006E0FB6803F10103FB60FB68072BDCD90D
:104DC00007F11407BD4680BC704700BF80B584B0B2
:104DD00000AF786039607B68FB60FFF7F5FAFB682D
:104DE0005B6CB3F1FF3F03D1FB684FF000025A64E4
:104DF000FB689B6CB3F1FF3F03D1FB684FF00002EF
:104E00009A64FFF7F7FAFB689B6B002B06D1FB68EF
:104E100003F1240318463968FEF72CFCF868FFF705
:104E20001DFF07F11007BD4680BD00BF80B582B0F1
:104E300000AF78607B689BB21846FCF787F907F1F2
:104E40000807BD4680BD00BF80B582B000AF0346F5
:104E5000FB80FA8844F6D353C1F26203A3FB02132A
:104E60004FEA93139BB203F00F0248F69013C0F67B
:104E700000039B5C184600F063F9FA8844F6D353AC
:104E8000C1F26203A3FB02134FEA93134FF47A714A
:104E900001FB03F3D31A9AB248F21F53C5F2EB1386
:104EA000A3FB02134FEA53139BB203F00F0248F621
:104EB0009013C0F600039B5C184600F041F9FA8895
:104EC00044F6D353C1F26203A3FB02134FEA9313D8
:104ED0004FF47A7101FB03F3D31A9AB248F21F53CD
:104EE000C5F2EB13A3FB02134FEA53134FF0640117
:104EF00001FB03F3D31A9AB24CF6CD43CCF6CC4364
:104F0000A3FB02134FEAD3039BB203F00F0248F650
:104F10009013C0F600039B5C184600F011F9FA8864
:104F200044F6D353C1F26203A3FB02134FEA931377
:104F30004FF47A7101FB03F3D31A9AB248F21F536C
:104F4000C5F2EB13A3FB02134FEA53134FF06401B6
:104F500001FB03F3D31A9AB24CF6CD43CCF6CC4303
:104F6000A3FB02134FEAD3010B464FEA83035B18FE
:104F70004FEA4303D31A9BB203F00F0248F6901393
:104F8000C0F600039B5C184600F0DAF807F108074A
:104F9000BD4680BD80B582B000AF0346FB71FA7993
:104FA00048F21F53C5F2EB13A3FB02134FEA53134E
:104FB0004FF0640101FB03F3D31ADAB24CF6CD4390
:104FC000CCF6CC43A3FB02134FEAD303DBB203F0CE
:104FD0000F0248F69013C0F600039B5C184600F0E1
:104FE000AFF8FA7948F21F53C5F2EB13A3FB021393
:104FF0004FEA53134FF0640101FB03F3D31ADAB203
:105000004CF6CD43CCF6CC43A3FB02134FEAD301BD
:105010000B464FEA83035B184FEA4303D31ADBB214
:1050200003F00F0248F69013C0F600039B5C18468D
:1050300000F086F807F10807BD4680BDB0B586B020
:1050400000AF87ED040BF860B9607A60D7E904011E
:105050004FF000024FF0000303F0C6FA0346002BA6
:1050600028D0F868B96800F04FF9786800F0ECF8DB
:10507000BB6803F10203F868194600F045F948F6E9
:10508000A410C0F6000000F0DFF8BB6803F10303D2
:10509000F868194600F038F93C697B6983F00045EF
:1050A0002046294603F0F0FA0346DBB21846FFF724
:1050B00071FF23E0F868B96800F026F9786800F01D
:1050C000C3F8BB6803F10203F868194600F01CF945
:1050D00048F6A810C0F6000000F0B6F8BB6803F16F
:1050E0000303F868194600F00FF9D7E9040103F04B
:1050F000CBFA0346DBB21846FFF74CFF07F118075F
:10510000BD46B0BD80B582B000AF4FF004004FF097
:105110000101FDF7DBFA4FF001033B7140F2FF3371
:105120003B604FF00003BB713B464FF40060C4F29C
:1051300002001946FEF772FE07F10807BD4680BD62
:1051400080B582B000AF0346FB80FB884FF400605F
:10515000C4F202001946FEF703FF4FF40060C4F2E8
:1051600002004FF48071FEF7FBFE4FF00100FFF7E5
:105170005DFE4FF40060C4F202004FF48071FEF750
:10518000FDFEFB884FF40060C4F202001946FEF7F2
:10519000F5FE4FF00100FFF749FE07F10807BD4695
:1051A00080BD00BF80B500AFFFF7ACFF4FF0280017
:1051B000FFF73CFE4FF40060C4F202004FF40071B0
:1051C000FEF7DCFE4FF40060C4F202004FF0300145
:1051D000FEF7C6FE4FF00500FFF728FE4FF4006013
:1051E000C4F202004FF03001FEF7BAFE4FF00100AA
:1051F000FFF71CFE4FF40060C4F202004FF03001D4
:10520000FEF7AEFE4FF00100FFF710FE4FF0380042
:10521000FFF796FF4FF00C00FFF792FF4FF00100F1
:10522000FFF78EFF4FF00600FFF78AFF4FF00200F6
:10523000FFF786FF4FF40060C4F202004FF40071E4
:10524000FEF78EFE80BD00BF80B582B000AF7860F3
:105250007B681B781846FFF773FF7B6803F1010337
:105260007B607B681B78002BF2D107F10807BD46F5
:1052700080BD00BF80B582B000AF0346FB804FF415
:105280000060C4F202004FF48071FEF777FE4FF425
:105290000060C4F202004FF40071FEF76FFE4FF49D
:1052A0000060C4F202004FF48071FEF759FEFB88E3
:1052B0004FF40060C4F202001946FEF751FE4FF0B1
:1052C0000100FFF7B3FD4FF40060C4F202004FF499
:1052D0008071FEF753FEFB884FF40060C4F20200B9
:1052E0001946FEF74BFE4FF00100FFF79FFD4FF40C
:1052F0000060C4F202004FF40071FEF731FE07F1C6
:105300000807BD4680BD00BF80B582B000AF7860A1
:1053100039603B6843F080033B607B68012B03D11D
:105320003B6803F140033B603B689BB21846FFF7C4
:10533000A1FF07F10807BD4680BD00BF80B485B05E
:1053400000AF786039604FF00003FB817B681B88F9
:10535000FB81FB8903F44153FB813B681A883B685E
:105360005B8813439AB23B689B8813439AB23B68AD
:10537000DB8813439AB23B681B8913439AB23B689C
:105380005B8913439AB23B689B8913439AB23B688B
:10539000DB8913439AB2FB891343FB817B68FA894B
:1053A0001A807B689B8B9BB223F400639AB27B6864
:1053B0009A833B681A8A7B681A8207F11407BD46F4
:1053C00080BC704780B483B000AF78600B46FB7040
:1053D000FB78002B08D07B681B889BB243F040030E
:1053E0009AB27B681A8007E07B681B889BB223F027
:1053F00040039AB27B681A8007F10C07BD4680BC57
:10540000704700BF80B483B000AF78600B46FB707C
:10541000FB78002B08D07B689B889BB243F0040389
:105420009AB27B689A8007E07B689B889BB223F0E6
:1054300004039AB27B689A8007F10C07BD4680BCD2
:10544000704700BF80B483B000AF78607B689B89F1
:105450009BB2184607F10C07BD4680BC704700BFE1
:1054600080B483B000AF78600B467B807B687A881D
:105470009A8107F10C07BD4680BC704780B483B0A9
:1054800000AF78600B46FB70FB78002B08D07B6880
:105490001B889BB243F400539AB27B681A8007E0E2
:1054A0007B681B889BB223F400539AB27B681A80F6
:1054B00007F10C07BD4680BC704700BF80B485B0C3
:1054C00000AF78600B467B804FF00003FB737B6876
:1054D0001B899AB27B8813409BB2002B03D04FF0FC
:1054E0000103FB7302E04FF00003FB73FB7B1846E4
:1054F00007F11407BD4680BC704700BF80B582B07D
:1055000000AF78607A684FF4A843C4F200039A426F
:105510000CD14FF400104FF00101FDF755F94FF495
:1055200000104FF00001FDF74FF926E07A684FF4C4
:10553000B043C4F200039A420CD14FF480004FF004
:105540000101FDF741F94FF480004FF00001FDF734
:105550003BF912E07A684FF4B843C4F200039A4270
:105560000BD14FF400004FF00101FDF72DF94FF47E
:1055700000004FF00001FDF727F907F10807BD46CD
:1055800080BD00BF80B58AB000AF786039604FF051
:105590000003FB844FF000037B844FF00403BB84C3
:1055A0004FF49053C0F27A03FB617B689B88FB84C5
:1055B000FB8C23F03F03FB8407F10C031846FCF738
:1055C0009FFF7B69FB61FA694DF68363C4F21B336D
:1055D000A3FB02134FEA93437B84FA8C7B8C134327
:1055E000FB847B68FA8C9A807B681B889BB223F0D3
:1055F00001039AB27B681A804FF00003FB843B687A
:105600001A6848F2A063C0F201039A4218D83B68B6
:105610001B684FEA4303FA69B2FBF3F3BB84BB8C0C
:10562000032B02D84FF00403BB84FA8CBB8C1343CA
:10563000FB847B8C03F101039AB27B681A844BE0F4
:105640003B68DA884BF6FF739A420AD13B681A68C6
:1056500013464FEA43039B18FA69B2FBF3F3BB848A
:1056600010E03B681A6813464FEA83039B184FEA21
:1056700083029B18FA69B2FBF3F3BB84BB8C43F43F
:105680008043BB84BB8C4FEA03534FEA1353002B78
:1056900003D1BB8C43F00103BB84BA8CFB8C134356
:1056A0009BB26FEA43436FEA5343FB847B8C4FF416
:1056B000967202FB03F244F6D353C1F2620383FBFA
:1056C00002134FEAA3114FEAE273CB1A9BB203F124
:1056D00001039AB27B681A847B68FA8C9A837B6890
:1056E0001B889BB243F001039AB27B681A807B68E7
:1056F0001B88FB84FB8C23F4816323F00203FB846F
:105700003B689A883B685B8913439AB2FB8C1343CE
:10571000FB847B68FA8C1A803B689A893B681B89FA
:1057200013439AB27B681A8107F12807BD4680BDF2
:1057300080B483B000AF78600B46FB70FB78002B21
:1057400008D07B681B889BB243F001039AB27B6848
:105750001A8007E07B681B889BB223F001039AB292
:105760007B681A8007F10C07BD4680BC704700BFFC
:1057700080B483B000AF78600B46FB70FB78002BE1
:1057800008D07B681B889BB243F480739AB27B6815
:105790001A8007E07B681B889BB223F480739AB25F
:1057A0007B681A8007F10C07BD4680BC704700BFBC
:1057B00080B483B000AF78600B46FB70FB78002BA1
:1057C00008D07B681B889BB243F400739AB27B6855
:1057D0001A8007E07B681B889BB223F400739AB29F
:1057E0007B681A8007F10C07BD4680BC704700BF7C
:1057F00080B483B000AF786013460A46FA70BB707D
:10580000BB78002B04D0FB7843F00103FB7003E06E
:10581000FB7823F00103FB70FB789AB27B681A8255
:1058200007F10C07BD4680BC704700BF80B483B051
:1058300000AF78600B46FB70FB78002B08D07B68CC
:105840001B889BB243F480639AB27B681A8007E09E
:105850007B681B889BB223F480639AB27B681A80B2
:1058600007F10C07BD4680BC704700BF80B483B011
:1058700000AF78600B46FB70FB789AB27B681A82A7
:1058800007F10C07BD4680BC704700BF80B483B0F1
:1058900000AF78607B681B8A9BB2DBB2184607F1C9
:1058A0000C07BD4680BC704780B487B000AF7860FD
:1058B00039604FF000033B614FF00003FB604FF095
:1058C0000003BB604FF00003FB757B689B8A9BB2B3
:1058D000FB607B681B8B9BB2BB60BB684FEA0343DA
:1058E000BB60FA68BB68134323F07F433B613A69AE
:1058F0003B681A403B689A4203D14FF00103FB75A5
:1059000002E04FF00003FB75FB7D184607F11C0712
:10591000BD4680BC704700BF80B487B000AF7860E0
:1059200039604FF00003FB754FF000033B614FF00F
:105930000003FB607B68FB603B684FEA13733B61CD
:105940003B6823F07F433B603B69002B04D0FB683E
:1059500003F11403FB6007E03B684FEA13433B602D
:10596000FB6803F11803FB60FB681A683B6813408F
:10597000002B03D04FF00103FB7502E04FF0000352
:10598000FB75FB7D184607F11C07BD4680BC7047C0
:1059900080B500AF4FF0010000F032F84FF000008A
:1059A00000F044F84FF0000000F056F84FF000000F
:1059B00000F068F880BD00BF80B500AF00F00AF8C5
:1059C0000346342B02D14FF0010301E04FF00003F6
:1059D000184680BD80B584B002AF07F1070300937D
:1059E0004FF0D0004FF075014FF006024FF0060364
:1059F00000F056F9FB79184607F10807BD4680BD4F
:105A000080B584B002AF0346FB71FB7900934FF081
:105A1000D0004FF06B014FF002024FF0030300F093
:105A2000B7F807F10807BD4680BD00BF80B584B058
:105A300002AF0346FB71FB7900934FF0D0004FF0AB
:105A40001B014FF004024FF0020300F0A1F807F130
:105A50000807BD4680BD00BF80B584B002AF0346D5
:105A6000FB71FB7900934FF0D0004FF01C014FF019
:105A700004024FF0020300F08BF807F10807BD465F
:105A800080BD00BF80B582B000AF0346FB71FB79DB
:105A90004FF0D0004FF06B014FF0060200F0C2F85B
:105AA00007F10807BD4680BD80B588B000AF7860BB
:105AB00007F10C034FF0D00019464FF03B024FF0B6
:105AC0000E0300F0FFF94FF00003FB6121E0FB69DA
:105AD0004FEA43037A68D318FA694FEA420207F1A2
