:020000040800F2
:10000000583601209507000811080008110800085B
:10001000110800081108000811080008000000007D
:10002000000000000000000000000000512E000849
:10003000110800080000000065300008BD3000080D
:10004000110800081108000811080008110800082C
:10005000110800081108000811080008110800081C
:10006000110800081108000811080008110800080C
:1000700011080008110800081108000811080008FC
:1000800011080008110800081108000811080008EC
:1000900011080008110800081108000811080008DC
:1000A00011080008110800081108000811080008CC
:1000B00011080008110800081108000811080008BC
:1000C00011080008110800081108000811080008AC
:1000D000110800081108000811080008110800089C
:1000E000110800081108000811080008110800088C
:1000F000110800081108000811080008110800087C
:10010000110800081108000811080008110800086B
:10011000110800081108000811080008110800085B
:10012000110800081108000811080008110800084B
:10013000110800081108000811080008110800083B
:10014000110800081108000811080008110800082B
:10015000110800081108000811080008110800081B
:10016000110800081108000811080008110800080B
:1001700011080008110800081108000811080008FB
:10018000110800081108000880B586B000AF78603B
:100190004FF00003FB6001F0DFFD42F63043C2F296
:1001A00001031B68002B01D100F00EF942F6344325
:1001B000C2F201031A687B681340002B40F09F8055
:1001C0007B68002B12D044F67C03C0F600031B882A
:1001D0007A68D3187B607B6803F00703002B05D097
:1001E0007B6823F0070303F108037B607B68002B27
:1001F00000F0858040F20003C2F200031B687A68B9
:100200009A427CD842F62843C2F201033B6142F68F
:100210002843C2F201031B687B6104E07B693B61F8
:100220007B691B687B617B695A687B689A4203D251
:100230007B691B68002BF1D142F63043C2F2010307
:100240001B687A699A425AD03B691A6844F67C0363
:10025000C0F600031B88D318FB607B691A683B69F2
:100260001A607B695A687B68D21A44F67C03C0F630
:1002700000031B884FEA43039A420FD97A697B68CF
:10028000D318BB607B695A687B68D21ABB685A6016
:100290007B697A685A60B86800F012F940F200038E
:1002A000C2F200031A687B695B68D21A40F200034D
:1002B000C2F200031A6040F20003C2F200031A689F
:1002C00040F20403C2F200031B689A4209D240F2D2
:1002D0000003C2F200031A6840F20403C2F20003F2
:1002E0001A607B695A6842F63443C2F201031B6804
:1002F0001A437B695A607B694FF000021A6001F073
:100300003DFDFB68184607F11807BD4680BD00BFDC
:1003100080B584B000AF78607B68FB607B68002BA1
:100320004DD044F67C03C0F600031B88C3F10003E4
:10033000FA68D318FB60FB68BB60BB685A6842F67A
:100340003443C2F201031B681340002B02D102F0B8
:100350007BFEFEE7BB681B68002B02D002F074FE38
:10036000FEE7BB685A6842F63443C2F201031B68D9
:100370001340002B23D0BB681B68002B1FD1BB6828
:100380005A6842F63443C2F201031B686FEA030362
:100390001A40BB685A6001F0DFFCBB685A6840F243
:1003A0000003C2F200031B68D21840F20003C2F23D
:1003B00000031A60B86800F083F801F0DFFC07F171
:1003C0001007BD4680BD00BF80B584B000AF3B4B79
:1003D00023F00703FB6042F62843C2F20103FA68E8
:1003E0001A6042F62843C2F201034FF000025A603D
:1003F00044F68003C0F600031B68FA68D318BB609C
:1004000044F67C03C0F600031B88C3F10003BA68FE
:10041000D318BB6042F63043C2F20103BA681A60D7
:1004200042F63043C2F201031B6803F00703002BBE
:1004300002D002F009FEFEE742F63043C2F20103A9
:100440001B684FF000025A6042F63043C2F20103CB
:100450001B684FF000021A60FB687B6044F6800363
:10046000C0F600031A6844F67C03C0F600031B883C
:10047000D21A7B685A6042F63043C2F201031A680E
:100480007B681A6040F20003C2F200031A6844F667
:100490007C03C0F600031B88D21A40F20003C2F2AC
:1004A00000031A6042F63443C2F201034FF00042E7
:1004B0001A6007F11007BD4680BD00BF3000002064
:1004C00080B485B000AF786042F62843C2F20103E1
:1004D000FB6002E0FB681B68FB60FB681A687B68D6
:1004E0009A42F7D3FB68BB60FB685B68BA68D218B6
:1004F0007B689A4208D1FB685A687B685B68D218AF
:10050000FB685A60FB687B607B68BB607B685B68EC
:10051000BA68D218FB681B689A421ED1FB681A6839
:1005200042F63043C2F201031B689A420DD07B6849
:100530005A68FB681B685B68D2187B685A60FB6866
:100540001B681A687B681A600BE042F63043C2F2FF
:1005500001031A687B681A6003E0FB681A687B680D
:100560001A60FA687B689A4202D0FB687A681A605F
:1005700007F11407BD4680BC704700BF80B584B04A
:1005800000AF4FF004004FF0010100F0F9FE4FF012
:100590009F03BB804FF00003FB804FF4FA63BB6006
:1005A0004FF00003BB814FF00003BB7307F104035E
:1005B0004FF40060C4F20000194603F003FD4FF44D
:1005C0000060C4F200004FF0010103F075FD07F177
:1005D0001007BD4680BD00BF80B588B000AF0346A0
:1005E000FB804FF06003BB81FB887B614FF0010310
:1005F000FB814FF000033B8307F10C034FF40060D5
:10060000C4F20000194603F077FD4FF40060C4F215
:1006100000004FF0080103F081FF4FF48060C4F246
:1006200002004FF006014FF0020202F0BBFA07F1A0
:100630002007BD4680BD00BF80B588B000AF03462F
:10064000FB804FF06003BB81FB887B614FF00103AF
:10065000FB814FF000033B8307F10C034FF4006074
:10066000C4F20000194603F0C5FD4FF40060C4F267
:1006700000004FF0080103F06DFF4FF48060C4F2FA
:1006800002004FF007014FF0020202F08BFA07F16F
:100690002007BD4680BD00BF80B588B000AF0346CF
:1006A000FB804FF06003BB81FB887B614FF001034F
:1006B000FB814FF000033B8307F10C034FF4006014
:1006C000C4F20000194603F029FE4FF40060C4F2A2
:1006D00000004FF0080103F05DFF4FF48060C4F2AA
:1006E00002004FF008014FF0020202F05BFA07F13E
:1006F0002007BD4680BD00BF80B588B000AF03466F
:10070000FB804FF06003BB81FB887B614FF00103EE
:10071000FB814FF000033B8307F10C034FF40060B3
:10072000C4F20000194603F089FE4FF40060C4F2E1
:1007300000004FF0080103F049FF4FF48060C4F25D
:1007400002004FF009014FF0020202F02BFA07F10C
:100750002007BD4680BD00BF80B582B000AF4FF01E
:1007600002004FF0010100F0E1FD4FF470733B60B7
:100770004FF002033B714FF002037B713B464FF495
:100780008060C4F20200194602F04EF907F1080732
:10079000BD4680BD80B582B000AF44F6E003C0F630
:1007A00000037B6040F20003C2F200033B600BE0F9
:1007B0007B681A683B681A603B6803F104033B607E
:1007C0007B6803F104037B603A6840F22803C2F2BD
:1007D00000039A42ECD30B480B494FF000028842C9
:1007E000B8BF40F8042BFFF6FAAFDFF8200001682D
:1007F00041F47001016000F045FD07F10807BD46B6
:1008000080BD000028000020542E012088ED00E06B
:1008100080B400AFFEE700BF80B500AF00F0B0F9D4
:100820004FF020004FF0390100F0DAF84FF00200ED
:1008300000F08AFA4FF023004FF0030100F0D0F8E7
:100840004FF0020000F080FA4FF025004FF0020157
:1008500000F0C6F84FF0020000F076FA4FF02600E4
:100860004FF0070100F0BCF84FF0020000F06CFA06
:100870004FF031004FF0010100F0B2F84FF00200EC
:1008800000F062FA4FF022004FF0010100F0A8F8EA
:100890004FF0020000F058FA4FF0300040F208012B
:1008A000C2F200014FF0050200F0ECF84FF0020038
:1008B00000F04AFA4FF02A0040F21001C2F20001A3
:1008C0004FF0050200F0DEF84FF0020000F03CFAB5
:1008D0004FF021004FF0000100F082F84FF00200CD
:1008E00000F032FA4FF020004FF0330100F078F8BA
:1008F0004FF0020000F028FA00F04EF94FF0C80067
:1009000000F022FA80BD00BF80B584B000AF7860EF
:100910004FF00003FB734FF0070000F043F803466D
:10092000BB7300F02DF94FF0020000F00DFABB7B15
:1009300003F04003002B09D04FF0610079684FF0BD
:10094000200200F06DF84FF00103FB734FF002003E
:1009500000F0FAF94FF027004FF0400100F040F8A6
:100960004FF0020000F0F0F900F0FEF84FF0E20066
:1009700000F0BAF800F0ECF84FF0020000F0E4F9F3
:100980004FF020004FF0330100F02AF800F004F996
:100990004FF0C80000F0D8F9FB7B184607F11007AC
:1009A000BD4680BD80B584B000AF0346FB7100F04A
:1009B000DBF84FF0020000F0C7F9FB79184600F0B1
:1009C00093F84FF0000000F08FF80346FB7300F03F
:1009D000BFF8FB7B184607F11007BD4680BD00BF7E
:1009E00080B584B000AF02460B46FA71BB7100F0CF
:1009F000BBF84FF0020000F0A7F9FB79184600F0B1
:100A000073F80346FB73BB79184600F06DF800F0ED
:100A10009FF8FB7B184607F11007BD4680BD00BF5D
:100A200090B585B000AF396013460246FA71BB71CC
:100A300000F09AF84FF0020000F086F9FB791846B2
:100A400000F052F80346BB604FF00003FB600CE07F
:100A50003A68FB68D4184FF0000000F045F80346F0
:100A60002370FB6803F10103FB60BA79FB689A42CB
:100A7000EED800F06DF8BB68DBB2184607F114073A
:100A8000BD4690BD80B584B000AF396013460246C4
:100A9000FA71BB7100F068F84FF0020000F054F9F1
:100AA000FB79184600F020F80346BB604FF00003C6
:100AB000FB600CE03B681B78184600F015F83B68BB
:100AC00003F101033B60FB6803F10103FB60BA79AA
:100AD000FB689A42EED800F03BF8BB68DBB21846E0
:100AE00007F11007BD4680BD80B582B000AF034658
:100AF000FB7100BF4FF44050C4F201004FF00201FF
:100B000003F040FA0346002BF4D0FB799BB24FF47C
:100B10004050C4F20100194603F006FA00BF4FF43A
:100B20004050C4F201004FF0010103F02BFA0346DC
:100B3000002BF4D04FF44050C4F2010003F0E6F96A
:100B40000346DBB2184607F10807BD4680BD00BF6B
:100B500080B500AF4FF00000C4F202004FF010016A
:100B600002F004F880BD00BF80B500AF4FF0000078
:100B7000C4F202004FF0100102F006F880BD00BF81
:100B800080B500AF4FF00000C4F202004FF0080142
:100B900001F0FAFF80BD00BF80B500AF4FF000004C
:100BA000C4F202004FF0080101F0E0FF80BD00BF79
:100BB00080B588B000AF4FF001004FF0010100F0A8
:100BC000B5FB4FF480504FF0010100F003FC4FF0F3
:100BD0000000C4F202004FF004014FF0050201F0E2
:100BE000E1FF4FF00000C4F202004FF005014FF0AA
:100BF000050201F0D7FF4FF00000C4F202004FF0F1
:100C000007014FF0050201F0CDFF4FF00000C4F2E4
:100C100002004FF006014FF0050201F0C3FF4FF054
:100C2000E0037B604FF002033B724FF002037B72E4
:100C30004FF00003BB724FF00203FB7207F1040395
:100C40004FF00000C4F20200194601F0EDFE4FF033
:100C500001004FF0010100F069FB4FF44050C4F275
:100C600001004FF0010103F031F94FF018037B60F0
:100C70004FF001033B724FF002037B724FF0000311
:100C8000BB724FF00103FB7207F104034FF0000049
:100C9000C4F20200194601F0C7FE4FF001004FF008
:100CA000010100F043FB4FF004037B604FF00003B1
:100CB0003B724FF002037B724FF00003BB724FF0A8
:100CC0000103FB7207F104034FF00000C4F20200BD
:100CD000194601F0A9FE4FF00003BB814FF4827367
:100CE000FB814FF000033B824FF000037B824FF00B
:100CF0000003BB824FF40073FB824FF038033B8349
:100D00004FF000037B834FF00703BB8307F10C0315
:100D10004FF44050C4F20100194603F073F84FF449
:100D20004050C4F201004FF0000103F00BF94FF402
:100D30004050C4F201004FF0010103F0A7F807F1A1
:100D40002007BD4680BD00BF80B582B000AF78608F
:100D50004FF0010000F004F807F10807BD4680BD20
:100D600080B584B000AF0346FB80FB88FB6001F0D8
:100D7000BFF80346BB6007F108031846F96800F0A6
:100D80003FFF07F11007BD4680BD00BF80B582B0B0
:100D900000AF7860FFF7E0FCFFF7F0FB40F21803CC
:100DA000C2F200031B889BB21846FFF715FC40F205
:100DB0001A03C2F200031B889BB21846FFF73CFCE3
:100DC00040F21C03C2F200031B889BB21846FFF7D7
:100DD00063FC40F21E03C2F200031B889BB218465C
:100DE000FFF78AFC00E000BF42F6B343C2F2010302
:100DF0001B78DBB2002B1DD040F21803C2F20003B7
:100E00001B889BB203F101039AB240F21803C2F2AD
:100E100000031A8040F21803C2F200031B889BB241
:100E20001846FFF7D9FB42F6B343C2F201034FF075
:100E300000021A7042F6B443C2F201031B78DBB21F
:100E4000002B1ED040F21A03C2F200031B889BB293
:100E500003F101039AB240F21A03C2F200031A80AE
:100E600040F21A03C2F200031B889BB21846FFF738
:100E7000E3FB42F6B443C2F201034FF000021A70E2
:100E8000B1E742F6B543C2F201031B78DBB2002B97
:100E90001ED040F21C03C2F200031B889BB203F178
:100EA00001039AB240F21C03C2F200031A8040F21E
:100EB0001C03C2F200031B889BB21846FFF7ECFB31
:100EC00042F6B543C2F201034FF000021A708AE7FE
:100ED00042F6B643C2F201031B78DBB2002B1ED0F0
:100EE00040F21E03C2F200031B889BB203F1010310
:100EF0009AB240F21E03C2F200031A8040F21E03AF
:100F0000C2F200031B889BB21846FFF7F5FB42F6BE
:100F1000B643C2F201034FF000021A7063E742F6D3
:100F2000B743C2F201031B78DBB2002B1ED040F2A4
:100F30001803C2F200031B889BB203F1FF339AB27D
:100F400040F21803C2F200031A8040F21803C2F202
:100F500000031B889BB21846FFF73EFB42F6B743DF
:100F6000C2F201034FF000021A703CE742F6B843A8
:100F7000C2F201031B78DBB2002B1ED040F21A0331
:100F8000C2F200031B889BB203F1FF339AB240F216
:100F90001A03C2F200031A8040F21A03C2F20003DD
:100FA0001B889BB21846FFF747FB42F6B843C2F2D4
:100FB00001034FF000021A7015E742F6B943C2F27E
:100FC00001031B78DBB2002B1ED040F21C03C2F2DF
:100FD00000031B889BB203F1FF339AB240F21C035B
:100FE000C2F200031A8040F21C03C2F200031B8805
:100FF0009BB21846FFF750FB42F6B943C2F2010319
:101000004FF000021A70EEE642F6BA43C2F2010354
:101010001B78DBB2002B3FF4E6AE40F21E03C2F2B7
:1010200000031B889BB203F1FF339AB240F21E0308
:10103000C2F200031A8040F21E03C2F200031B88B2
:101040009BB21846FFF758FB42F6BA43C2F20103BF
:101050004FF000021A70C6E680B582B000AF78602B
:1010600002F004FE42F6FC53C2F201034FF000020C
:101070001A704FF000004FF0000102F0A9FE40F29C
:101080001803C2F200031B889BB2184602F0E2FC70
:101090004FF000004FF0040102F09AFE40F21A03F4
:1010A000C2F200031B889BB2184602F0D3FC4FF03B
:1010B00001004FF0000102F08BFE40F21C03C2F26F
:1010C00000031B889BB2184602F0C4FC4FF00100DD
:1010D0004FF0040102F07CFE40F21E03C2F2000356
:1010E0001B889BB2184602F0B5FC42F6FC53C2F2D4
:1010F00001031B78DBB20F2B1BD84FF000004FF021
:101100000B0102F065FE44F68400C0F6000002F018
:10111000FFFD4FF000004FF00E0102F059FE42F6C5
:10112000FC53C2F201031B78DBB2184602F0FAFC52
:101130009FE74FF000004FF0000102F049FE44F637
:101140008C00C0F6000002F0E3FD4FF000004FF00D
:101150000E0102F03DFE8CE780B582B000AF7860F2
:10116000FFF726FDFFF758FB00E000BF42F60460E2
:10117000C2F20100FFF7C8FB0346002BF5D042F690
:101180000463C2F201031B780F2B6CD842F6046390
:10119000C2F201031A7842F6FC53C2F201031A703C
:1011A00042F60463C2F201031B7803F1FF330A2BFA
:1011B00061D801A252F823F0E5110008F5110008EA
:1011C0000512000825120008351200084512000813
:1011D000771200087712000877120008151200082D
:1011E0005512000842F6B343C2F201034FF0010268
:1011F0001A7041E042F6B443C2F201034FF001021B
:101200001A7039E042F6B543C2F201034FF0010211
:101210001A7031E042F6B643C2F201034FF0010208
:101220001A7029E042F6B743C2F201034FF00102FF
:101230001A7021E042F6B843C2F201034FF00102F6
:101240001A7019E042F6B943C2F201034FF00102ED
:101250001A7011E042F6BA43C2F201034FF00102E4
:101260001A7000BF08E042F6FC53C2F201034FF0CF
:10127000FF021A7000E000BF4FF01700FFF792FB6B
:1012800073E700BF80B584B004AF4FF00203009352
:101290004FF0000301934FF0000302934FF000035F
:1012A000039340F68D50C0F6000044F69401C0F65A
:1012B00000014FF082024FF0000300F0C1FB4FF03D
:1012C000020300934FF0000301934FF000030293D9
:1012D0004FF00003039341F25900C0F6000044F6BA
:1012E0009801C0F600014FF082024FF0000300F0B9
:1012F000A7FB4FF0040300934FF0000301934FF05E
:10130000000302934FF00003039341F25910C0F61B
:10131000000044F69C01C0F600014FF082024FF03D
:10132000000300F08DFB00F0D3FCFEE780B483B037
:1013300000AF78600B46FB70FB78002B0CD04FF4AD
:101340006053C4F202034FF46052C4F20202116B04
:101350007A680A431A630DE04FF46053C4F2020343
:101360004FF46052C4F20202116B7A686FEA020213
:101370000A401A6307F10C07BD4680BC704700BFE6
:1013800080B483B000AF78600B46FB70FB78002B15
:101390000CD04FF46053C4F202034FF46052C4F215
:1013A0000202116C7A680A431A640DE04FF460532C
:1013B000C4F202034FF46052C4F20202116C7A6864
:1013C0006FEA02020A401A6407F10C07BD4680BCAE
:1013D000704700BF80B483B000AF78600B46FB70ED
:1013E000FB78002B0CD04FF46053C4F202034FF48F
:1013F0006052C4F20202516C7A680A435A640DE0EA
:101400004FF46053C4F202034FF46052C4F202027C
:10141000516C7A686FEA02020A405A6407F10C07BD
:10142000BD4680BC704700BF80B586B004AF4FF0AA
:1014300000037B6000F0ACFA42F6F043C2F2010315
:101440001B68002B1AD04FF0020300934FF00003EB
:1014500001934FF0000302934FF00003039341F216
:10146000BD50C0F6000044F6A801C0F600014FF4DC
:1014700082724FF0000300F0E3FA78607B68002B83
:1014800002D101F0E1FDFEE77B68184607F108078D
:10149000BD4680BD80B588B000AFF860B9607A60A5
:1014A0003B604FF00003FB6142F6F043C2F20103E0
:1014B0001B68002B3DD0BB683B617B687B61FB6890
:1014C000BB61BB68052B25DC01F0C6F90346022B86
:1014D0000FD142F6F043C2F201031A6807F110037C
:1014E00010461946BA6A4FF0000301F0F7FEF861A2
:1014F0001FE042F6F043C2F201031A6807F110033D
:10150000104619464FF000024FF0000301F0E6FECE
:10151000F8610EE042F6F043C2F201031A6807F1E7
:101520001003104619463A684FF0000301F0A4FF7B
:10153000F861FB69184607F12007BD4680BD00BF72
:1015400080B586B002AF7860396042F6E843C2F2F7
:1015500001031B68DB68DB68FB60FB6803F10403C5
:10156000184601F0FFFBFB68DB69012B1ED1FB680D
:101570009A697B68D318F86819463A687B6800F066
:10158000B9F80346012B11D14FF000030093F8681E
:101590004FF000017A684FF00003FFF77BFFB8605F
:1015A000BB68002B02D101F04FFDFEE7FB685B6AD0
:1015B000F868984707F11007BD4680BD80B584B034
:1015C00000AF786007F10803184600F043F8F860B0
:1015D000BB68F868194600F003F800F0D5F8F1E7A9
:1015E00080B584B000AF7860396000F0B5FB07F1DA
:1015F0000803184600F058F8F860BB68002B21D1AA
:101600003B68002B0AD17A68FB689A4206D800F042
:10161000B5FB7868F968FFF793FF17E042F6F043EF
:10162000C2F201031A687968FB68CB1A10461946A2
:1016300002F0D2F900F0A2FB0346002B05D101F025
:10164000B9FC02E000F09AFB00E000BF07F11007D0
:10165000BD4680BD80B485B000AF786042F6E843F7
:10166000C2F201031B681B68002B14BF0023012377
:10167000DBB21A467B681A607B681B68002B08D1B6
:1016800042F6E843C2F201031B68DB681B68FB609B
:1016900002E04FF00003FB60FB68184607F11407F7
:1016A000BD4680BC704700BF80B584B000AF786095
:1016B00000F01EFCF86042F6F443C2F201031B681E
:1016C000FA689A4206D200F0F1F87B684FF0010206
:1016D0001A6003E07B684FF000021A6042F6F443A0
:1016E000C2F20103FA681A60FB68184607F1100796
:1016F000BD4680BD80B586B000AFF860B9607A6045
:101700003B604FF000037B61FB68BA685A60FB687E
:10171000FA681A61BA687B689A4217D87A683B6897
:10172000D21AFB689B699A4203D34FF001037B6195
:1017300024E042F6EC43C2F201031A68FB6803F1AD
:1017400004031046194601F0D3FA17E07A683B68A3
:101750009A4207D2BA683B689A4203D34FF001031A
:101760007B610BE042F6E843C2F201031A68FB68B2
:1017700003F104031046194601F0BAFA7B691846D2
:1017800007F11807BD4680BD80B58AB002AF76E08C
:10179000BB68002B73DB3B69FB61FB695B69002B5A
:1017A00005D0FB6903F10403184601F0DBFA07F1E9
:1017B00004031846FFF778FFB861BB68092B5BD8B4
:1017C00001A252F823F000BFF1170008F11700083A
:1017D000F117000879180008471800087118000868
:1017E000F1170008F11700087918000847180008D9
:1017F000FA68FB699B69D218FB68F8691146BA69F7
:10180000FFF778FF0346012B38D1FB695B6AF86963
:101810009847FB69DB69012B30D1FA68FB699B694A
:10182000D3184FF000020092F8694FF000011A46F9
:101830004FF00003FFF72EFE78617B69002B1DD16E
:1018400001F002FCFEE7FA68FB699A61FB699B699B
:10185000002B02D101F0F8FBFEE7FB699A69BB6936
:10186000D318F8691946BA69BB69FFF743FF06E068
:10187000F869FEF74DFD02E000BF00E000BF42F650
:10188000F043C2F201031A6807F108031046194633
:101890004FF000024FF0000301F062FE0346002B00
:1018A0007FF476AF07F12007BD4680BD80B588B0D4
:1018B00002AF4BE042F6E843C2F201031B68DB686B
:1018C0001B687B6142F6E843C2F201031B68DB68D8
:1018D000DB683B613B6903F10403184601F042FAFF
:1018E0003B695B6A386998473B69DB69012B2DD1FD
:1018F0003B699A697B69D318FB60FA687B699A42F5
:1019000012D93B69FA685A603B693A691A6142F632
:10191000E843C2F201031A683B6903F1040310466D
:10192000194601F0E5F911E04FF000030093386922
:101930004FF000017A694FF00003FFF7ABFDB8608C
:10194000BB68002B02D101F07FFBFEE742F6E843C3
:10195000C2F201031B681B68002BABD142F6E843BF
:10196000C2F201031B687B6042F6EC43C2F2010342
:101970001A6842F6E843C2F201031A6042F6EC43E9
:10198000C2F201037A681A6007F11807BD4680BDEC
:1019900080B500AF01F01EFB42F6F043C2F2010336
:1019A0001B68002B48D142F6C040C2F2010001F092
:1019B0004DF942F6D440C2F2010001F047F942F677
:1019C000E843C2F2010342F6C042C2F201021A60C9
:1019D00042F6EC43C2F2010342F6D442C2F20102E3
:1019E0001A604FF00A004FF00C014FF0000201F0B6
:1019F0002DFC024642F6F043C2F201031A6042F6A1
:101A0000F043C2F201031B68002B02D101F01CFB62
:101A1000FEE742F6F043C2F201031B68002B0BD035
:101A200042F6F043C2F201031B68184644F6B001C7
:101A3000C0F6000101F09EFF01F0E2FA80BD00BF98
:101A400080B58AB002AFF860B9603B601346FB8096
:101A5000FB68002B02D101F0F7FAFEE7BB6A042B0A
:101A600002D901F0F1FAFEE7FB881846396B00F065
:101A70006DFEB861BB69002B00F0A380BB691A6BD7
:101A8000FB8803F1FF334FEA8303D3187B617B6943
:101A900023F007037B617B6903F00703002B02D06F
:101AA00001F0D2FAFEE7FB880093B869B968BA6A18
:101AB0007B6B00F015FD7869F9683A6801F07EF9F2
:101AC0000246BB691A60FB6A002B02D0FB6ABA6946
:101AD0001A6001F07FFA42F6D053C2F201031B688C
:101AE00003F1010242F6D053C2F201031A6042F63A
:101AF000F843C2F201031B68002B0FD142F6F843F2
:101B0000C2F20103BA691A6042F6D053C2F201036D
:101B10001B68012B18D100F033FD15E042F6DC53B1
:101B2000C2F201031B68002B0ED142F6F843C2F249
:101B300001031B68DA6ABB6A9A4205D842F6F84389
:101B4000C2F20103BA691A6042F6EC53C2F2010311
:101B50001B6803F1010242F6EC53C2F201031A6062
:101B600042F6EC53C2F201031A68BB691A64BB69FE
:101B7000DA6A42F6D853C2F201031B689A4206D9C8
:101B8000BB69DA6A42F6D853C2F201031A60BB6934
:101B9000DA6A13464FEA83039B184FEA830342F63F
:101BA000FC42C2F201029A18BB6903F10403104619
:101BB000194601F079F84FF00103FB6101F020FABA
:101BC00002E04FF0FF33FB61FB69012B11D142F6BC
:101BD000DC53C2F201031B68002B0AD042F6F84323
:101BE000C2F201031B68DA6ABB6A9A4201D201F0B1
:101BF000E1F9FB69184607F12007BD4680BD00BF2B
:101C000080B586B000AF786039604FF000037B612B
:101C10007B68002B02D101F017FAFEE73B68002B2E
:101C200002D101F011FAFEE742F6F053C2F20103CD
:101C30001B68002B02D001F007FAFEE700F08CF8D9
:101C400042F6D453C2F201031B683B617B681A68F9
:101C50003B68D318FB607B681A683B699A420CD9D1
:101C60007B681A68FB689A4213D9FA683B699A4202
:101C70000FD94FF001037B610BE07B681A68FB68AA
:101C80009A4203D8FA683B699A4202D94FF001039D
:101C90007B617B68FA681A607B69002B0CD042F686
:101CA000F843C2F201031B6803F10403184601F074
:101CB00059F8F86800F004FD00F060F8B860BB68FF
:101CC000002B01D101F076F907F11807BD4680BD60
:101CD00080B586B004AF4FF0000300934FF00003CF
:101CE00001934FF0000302934FF00003039342F27D
:101CF000BD40C0F6000044F6B801C0F600014FF048
:101D000082024FF00003FFF79BFE78607B68012B97
:101D100002D1FFF789FB78607B68012B12D101F0BB
:101D200093F942F6DC53C2F201034FF001021A604C
:101D300042F6D453C2F201034FF000021A6001F0E0
:101D4000A5F805E07B68002B02D101F07DF9FEE7E4
:101D500007F10807BD4680BD80B400AF42F6F053DE
:101D6000C2F201031B6803F1010242F6F053C2F212
:101D700001031A60BD4680BC704700BF80B582B0C9
:101D800000AF4FF000037B6042F6F053C2F2010354
:101D90001B68002B02D101F057F9FEE701F01AF998
:101DA00042F6F053C2F201031B6803F1FF3242F620
:101DB000F053C2F201031A6042F6F053C2F201037B
:101DC0001B68002B40F08B8042F6D053C2F2010317
:101DD0001B68002B00F0838047E042F69053C2F26C
:101DE0000103DB68DB683B603B6803F118031846BE
:101DF00000F0B8FF3B6803F10403184600F0B2FF9F
:101E00003B68DA6A42F6D853C2F201031B689A4271
:101E100006D93B68DA6A42F6D853C2F201031A6067
:101E20003B68DA6A13464FEA83039B184FEA830341
:101E300042F6FC42C2F201029A183B6803F1040325
:101E40001046194600F030FF3B68DA6A42F6F84364
:101E5000C2F201031B68DB6A9A4206D342F6E453DE
:101E6000C2F201034FF001021A6042F69053C2F22F
:101E700001031B68002BB0D142F6E053C2F201030C
:101E80001B68002B1FD017E000F046F80346002B1C
:101E900006D042F6E453C2F201034FF001021A6089
:101EA00042F6E053C2F201031B6803F1FF3242F62F
:101EB000E053C2F201031A6042F6E053C2F201039A
:101EC0001B68002BE0D142F6E453C2F201031B6809
:101ED000012B04D14FF001037B6001F06BF801F09E
:101EE0008FF87B68184607F10807BD4680BD00BF24
:101EF00080B582B000AF01F06DF842F6D453C2F263
:101F000001031B687B6001F07BF87B68184607F1D2
:101F10000807BD4680BD00BF80B586B000AF4FF05A
:101F200000037B6142F6F053C2F201031B68002BF1
:101F300040F0D58042F6D453C2F201031B6803F18E
:101F4000010242F6D453C2F201031A6042F6D4539E
:101F5000C2F201031B683B613B69002B2ED142F6A4
:101F60008853C2F201031B681B68002B02D001F0EA
:101F70006BF8FEE742F68853C2F201031B68FB6070
:101F800042F68C53C2F201031A6842F68853C2F239
:101F900001031A6042F68C53C2F20103FA681A6018
:101FA00042F6E853C2F201031B6803F1010242F654
:101FB000E853C2F201031A6000F010FC40F2200363
:101FC000C2F200031B683A699A4270D300E000BF76
:101FD00042F68853C2F201031B681B68002B02D132
:101FE0004FF0010301E04FF00003002B07D040F257
:101FF0002003C2F200034FF0FF321A6057E042F6AE
:102000008853C2F201031B68DB68DB68BB60BB68F6
:102010005B687B603A697B689A4206D240F2200393
:10202000C2F200037A681A6041E0BB6803F104035E
:10203000184600F097FEBB689B6A002B05D0BB6872
:1020400003F11803184600F08DFEBB68DA6A42F609
:10205000D853C2F201031B689A4206D9BB68DA6AF8
:1020600042F6D853C2F201031A60BB68DA6A13461B
:102070004FEA83039B184FEA830342F6FC42C2F205
:1020800001029A18BB6803F104031046194600F0D8
:102090000BFEBB68DA6A42F6F843C2F201031B6822
:1020A000DB6A9A4293D34FF001037B618FE742F6DC
:1020B000F843C2F201031B68D96A42F6FC42C2F23D
:1020C00001020B464FEA83035B184FEA8303D318E0
:1020D0001B68012B0FD94FF001037B610BE042F627
:1020E000E053C2F201031B6803F1010242F6E05320
:1020F000C2F201031A6042F6E453C2F201031B6804
:10210000002B02D04FF001037B617B69184607F179
:102110001807BD4680BD00BF80B582B000AF42F653
:10212000F053C2F201031B68002B07D042F6E453C0
:10213000C2F201034FF001021A605AE042F6E45382
:10214000C2F201034FF000021A6015E042F6D853C4
:10215000C2F201031B68002B02D100F075FFFEE7FD
:1021600042F6D853C2F201031B6803F1FF3242F674
:10217000D853C2F201031A6042F6D853C2F20103E7
:10218000196842F6FC42C2F201020B464FEA830391
:102190005B184FEA8303D3181B68002BD6D042F696
:1021A000D853C2F201031A6813464FEA83039B18FF
:1021B0004FEA830342F6FC42C2F201029B187B60A5
:1021C0007B685B685A687B685A607B685A687B6882
:1021D00003F108039A4204D17B685B685A687B6804
:1021E0005A607B685B68DA6842F6F843C2F2010322
:1021F0001A6007F10807BD4680BD00BF80B584B0F6
:1022000000AF786039607B68002B02D100F01CFFC2
:10221000FEE742F6F843C2F201031B6803F118031C
:102220007868194600F064FD42F6F843C2F20103F3
:102230001B6803F10403184600F094FD3B68B3F1FA
:10224000FF3F0ED142F6F843C2F201031B6803F1CF
:10225000040342F6BC50C2F20100194600F024FD0E
:102260000AE042F6D453C2F201031A683B68D3185D
:10227000FB60F86800F024FA07F11007BD4680BD46
:1022800080B584B000AF786039607B68002B02D1E4
:1022900000F0DAFEFEE742F6F843C2F201031B68E3
:1022A00003F118037868194600F0FEFC42F6F84383
:1022B000C2F201031B6803F10403184600F052FD4B
:1022C00042F6D453C2F201031A683B68D318FB608C
:1022D000F86800F0F5F907F11007BD4680BD00BFB2
:1022E00080B584B000AF78607B68DB68DB68BB607A
:1022F000BB68002B02D100F0A7FEFEE7BB6803F12C
:102300001803184600F02EFD42F6F053C2F2010306
:102310001B68002B2AD1BB6803F10403184600F0A8
:1023200021FDBB68DA6A42F6D853C2F201031B688A
:102330009A4206D9BB68DA6A42F6D853C2F2010360
:102340001A60BB68DA6A13464FEA83039B184FEAA8
:10235000830342F6FC42C2F201029A18BB6803F101
:1023600004031046194600F09FFC09E0BB6803F126
:10237000180342F69050C2F20100194600F094FC96
:10238000BB68DA6A42F6F843C2F201031B68DB6AF3
:102390009A420AD94FF00103FB6042F6E453C2F2BD
:1023A00001034FF001021A6002E04FF00003FB60EE
:1023B000FB68184607F11007BD4680BD80B582B0A6
:1023C00000AF78607B68002B02D100F03DFEFEE795
:1023D00042F6E853C2F201031A687B681A6042F6BB
:1023E000D453C2F201031A687B685A6007F10807E8
:1023F000BD4680BD80B584B000AF786039607B6831
:10240000002B02D100F020FEFEE73B68002B02D13A
:1024100000F01AFEFEE700F0DDFD42F6D453C2F2F2
:1024200001031B68BB603B681B68B3F1FF3F03D12E
:102430004FF00003FB602CE07B681A6842F6E8531B
:10244000C2F201031B689A4208D07B685A68BB68D5
:102450009A4203D84FF00103FB601AE07B685B6887
:10246000BA68D21A3B681B689A420FD23B681A6856
:102470007B685968BB68CB1AD2183B681A607868C9
:10248000FFF79CFF4FF00003FB6002E04FF00103F9
:10249000FB6000F0B5FDFB68184607F11007BD466C
:1024A00080BD00BF80B400AF42F6E453C2F2010326
:1024B0004FF001021A60BD4680BC704780B582B003
:1024C00000AF786000E000BF00F0ACF842F6FC43DB
:1024D000C2F201031B68012BF5D900F06BFDF2E796
:1024E00080B586B000AFF860B9607A603B604FF0AD
:1024F00000037B6113E0BA687B69D3181A78F96826
:102500007B69CB1803F130031A71BA687B69D31861
:102510001B78002B07D07B6903F101037B617B698A
:10252000092BE8D900E000BFFB684FF0000283F8F8
:102530003D207B68042B02D94FF004037B60FB68CD
:102540007A68DA62FB687A689A64FB6803F10403CC
:10255000184600F09BFBFB6803F11803184600F0D7
:1025600095FBFB68FA681A617B68C3F10502FB689A
:102570009A61FB68FA685A6207F11807BD4680BD88
:1025800080B582B000AF4FF000037B6012E07A6844
:1025900013464FEA83039B184FEA830342F6FC423B
:1025A000C2F201029B18184600F050FB7B6803F151
:1025B00001037B607B68042BE9D942F66050C2F2CC
:1025C000010000F043FB42F67450C2F2010000F03B
:1025D0003DFB42F69050C2F2010000F037FB42F69C
:1025E000A450C2F2010000F031FB42F6BC50C2F22E
:1025F000010000F02BFB42F68853C2F2010342F6C1
:102600006052C2F201021A6042F68C53C2F2010318
:1026100042F67452C2F201021A6007F10807BD4681
:1026200080BD00BF80B582B000AF3DE0FFF794FBF6
:1026300042F6A453C2F201031B68002B14BF00230F
:102640000123DBB27B60FFF799FB7B68002B2BD16A
:1026500000F0C0FC42F6A453C2F20103DB68DB6861
:102660003B603B6803F10403184600F07BFB42F635
:10267000D053C2F201031B6803F1FF3242F6D0537C
:10268000C2F201031A6042F6B853C2F201031B689A
:1026900003F1FF3242F6B853C2F201031A6000F0B0
:1026A000AFFC386800F08AF842F6B853C2F2010372
:1026B0001B68002BBAD107F10807BD4680BD00BFDB
:1026C00080B582B000AF786042F6F843C2F20103F1
:1026D0001B687A685A6042F6D453C2F201031B6841
:1026E0007A689A4210D242F68C53C2F201031A68F9
:1026F00042F6F843C2F201031B6803F104031046DB
:10270000194600F0F5FA1DE042F68853C2F20103C3
:102710001A6842F6F843C2F201031B6803F104038E
:102720001046194600F0E4FA40F22003C2F200031A
:102730001B687A689A4205D240F22003C2F2000375
:102740007A681A6007F10807BD4680BD80B584B07D
:1027500000AF03463960FB804FF04C00FDF714FDDD
:10276000F860FB68002B23D03B68002B07D1FB8867
:102770004FEA83031846FDF707FD034600E03B6878
:10278000FA681363FB681B6B002B06D1F868FDF732
:10279000BFFD4FF00003FB600AE0FB681A6BFB888B
:1027A0004FEA830310464FF0A5011A4601F0D0FF0F
:1027B000FB68184607F11007BD4680BD80B582B0A2
:1027C00000AF78607B681B6B1846FDF7A1FD786849
:1027D000FDF79EFD07F10807BD4680BD80B483B0BC
:1027E00000AF42F68853C2F201031B681B68002B3E
:1027F00002D14FF0010301E04FF00003002B07D09E
:1028000040F22003C2F200034FF0FF321A600EE0E4
:1028100042F68853C2F201031B68DB68DB687B6009
:102820007B685A6840F22003C2F200031A6007F185
:102830000C07BD4680BC704780B483B000AF42F641
:10284000F843C2F201031B687B607B68184607F1FE
:102850000C07BD4680BC704780B483B000AF42F621
:10286000DC53C2F201031B68002B03D14FF00103BC
:102870007B600DE042F6F053C2F201031B68002BAF
:1028800003D14FF002037B6002E04FF000037B6056
:102890007B68184607F10C07BD4680BC704700BF37
:1028A00080B584B000AF78607B68FB607B68002BEC
:1028B0006AD0FB68DA6A42F6F843C2F201031B6889
:1028C000DB6A9A4260D2FB689B69002B09DB42F607
:1028D000F843C2F201031B68DB6AC3F10502FB681F
:1028E0009A61FB685969FB68DA6A13464FEA830309
:1028F0009B184FEA830342F6FC42C2F201029B1886
:10290000994202D14FF0010301E04FF00003002B88
:1029100032D0FB6803F10403184600F023FA42F6B4
:10292000F843C2F201031B68DA6AFB68DA62FB68EB
:10293000DA6A42F6D853C2F201031B689A4206D9FA
:10294000FB68DA6A42F6D853C2F201031A60FB68E8
:10295000DA6A13464FEA83039B184FEA830342F671
:10296000FC42C2F201029A18FB6803F1040310460C
:10297000194600F099F907E042F6F843C2F2010364
:102980001B68DA6AFB68DA6207F11007BD4680BD92
:1029900080B584B000AF78607B68FB607B68002BFB
:1029A0003DD0FB68DA6AFB689B6C9A4237D0FB68C3
:1029B00003F10403184600F0D5F9FB689A6CFB6834
:1029C000DA62FB689B69002B05DBFB68DB6AC3F1FD
:1029D0000502FB689A61FB68DA6A42F6D853C2F2D4
:1029E00001031B689A4206D9FB68DA6A42F6D8539B
:1029F000C2F201031A60FB68DA6A13464FEA8303E6
:102A00009B184FEA830342F6FC42C2F201029A1875
:102A1000FB6803F104031046194600F045F907F17D
:102A20001007BD4680BD00BF80B487B000AF78609E
:102A300039604FF000037B614FF000033B614FF0C2
:102A40000003FB604FF000037B6186E07B694FF081
:102A5000010202FA03F33B613B681A683B691340C9
:102A6000FB60FA683B699A4273D17B681A687B699C
:102A70004FEA43034FF0030101FA03F36FEA030344
:102A80001A407B681A607B681A683B681B79194694
:102A90007B694FEA430301FA03F31A437B681A6028
:102AA0003B681B79012B03D03B681B79022B34D187
:102AB0007B689A687B694FEA43034FF0030101FA90
:102AC00003F36FEA03031A407B689A607B689A6895
:102AD0003B685B7919467B694FEA430301FA03F3CC
:102AE0001A437B689A607B685A687B699BB24FF097
:102AF000010101FA03F36FEA03031A407B685A608D
:102B00007B685A683B689B7919467B699BB201FADE
:102B100003F39BB21A437B685A607B68DA687B696F
:102B20009BB24FEA43034FF0030101FA03F36FEA4C
:102B300003031A407B68DA607B68DA683B68DB79FC
:102B400019467B694FEA430301FA03F31A437B6892
:102B5000DA607B6903F101037B617B690F2B7FF6F0
:102B600075AF07F11C07BD4680BC704780B483B0C9
:102B700000AF78600B467B807B687A881A8307F108
:102B80000C07BD4680BC704780B483B000AF78604E
:102B90000B467B807B687A885A8307F10C07BD4619
:102BA00080BC704780B485B000AF786013460A4699
:102BB0007A807B704FF00003FB604FF00003BB6036
:102BC0007A787B8803F007034FEA830302FA03F362
:102BD000FB607B884FEAD3039BB21A467B884FEA9F
:102BE000D3039BB219467B6801F1080153F8211009
:102BF0007B8803F007034FEA83034FF00F0000FACE
:102C000003F36FEA030319407B6802F1080243F8FB
:102C100022107B884FEAD3039BB21A467B6802F1ED
:102C2000080253F82220FB681343BB607B884FEAFD
:102C3000D3039BB21A467B6802F10802B96843F8D5
:102C4000221007F11407BD4680BC704780B483B0E2
:102C500000AF78607B6803F108027B685A607B688C
:102C60004FF0FF329A607B6803F108027B68DA60FC
:102C70007B6803F108027B681A617B684FF00002F1
:102C80001A6007F10C07BD4680BC704780B483B062
:102C900000AF78607B684FF000021A6107F10C0703
:102CA000BD4680BC704700BF80B485B000AF78607F
:102CB00039607B685B68FB603B68FA685A60FB6858
:102CC0009A683B689A60FB689B683A685A60FB6840
:102CD0003A689A603B687A681A617B681B6803F1FE
:102CE00001027B681A6007F11407BD4680BC70477B
:102CF00080B485B000AF786039603B681B68BB600A
:102D0000BB68B3F1FF3F03D17B681B69FB600DE03B
:102D10007B6803F10803FB6002E0FB685B68FB6013
:102D2000FB685B681A68BB689A42F6D9FB685A6808
:102D30003B685A603B685B683A689A603B68FA682F
:102D40009A60FB683A685A603B687A681A617B68E7
:102D50001B6803F101027B681A6007F11407BD4686
:102D600080BC704780B485B000AF78607B681B6919
:102D7000FB607B685B687A6892689A607B689B6896
:102D80007A6852685A60FB685A687B689A4203D135
:102D90007B689A68FB685A607B684FF000021A6192
:102DA000FB681B6803F1FF32FB681A60FB681B6855
:102DB000184607F11407BD4680BC704780B485B043
:102DC00000AFF860B9607A60FB68A3F10403FB60B0
:102DD000FB684FF080721A60FB68A3F10403FB608C
:102DE000BA68FB681A60FB68A3F10403FB6042F653
:102DF0003163C0F60003FA681360FB68A3F11403A3
:102E0000FB607A68FB681A60FB68A3F10403FB604F
:102E1000FB686FF002021A60FB68A3F12003FB60FD
:102E2000FB68184607F11407BD4680BC704700BF19
:102E300080B500AF40F22403C2F200031B68B3F177
:102E4000FF3F02D000F000F9FEE700F0FDF8FEE7DA
:102E5000064B19680868B0E8F04F80F30988BFF3A3
:102E60006F8F4FF0000080F311887047F82C01201D
:102E700005480068006880F3088862B6BFF34F8F8A
:102E8000BFF36F8F00DF00BF08ED00E080B584B0B6
:102E900000AF4FF46443CEF20003FB60FB681B7885
:102EA000DBB2BB60FB684FF0FF021A70FB681B7857
:102EB000DBB2FB71FB79DBB203F05003DAB242F60E
:102EC000F453C2F201031A7042F6F853C2F201033E
:102ED0004FF007021A6011E042F6F853C2F2010304
:102EE0001B6803F1FF3242F6F853C2F201031A6085
:102EF000FB79DBB24FEA4303DBB2FB71FB79DBB258
:102F0000DBB25BB2002BE7DB42F6F853C2F20103FF
:102F10001B684FEA032242F6F853C2F201031A601B
:102F200042F6F853C2F201031B6803F4E06242F672
:102F3000F853C2F201031A60BB68DAB2FB681A7078
:102F40004EF62053CEF200034EF62052CEF200028F
:102F5000126842F470021A604EF62053CEF200035B
:102F60004EF62052CEF20002126842F070421A6011
:102F700000F0BAF840F22403C2F200034FF000025E
:102F80001A6000F0C7F84EF63473CEF200034EF626
:102F90003472CEF20002126842F040421A60FFF72B
:102FA00067FFFFF745FF4FF00003184607F11007D2
:102FB000BD4680BD80B400AF4EF60453CEF2000390
:102FC0004FF080521A60BFF34F8FBFF36F8FBD4633
:102FD00080BC704780B500AF00F036F840F22403A3
:102FE000C2F200031B6803F1010240F22403C2F2A3
:102FF00000031A60BFF34F8FBFF36F8F80BD00BF18
:1030000080B500AF40F22403C2F200031B68002B1E
:1030100002D100F019F8FEE740F22403C2F20003E7
:103020001B6803F1FF3240F22403C2F200031A606E
:1030300040F22403C2F200031B68002B03D14FF0BF
:10304000000000F00BF880BDEFF311804FF050014D
:1030500081F3118870474FF00003184680F3118800
:10306000704700BFEFF30980BFF36F8F124B1A68F0
:103070001EF0100F08BF20ED108A20E9F04F1060FD
:103080004DF8043D4FF0500080F31188FFF744F8ED
:103090004FF0000080F3118808BC19680868B0E898
:1030A000F04F1EF0100F08BFB0EC108A80F30988B3
:1030B000BFF36F8F704700BFF82C012080B500AFC1
:1030C000FFF7C2FFFEF728FF0346002B06D04EF69F
:1030D0000453CEF200034FF080521A604FF000000C
:1030E000FFF7BCFF80BD00BF80B400AF4EF21403F9
:1030F000CEF2000349F23F02C0F202021A604EF221
:103100001003CEF200034FF007021A60BD4680BCE8
:10311000704700BFDFF80C00016841F470010160E6
:103120007047000088ED00E090B583B000AFEFF38A
:1031300005847C607B680F2B13D944F6C003C0F66E
:1031400000031A687B68D3181B78FB7042F6F453AF
:10315000C2F201031B78FA789A4202D2FFF774FF99
:10316000FEE74EF60C53CEF200031B6803F4E06258
:1031700042F6F853C2F201031B689A4202D9FFF7E4
:1031800063FFFEE707F10C07BD4690BD80B584B034
:1031900000AF786039607B68FB60FB68002B02D170
:1031A000FFF752FFFEE7FFF715FFFB681A68FB68A1
:1031B000DB6BF968096C01FB03F3D218FB685A60FA
:1031C000FB684FF000029A63FB681A68FB689A601C
:1031D000FB681A68FB68DB6B03F1FF33F968096C65
:1031E00001FB03F3D218FB68DA60FB684FF0FF3293
:1031F0005A64FB684FF0FF329A643B68002B0FD192
:10320000FB681B69002B17D0FB6803F110031846FD
:10321000FFF766F80346012B0ED1FFF7CBFE0BE05C
:10322000FB6803F110031846FFF710FDFB6803F17C
:1032300024031846FFF70AFDFFF7E2FE4FF00103F3
:10324000184607F11007BD4680BD00BF80B588B0A5
:1032500000AFF860B9601346FB714FF00003FB61EB
:10326000FB68002B2DD04FF05400FCF78DFFB861A8
:10327000BB69002B25D0FB68BA6802FB03F303F19E
:1032800001037B617869FCF77FFF0246BB691A6026
:10329000BB691B68002B11D0BB69FA68DA63BB6994
:1032A000BA681A64B8694FF00101FFF76FFFBB6994
:1032B000FA7983F85020BB69FB6102E0B869FDF739
:1032C00027F8FB69002B02D1FFF7BEFEFEE7FB6982
:1032D000184607F12007BD4680BD00BF80B588B005
:1032E00000AFF860B9607A603B604FF00003FB61AB
:1032F000FB68BB61BB69002B02D1FFF7A5FEFEE7AF
:10330000BB68002B03D1BB691B6C002B02D14FF0B3
:10331000010301E04FF00003002B02D1FFF794FE00
:10332000FEE73B68022B03D1BB69DB6B012B02D1AB
:103330004FF0010301E04FF00003002B02D1FFF733
:1033400083FEFEE7FFF788FA0346002B02D17B6875
:10335000002B02D14FF0010301E04FF00003002BDE
:1033600003D1FFF771FEFEE700BFFFF733FEBB6935
:103370009A6BBB69DB6B9A4202D33B68022B18D174
:10338000B869B9683A6800F0D9F9BB695B6A002B83
:103390000AD0BB6903F124031846FEF7A1FF0346D8
:1033A000012B01D1FFF706FEFFF72AFE4FF00103C4
:1033B0005DE07B68002B04D1FFF722FE4FF0000395
:1033C00055E0FB69002B07D107F110031846FEF703
:1033D000F5FF4FF00103FB61FFF712FEFEF7BCFCA7
:1033E000FFF7F8FDBB695B6CB3F1FF3F03D1BB692D
:1033F0004FF000025A64BB699B6CB3F1FF3F03D1ED
:10340000BB694FF000029A64FFF7FAFD07F1100262
:1034100007F1040310461946FEF7ECFF0346002BA4
:103420001ED1B86900F08AFA0346002B12D0BB699E
:1034300003F110027B6810461946FEF7DFFEB869FB
:1034400000F012FAFEF79AFC0346002B8CD1FFF72E
:10345000B1FD89E7B86900F007FAFEF78FFC83E752
:10346000B86900F001FAFEF789FC4FF00003184636
:1034700007F12007BD4680BD80B588B000AFF86079
:10348000B9607A603B60FB68BB61BB69002B02D10D
:10349000FFF7DAFDFEE7BB68002B03D1BB691B6CAD
:1034A000002B02D14FF0010301E04FF00003002B8D
:1034B00002D1FFF7C9FDFEE73B68022B03D1BB69D0
:1034C000DB6B012B02D14FF0010301E04FF0000351
:1034D000002B02D1FFF7B8FDFEE7FFF725FEFFF74F
:1034E000B3FD7861BB699A6BBB69DB6B9A4202D30F
:1034F0003B68022B28D1B869B9683A6800F01EF918
:10350000BB699B6CB3F1FF3F14D1BB695B6A002BB5
:1035100016D0BB6903F124031846FEF7E1FE03460B
:10352000002B0DD07B68002B0AD07B684FF0010286
:103530001A6005E0BB699B6C03F10102BB699A64E8
:103540004FF00103FB6102E04FF00003FB6178697B
:10355000FFF784FDFB69184607F12007BD4680BDD3
:1035600080B58AB000AFF860B9607A603B604FF018
:1035700000037B62FB683B623B6A002B02D1FFF7D2
:1035800063FDFEE7BB68002B03D13B6A1B6C002B7D
:1035900002D14FF0010301E04FF00003002B02D1F4
:1035A000FFF752FDFEE7FFF757F90346002B02D164
:1035B0007B68002B02D14FF0010301E04FF00003C4
:1035C000002B03D1FFF740FDFEE700BFFFF702FD30
:1035D0003B6A9B6B002B3FD03B6ADB68FB61386A20
:1035E000B96800F019F93B68002B1ED13B6A9B6B50
:1035F00003F1FF323B6A9A633B6A1B68002B04D1DC
:10360000FFF71AF902463B6A5A603B6A1B69002BB6
:103610001DD03B6A03F110031846FEF761FE034616
:10362000012B14D1FFF7C6FC11E03B6AFA69DA609E
:103630003B6A5B6A002B0AD03B6A03F124031846FD
:10364000FEF74EFE0346002B01D0FFF7B3FCFFF759
:10365000D7FC4FF001036BE07B68002B04D1FFF730
:10366000CFFC4FF0000363E07B6A002B07D107F12A
:1036700014031846FEF7A2FE4FF001037B62FFF72A
:10368000BFFCFEF769FBFFF7A5FC3B6A5B6CB3F17F
:10369000FF3F03D13B6A4FF000025A643B6A9B6CC8
:1036A000B3F1FF3F03D13B6A4FF000029A64FFF78A
:1036B000A7FC07F1140207F1040310461946FEF7B0
:1036C00099FE0346002B2CD1386A00F01DF9034601
:1036D000002B20D03B6A1B68002B08D1FFF77AFC37
:1036E0003B6A5B681846FFF7DBF8FFF789FC3B6A2B
:1036F00003F124027B6810461946FEF77FFD386A05
:1037000000F0B2F8FEF73AFB0346002B7FF45DAF02
:10371000FFF750FC59E7386A00F0A6F8FEF72EFBD9
:1037200053E7386A00F0A0F8FEF728FB4FF00003DB
:10373000184607F12807BD4680BD00BF80B584B09C
:1037400000AFF860B9607A60FB681B6C002B0DD18C
:10375000FB681B68002B55D1FB685B681846FFF7B8
:1037600017F9FB684FF000025A604BE07B68002BB2
:103770001AD1FB689A68FB681B6C1046B9681A4638
:1037800000F044FFFB689A68FB681B6CD218FB686A
:103790009A60FB689A68FB685B689A4232D3FB6860
:1037A0001A68FB689A602DE0FB68DA68FB681B6C9E
:1037B0001046B9681A4600F029FFFB68DA68FB6812
:1037C0001B6CC3F10003D218FB68DA60FB68DA688F
:1037D000FB681B689A4208D2FB685A68FB681B6C3E
:1037E000C3F10003D218FB68DA607B68022B09D1B1
:1037F000FB689B6B002B05D0FB689B6B03F1FF32D2
:10380000FB689A63FB689B6B03F10102FB689A6398
:1038100007F11007BD4680BD80B582B000AF78606B
:1038200039607B681B68002B19D07B68DA687B687D
:103830001B6CD2187B68DA607B68DA687B685B682F
:103840009A4203D37B681A687B68DA607B68DA681F
:103850007B681B6C386811461A4600F0D7FE07F1EA
:103860000807BD4680BD00BF80B582B000AF78605C
:10387000FFF7B0FB14E07B685B6A002B15D07B6818
:1038800003F124031846FEF72BFD0346002B01D05D
:10389000FEF708FE7B689B6C03F1FF327B689A643D
:1038A0007B689B6C002BE6DC00E000BF7B684FF080
:1038B000FF329A64FFF7A4FBFFF78CFB14E07B68F0
:1038C0001B69002B15D07B6803F110031846FEF727
:1038D00007FD0346002B01D0FEF7E4FD7B685B6C1F
:1038E00003F1FF327B685A647B685B6C002BE6DC7B
:1038F00000E000BF7B684FF0FF325A64FFF780FBA7
:1039000007F10807BD4680BD80B584B000AF786080
:10391000FFF760FB7B689B6B002B03D14FF001032B
:10392000FB6002E04FF00003FB60FFF769FBFB6800
:10393000184607F11007BD4680BD00BF80B584B0B2
:1039400000AF7860FFF746FB7B689A6B7B68DB6BA8
:103950009A4203D14FF00103FB6002E04FF00003F5
:10396000FB60FFF74DFBFB68184607F11007BD46EB
:1039700080BD00BF80B485B000AF786039604FF083
:103980000003FB601FE042F61463C2F20103FA6811
:1039900053F83230002B12D142F61463C2F2010305
:1039A000FA68396843F8321042F61462C2F2010232
:1039B000FB684FEAC303D3187A685A6006E0FB68D5
:1039C00003F10103FB60FB68072BDCD907F1140747
:1039D000BD4680BC704700BF80B584B000AF786042
:1039E00039607B68FB60FFF7F5FAFB685B6CB3F14D
:1039F000FF3F03D1FB684FF000025A64FB689B6CE9
:103A0000B3F1FF3F03D1FB684FF000029A64FFF768
:103A1000F7FAFB689B6B002B06D1FB6803F12403CC
:103A200018463968FEF72CFCF868FFF71DFF07F110
:103A30001007BD4680BD00BF80B582B000AF786082
:103A40007B689BB21846FDF78BF907F10807BD4666
:103A500080BD00BF80B582B000AF0346FB80FA880E
:103A600048F21F53C5F2EB13A3FB02134FEA5313A3
:103A70009BB203F00F0244F6C403C0F600039B5C44
:103A8000184600F0C1F8FA8848F21F53C5F2EB134C
:103A9000A3FB02134FEA53134FF0640101FB03F33E
:103AA000D31A9AB24CF6CD43CCF6CC43A3FB021307
:103AB0004FEAD3039BB203F00F0244F6C403C0F6EF
:103AC00000039B5C184600F09FF8FA8848F21F53E9
:103AD000C5F2EB13A3FB02134FEA53134FF064013B
:103AE00001FB03F3D31A9AB24CF6CD43CCF6CC4388
:103AF000A3FB02134FEAD3010B464FEA83035B1883
:103B00004FEA4303D31A9BB203F00F0244F6C403F7
:103B1000C0F600039B5C184600F076F807F1080732
:103B2000BD4680BD80B582B000AF0346FB71FA7917
:103B300048F21F53C5F2EB13A3FB02134FEA5313D2
:103B40004FF0640101FB03F3D31ADAB24CF6CD4314
:103B5000CCF6CC43A3FB02134FEAD303DBB203F052
:103B60000F0244F6C403C0F600039B5C184600F045
:103B70004BF8FA7948F21F53C5F2EB13A3FB02137B
:103B80004FEA53134FF0640101FB03F3D31ADAB287
:103B90004CF6CD43CCF6CC43A3FB02134FEAD30142
:103BA0000B464FEA83035B184FEA4303D31ADBB299
:103BB00003F00F0244F6C403C0F600039B5C1846F2
:103BC00000F022F807F10807BD4680BD80B582B03D
:103BD00000AF4FF004004FF00101FDF7A7FB4FF0DD
:103BE00001033B7140F2FF333B604FF00003BB71B8
:103BF0003B464FF40060C4F202001946FEF714FF82
:103C000007F10807BD4680BD80B582B000AF03460E
:103C1000FB80FB884FF40060C4F202001946FEF7F7
:103C2000A5FF4FF40060C4F202004FF48071FEF76C
:103C30009DFF4FF00100FFF7FFFE4FF40060C4F25C
:103C400002004FF48071FEF79FFFFB884FF4006085
:103C5000C4F202001946FEF797FF4FF00100FFF78C
:103C6000EBFE07F10807BD4680BD00BF80B500AF81
:103C7000FFF7ACFF4FF02800FFF7DEFE4FF40060C7
:103C8000C4F202004FF40071FEF77EFF4FF40060B3
:103C9000C4F202004FF03001FEF768FF4FF005005C
:103CA000FFF7CAFE4FF40060C4F202004FF030018B
:103CB000FEF75CFF4FF00100FFF7BEFE4FF400601F
:103CC000C4F202004FF03001FEF750FF4FF0010048
:103CD000FFF7B2FE4FF03800FFF796FF4FF00C00F1
:103CE000FFF792FF4FF00100FFF78EFF4FF0060045
:103CF000FFF78AFF4FF00200FFF786FF4FF40060E6
:103D0000C4F202004FF40071FEF730FF80BD00BF27
:103D100080B582B000AF78607B681B781846FFF7EB
:103D200073FF7B6803F101037B607B681B78002BCA
:103D3000F2D107F10807BD4680BD00BF80B582B053
:103D400000AF0346FB804FF40060C4F202004FF462
:103D50008071FEF719FF4FF40060C4F202004FF4C7
:103D60000071FEF711FF4FF40060C4F202004FF43F
:103D70008071FEF7FBFEFB884FF40060C4F2020086
:103D80001946FEF7F3FE4FF00100FFF755FE4FF422
:103D90000060C4F202004FF48071FEF7F5FEFB886C
:103DA0004FF40060C4F202001946FEF7EDFE4FF03A
:103DB0000100FFF741FE4FF40060C4F202004FF42F
:103DC0000071FEF7D3FE07F10807BD4680BD00BFB6
:103DD00080B582B000AF786039603B6843F0800303
:103DE0003B607B68012B03D13B6803F140033B60E0
:103DF0003B689BB21846FFF7A1FF07F10807BD46D5
:103E000080BD00BF80B485B000AF786039604FF0EE
:103E10000003FB817B681B88FB81FB8903F4415312
:103E2000FB813B681A883B685B8813439AB23B6806
:103E30009B8813439AB23B68DB8813439AB23B6872
:103E40001B8913439AB23B685B8913439AB23B6860
:103E50009B8913439AB23B68DB8913439AB2FB896F
:103E60001343FB817B68FA891A807B689B8B9BB22A
:103E700023F400639AB27B689A833B681A8A7B6852
:103E80001A8207F11407BD4680BC704780B483B026
:103E900000AF78600B46FB70FB78002B08D07B6886
:103EA0001B889BB243F040039AB27B681A8007E0FC
:103EB0007B681B889BB223F040039AB27B681A8010
:103EC00007F10C07BD4680BC704700BF80B483B0CB
:103ED00000AF78600B46FB70FB78002B08D07B6846
:103EE0009B889BB243F004039AB27B689A8007E0F8
:103EF0007B689B889BB223F004039AB27B689A800C
:103F000007F10C07BD4680BC704700BF80B483B08A
:103F100000AF78607B689B899BB2184607F10C075D
:103F2000BD4680BC704700BF80B483B000AF7860EE
:103F30000B467B807B687A889A8107F10C07BD4627
:103F400080BC704780B483B000AF78600B46FB70D4
:103F5000FB78002B08D07B681B889BB243F400538E
:103F60009AB27B681A8007E07B681B889BB223F4B7
:103F700000539AB27B681A8007F10C07BD4680BCDB
:103F8000704700BF80B485B000AF78600B467B807F
:103F90004FF00003FB737B681B899AB27B88134048
:103FA0009BB2002B03D04FF00103FB7302E04FF0F4
:103FB0000003FB73FB7B184607F11407BD4680BC6A
:103FC000704700BF80B485B000AF786039604FF0B3
:103FD0000003FB817B681B88FB817A684FF000033C
:103FE000C4F201039A421FD07A684FF48063C4F28E
:103FF00001039A4218D07B68B3F1804F14D07A68DD
:104000004FF48063C4F200039A420DD07A684FF4F3
:104010000063C4F200039A4206D07A684FF440630A
:10402000C4F200039A4208D1FB8923F07003FB819C
:104030003B685A88FB891343FB817A684FF48053AD
:10404000C4F200039A420FD07A684FF4A053C4F22E
:1040500000039A4208D0FB8923F44073FB813B683C
:104060001A89FB891343FB817B68FA891A803B68B4
:104070005A687B68DA623B681A887B681A857A68B6
:104080004FF00003C4F201039A4206D07A684FF45D
:104090008063C4F201039A4204D13B689B7A1A46BA
:1040A0007B681A867B684FF001029A8207F1140739
:1040B000BD4680BC704700BF80B483B000AF78605D
:1040C0000B46FB70FB78002B08D07B681B889BB2EB
:1040D00043F001039AB27B681A8007E07B681B8873
:1040E0009BB223F001039AB27B681A8007F10C0798
:1040F000BD4680BC704700BF80B485B000AF78601B
:1041000039604FF000037B814FF00003FB814FF0DB
:104110000003BB817B681B8C9BB223F001039AB226
:104120007B681A847B681B8CFB817B689B88BB81C6
:104130007B681B8B7B817B8923F070037B817B8970
:1041400023F003037B813B681A887B8913437B81BF
:10415000FB8923F00203FB813B689A89FB891343A7
:10416000FB813B685A88FB891343FB817A684FF0D7
:104170000003C4F201039A4206D07A684FF48063C8
:10418000C4F201039A4223D1FB8923F00803FB8187
:104190003B68DA89FB891343FB81FB8923F0040325
:1041A000FB813B689A88FB891343FB81BB8923F41D
:1041B0008073BB81BB8923F40073BB813B681A8A7F
:1041C000BB891343BB813B685A8ABB891343BB81BC
:1041D0007B68BA899A807B687A891A833B689A6877
:1041E0007B685A637B68FA891A8407F11407BD4615
:1041F00080BC704780B485B000AF786039604FF004
:1042000000037B814FF00003FB814FF00003BB8173
:104210007B681B8C9BB223F010039AB27B681A84D4
:104220007B681B8CFB817B689B88BB817B681B8BBD
:104230007B817B8923F4E0437B817B8923F440737A
:104240007B813B681B884FEA03239AB27B89134327
:104250007B81FB8923F02003FB813B689B894FEA2C
:1042600003139AB2FB891343FB813B685B884FEAD7
:1042700003139AB2FB891343FB817A684FF0000362
:10428000C4F201039A4206D07A684FF48063C4F204
:1042900001039A422FD1FB8923F08003FB813B6805
:1042A000DB894FEA03139AB2FB891343FB81FB8935
:1042B00023F04003FB813B689B884FEA03139AB2CB
:1042C000FB891343FB81BB8923F48063BB81BB89DA
:1042D00023F40063BB813B681B8A4FEA83039AB2D5
:1042E000BB891343BB813B685B8A4FEA83039AB265
:1042F000BB891343BB817B68BA899A807B687A89C2
:104300001A833B689A687B689A637B68FA891A8487
:1043100007F11407BD4680BC704700BF80B485B06C
:1043200000AF786039604FF000037B814FF00003ED
:10433000FB814FF00003BB817B681B8C9BB223F495
:1043400080739AB27B681A847B681B8CFB817B68C4
:104350009B88BB817B689B8B7B817B8923F070036F
:104360007B817B8923F003037B813B681A887B89EF
:1043700013437B81FB8923F40073FB813B689B899A
:104380004FEA03239AB2FB891343FB813B685B88A6
:104390004FEA03239AB2FB891343FB817A684FF0FB
:1043A0000003C4F201039A4206D07A684FF4806396
:1043B000C4F201039A422FD1FB8923F40063FB81ED
:1043C0003B68DB894FEA03239AB2FB891343FB81E5
:1043D000FB8923F48063FB813B689B884FEA0323BE
:1043E0009AB2FB891343FB81BB8923F48053BB81C1
:1043F000BB8923F40053BB813B681B8A4FEA03133C
:104400009AB2BB891343BB813B685B8A4FEA0313B3
:104410009AB2BB891343BB817B68BA899A807B6857
:104420007A899A833B689A687B68DA637B68FA8941
:104430001A8407F11407BD4680BC704780B485B06C
:1044400000AF786039604FF00003BB814FF000038C
:104450007B814FF00003FB817B681B8C9BB223F4B4
:1044600080539AB27B681A847B681B8C7B817B6843
:104470009B88FB817B689B8BBB81BB8923F4E043DA
:10448000BB81BB8923F44073BB813B681B884FEA27
:1044900003239AB2BB891343BB817B8923F4005366
:1044A0007B813B689B894FEA03339AB27B89134334
:1044B0007B813B685B884FEA03339AB27B89134365
:1044C0007B817A684FF00003C4F201039A4206D060
:1044D0007A684FF48063C4F201039A420BD1FB89DE
:1044E00023F48043FB813B681B8A4FEA83139AB213
:1044F000FB891343FB817B68FA899A807B68BA89C0
:104500009A833B689A687B681A647B687A891A8404
:1045100007F11407BD4680BC704700BF80B485B06A
:1045200000AF78600B467B804FF00003FB817B6817
:104530001B8BFB81FB8923F00803FB81FA897B88B5
:104540001343FB817B68FA891A8307F11407BD4680
:1045500080BC704780B485B000AF78600B467B802C
:104560004FF00003FB817B681B8BFB81FB8923F4ED
:104570000063FB817B884FEA03239AB2FB891343D4
:10458000FB817B68FA891A8307F11407BD4680BC5A
:10459000704700BF80B485B000AF78600B467B8069
:1045A0004FF00003FB817B689B8BFB81FB8923F031
:1045B0000803FB81FA897B881343FB817B68FA89B6
:1045C0009A8307F11407BD4680BC704780B485B05C
:1045D00000AF78600B467B804FF00003FB817B6867
:1045E0009B8BFB81FB8923F40063FB817B884FEA73
:1045F00003239AB2FB891343FB817B68FA899A8370
:1046000007F11407BD4680BC704700BF0F2A2DE993
:10461000F00340F2958041EA00039B0740F092804E
:104620000C6804604D6845608E68A2F110038660D6
:10463000CC681D460F2DC460C3F3001601F11004B1
:1046400000F1100322D966B126681E6066685E60BC
:10465000A6689E60E668103DDE60103410330F2DB2
:1046600014D926681E6066685E60A6689E60E6686B
:10467000DE6026691E6166695E61A6699E61E66903
:10468000203DDE61203420330F2DEAD8A2F1100343
:1046900023F00F0402F00F031034032B00EB040887
:1046A000214451D9A3F104090B464FEA990901EBC2
:1046B000890C53F8046BC1EB0C0544460CF1040C57
:1046C000634544F8046BC5F3800512D02DB153F84F
:1046D000045B634544F8045B0BD01E46254656F840
:1046E000047B45F8047B5F68331D67602C1D6345C0
:1046F000F3D109F101039C00091902F003024444BB
:10470000DAB123460D7803F8015BA218E4431419CB
:10471000934204F0010410D02CB111F8014F03F8BA
:10472000014B934209D04D781C4604F8015B8D780B
:104730005D70631C02319342F5D1BDE8F003704710
:104740000446DDE70446DCE744461A46D8E700BFE6
:10475000F0B48407034600F08E80541E002A00F057
:104760008880E507CEB211D41A46671E02F8016BA5
:104770001346154692070FD0002C7AD003F8016B30
:104780009A073C461D4607D0013CEDE7034603F877
:10479000016B9A071D46F7D1032C52D9CEB246EAD7
:1047A00006270F2C47EA07432DD9A4F1100217461C
:1047B0000F2FC2F300162B606B60AB60EB6005F14E
:1047C000100216D93EB1103F136053609360D3605E
:1047D00010320F2F0DD9203F02F1100613605360E5
:1047E0009360D360136153619361D36120320F2FC3
:1047F000F1D8A4F1100222F00F0204F00F041032DD
:10480000032C15441DD9271F3E462A46032E42F885
:10481000043BC7F380070DD927B1043E032E42F8AD
:10482000043B07D91746083E47F8043B53603A1D3E
:10483000032EF7D8231F23F00302131D04F00304F3
:10484000ED18B4B12B46C9B203F8011B2C19ED4386
:104850006219A34202F001050BD01DB103F8011B40
:10486000A34206D01A4602F8011B5970531CA342FA
:10487000F8D1F0BC7047054614468DE708000000EB
:10488000F82B01005243563A000000005243563ABA
:104890005F5F000050574D004C4344006E5246325B
:1048A000344C303100000000546D722053766300A8
:1048B000546D72510000000049444C450000000056
:1048C000F0E300E0303132333435363738394142A5
:1048D000434445462E0000002D0000002B00000040
:1048E000F82B0100F82B0100E7E7E7E7E7000000FD
:1048F000E7E7E7E7E7000000780078007800780055
:08490000FFFFFFFFAAAAAAAA0B
:0400000508000000EF
:00000001FF
