:020000040800F2
:1000000050360120210600088D0600088D060008E4
:100010008D0600088D0600088D060008000000000F
:100020000000000000000000000000001D25000886
:100030008D06000800000000B52600080D27000806
:100040008D0600088D0600088D0600088D06000844
:100050008D0600088D0600088D0600088D06000834
:100060008D0600088D0600088D0600088D06000824
:100070008D0600088D0600088D0600088D06000814
:100080008D0600088D0600088D0600088D06000804
:100090008D0600088D0600088D0600088D060008F4
:1000A0008D0600088D0600088D0600088D060008E4
:1000B0008D0600088D0600088D0600088D060008D4
:1000C0008D0600088D0600088D0600088D060008C4
:1000D0008D0600088D0600088D0600088D060008B4
:1000E0008D0600088D0600088D0600088D060008A4
:1000F0008D0600088D0600088D0600088D06000894
:100100008D0600088D0600088D0600088D06000883
:100110008D0600088D0600088D0600088D06000873
:100120008D0600088D0600088D0600088D06000863
:100130008D0600088D0600088D0600088D06000853
:100140008D0600088D0600088D0600088D06000843
:100150008D0600088D0600088D0600088D06000833
:100160008D0600088D0600088D0600088D06000823
:100170008D0600088D0600088D0600088D06000813
:100180008D0600088D06000880B586B000AF786047
:100190000023FB6001F0C4FA404B1B68002B01D127
:1001A00000F0D0F83E4B1A687B681340002B6DD1ED
:1001B0007B68002B0DD008237A6813447B607B6832
:1001C00003F00703002B04D07B6823F007030833F8
:1001D0007B607B68002B59D0324B1B687A689A424F
:1001E00054D8314B3B61304B1B687B6104E07B6929
:1001F0003B617B691B687B617B695A687B689A42BB
:1002000003D27B691B68002BF1D1244B1B687A69F0
:100210009A423BD03B691A6808231344FB607B6910
:100220001A683B691A607B695A687B68D21A08238E
:100230005B009A420FD97A697B681344BB607B6983
:100240005A687B68D21ABB685A607B697A685A60C0
:10025000B86800F0C5F8134B1A687B695B68D21A5E
:10026000104B1A600F4B1A68104B1B689A4203D24E
:100270000C4B1A680D4B1A607B695A68084B1B6857
:100280001A437B695A607B6900221A6001F056FAB2
:10029000FB6818461837BD4680BD00BF302C0120D2
:1002A000342C012000000020282C01200400002014
:1002B00080B584B000AF78607B68FB607B68002B02
:1002C00038D008235B42FA681344FB60FB68BB60CC
:1002D000BB685A68194B1B681340002B02D102F00F
:1002E000DBF9FEE7BB681B68002B02D002F0D4F9F3
:1002F000FEE7BB685A68114B1B681340002B19D0EE
:10030000BB681B68002B15D1BB685A680B4B1B6878
:10031000DB431A40BB685A6001F002FABB685A68B6
:10032000074B1B681A44064B1A60B86800F058F86F
:1003300001F004FA1037BD4680BD00BF342C012007
:100340000000002080B584B000AF1F4B23F00703EE
:10035000FB601E4BFA681A601C4B00225A601C4B53
:10036000FA681344BB6008235B42BA681344BB605D
:10037000184BBA681A60174B1B6803F00703002B71
:1003800002D002F089F9FEE7124B1B6800225A6086
:10039000104B1B6800221A60FB687B600C4A082324
:1003A000D21A7B685A600B4B1A687B681A600A4B3A
:1003B0001A680823D21A084B1A60084B4FF0004203
:1003C0001A601037BD4680BD30000020282C012067
:1003D000F82B0100302C012000000020342C0120DB
:1003E00080B485B000AF7860274BFB6002E0FB680B
:1003F0001B68FB60FB681A687B689A42F7D3FB684E
:10040000BB60FB685B68BA681A447B689A4208D193
:10041000FB685A687B685B681A44FB685A60FB6833
:100420007B607B68BB607B685B68BA681A44FB686A
:100430001B689A4218D1FB681A68144B1B689A42D1
:100440000DD07B685A68FB681B685B681A447B6840
:100450005A60FB681B681A687B681A6008E00B4BDF
:100460001A687B681A6003E0FB681A687B681A6088
:10047000FA687B689A4202D0FB687A681A6014377F
:10048000BD465DF8047B7047282C0120302C0120EC
:1004900080B584B000AF0420012100F025FD0F23BA
:1004A000BB800023FB8044F62063BB600023BB813C
:1004B0000023BB733B1D0548194602F0DBFF0348D0
:1004C000012103F041F81037BD4680BD000800400F
:1004D00080B588B000AF0346FB806023BB81FB88FA
:1004E0007B610123FB8100233B8307F10C03084858
:1004F000194603F049F80648082103F033FA054885
:100500000621022201F0D0FE2037BD4680BD00BF8B
:10051000000800400004024080B588B000AF0346E8
:10052000FB806023BB81FB887B610123FB8100236F
:100530003B8307F10C030848194603F09FF806486F
:10054000082103F02BFA05480721022201F0ACFE36
:100550002037BD4680BD00BF0008004000040240B7
:1005600080B588B000AF0346FB806023BB81FB8869
:100570007B610123FB8100233B8307F10C030848C7
:10058000194603F003F90648082103F025FA054847
:100590000821022201F088FE2037BD4680BD00BF41
:1005A000000800400004024080B588B000AF034658
:1005B000FB806023BB81FB887B610123FB810023DF
:1005C0003B8307F10C030848194603F065F9064818
:1005D000082103F01DFA05480921022201F064FEFA
:1005E0002037BD4680BD00BF000800400004024027
:1005F00080B582B000AF0220012100F057FC4FF41B
:1006000070733B6002233B7102237B713B460348BE
:10061000194601F09FFD0837BD4680BD0004024029
:1006200080B582B000AF134B7B60134B3B6007E09B
:100630003B681A1D3A607A68111D796012681A6069
:100640003A680E4B9A42F3D30D480E494FF0000220
:100650008842B8BF40F8042BFFF6FAAFDFF8280055
:10066000016841F47001016000F0E4FB0837BD4609
:1006700080BD00BF3041000800000020280000209D
:10068000280000204C2E012088ED00E080B400AF4F
:10069000FEE700BF80B500AF00F05EF920203921F1
:1006A00000F0A6F8022000F0EDF92320032100F06D
:1006B0009FF8022000F0E6F92520022100F098F8CA
:1006C000022000F0DFF92620072100F091F8022037
:1006D00000F0D8F93120012100F08AF8022000F062
:1006E000D1F92220012100F083F8022000F0CAF99C
:1006F00030201149052200F0C7F8022000F0C2F9AD
:100700002A200E49052200F0BFF8022000F0BAF9B5
:100710002120002100F06CF8022000F0B3F9202025
:10072000332100F065F8022000F0ACF900F01EF96A
:10073000C82000F0A7F980BD0800002010000020AC
:1007400080B584B000AF78600023FB73072000F011
:1007500035F80346BB7300F0FFF8022000F092F971
:10076000BB7B03F04003002B06D061207968202278
:1007700000F05CF80123FB73022000F083F92720CE
:10078000402100F035F8022000F07CF900F0DAF8A2
:10079000E22000F0A7F800F0CBF8022000F072F998
:1007A0002020332100F024F800F0E0F8C82000F009
:1007B00069F9FB7B18461037BD4680BD80B584B013
:1007C00000AF0346FB7100F0BDF8022000F05AF9BB
:1007D000FB79184600F086F8002000F083F8034605
:1007E000FB7300F0A5F8FB7B18461037BD4680BDB3
:1007F00080B584B000AF02460B46FA71BB7100F0C1
:10080000A1F8022000F03EF9FB79184600F06AF8E2
:100810000346FB73BB79184600F064F800F088F8D3
:10082000FB7B18461037BD4680BD00BF90B585B034
:1008300000AF396013460246FA71BB7100F082F8CE
:10084000022000F01FF9FB79184600F04BF8034630
:10085000BB600023FB600AE03A68FB68D418002004
:1008600000F040F803462370FB680133FB60BA795F
:10087000FB689A42F0D800F05BF8BB68DBB2184620
:100880001437BD4690BD00BF80B584B000AF39605D
:1008900013460246FA71BB7100F054F8022000F0D2
:1008A000F1F8FB79184600F01DF80346BB60002301
:1008B000FB600AE03B681B78184600F013F83B68C1
:1008C00001333B60FB680133FB60BA79FB689A42F5
:1008D000F0D800F02DF8BB68DBB218461037BD46E3
:1008E00080BD00BF80B582B000AF0346FB7100BF82
:1008F0000E48022102F0A2FD0346002BF8D0FB793E
:100900009BB20A48194602F06BFD00BF074801215F
:1009100002F094FD0346002BF8D0044802F052FD8B
:100920000346DBB218460837BD4680BD00300140A3
:1009300080B500AF0248102101F09AFC80BD00BFD5
:100940000000024080B500AF0248102101F09EFC7B
:1009500080BD00BF0000024080B500AF0248082102
:1009600001F094FC80BD00BF0000024080B500AFE4
:100970000248082101F07CFC80BD00BF000002405D
:1009800080B588B000AF0120012100F08FFA4FF44C
:100990008050012100F0C6FA38480421052201F0F8
:1009A00083FC36480521052201F07EFC33480721EF
:1009B000052201F079FC31480621052201F074FC82
:1009C000E0237B6002233B7202237B720023BB7215
:1009D0000223FB723B1D2948194601F0BBFB012095
:1009E000012100F063FA2648012102F0CBFC182314
:1009F0007B6001233B7202237B720023BB720123C5
:100A0000FB723B1D1D48194601F0A4FB012001218A
:100A100000F04CFA04237B6000233B7202237B72BC
:100A20000023BB720123FB723B1D1448194601F0E1
:100A300091FB0023BB814FF48273FB8100233B8237
:100A400000237B820023BB824FF40073FB82382398
:100A50003B8300237B830723BB8307F10C030848F8
:100A6000194602F02BFC0648002102F0C7FC04489E
:100A7000012102F067FC2037BD4680BD0000024026
:100A80000030014080B582B000AF7860012000F0F6
:100A900003F80837BD4680BD80B584B000AF03467B
:100AA000FB80FB88FB6000F0CFFE0346BB6007F1D4
:100AB00008031846F96800F09BFD1037BD4680BD5D
:100AC00080B582B000AF7860FFF792FDFFF7E0FCE1
:100AD000634B1B889BB21846FFF7FAFC614B1B88DF
:100AE0009BB21846FFF718FD5F4B1B889BB2184658
:100AF000FFF736FD5D4B1B889BB21846FFF754FD90
:100B00005B4B1B78DBB2002B0FD0554B1B889BB285
:100B10000A339AB2524B1A80514B1B889BB218462B
:100B2000FFF7D6FC524B00221A70524B1B78DBB2F7
:100B3000002B10D04B4B1B889BB20A339AB2494B07
:100B40001A80484B1B889BB21846FFF7E5FC494BBF
:100B500000221A7083E0484B1B78DBB2002B10D0C8
:100B6000414B1B889BB20A339AB23F4B1A803E4BD3
:100B70001B889BB21846FFF7F3FC3F4B00221A700C
:100B80006DE03E4B1B78DBB2002B10D0374B1B883F
:100B90009BB20A339AB2354B1A80344B1B889BB2F6
:100BA0001846FFF701FD354B00221A7057E0344B11
:100BB0001B78DBB2002B10D0294B1B889BB20A3B61
:100BC0009AB2274B1A80264B1B889BB21846FFF718
:100BD0007FFC2B4B00221A7041E02A4B1B78DBB2C2
:100BE000002B10D01F4B1B889BB20A3B9AB21D4BA7
:100BF0001A801C4B1B889BB21846FFF78DFC214BBB
:100C000000221A702BE0204B1B78DBB2002B10D097
:100C1000154B1B889BB20A3B9AB2134B1A80124B9E
:100C20001B889BB21846FFF79BFC174B00221A70DB
:100C300015E0164B1B78DBB2002B10D00B4B1B883A
:100C40009BB20A3B9AB2094B1A80084B1B889BB295
:100C50001846FFF7A9FC0D4B00221A7050E74FE72A
:100C6000180000201A0000201C0000201E00002098
:100C7000B02C0120B12C0120B22C0120B32C01207A
:100C8000B42C0120B52C0120B62C0120B72C01205A
:100C900080B582B000AF786002F078FA214B002274
:100CA0001A70214B93ED007BB0EE470AF0EE670A15
:100CB000002000211D4A02F0CFF91D4B93ED007B6F
:100CC000B0EE470AF0EE670A00200521194A02F04B
:100CD000C3F9194B93ED007BB0EE470AF0EE670ABB
:100CE00001200021154A02F0B7F9154B93ED007B66
:100CF000B0EE470AF0EE670A01200521114A02F022
:100D0000ABF9114B1B881BB2184602F0F1FF0246EB
:100D10000B4643EC102B01200B210C4A02F09CF9EE
:100D2000BFE700BFF42D0120A02C0120D440000813
:100D3000902C0120D8400008A82C0120DC4000089D
:100D4000982C0120E0400008FE2D0120E44000081E
:100D500080B582B000AF7860FFF712FEFFF79AFC13
:100D60002A48FFF7EDFC0346002B4ED0274B1B789B
:100D70000F2B43D8254B1A78254B1A70234B1B7821
:100D8000013B0A2B38D801A252F823F0B90D000814
:100D9000C10D0008C90D0008D90D0008E10D0008BB
:100DA000E90D0008F90D0008F90D0008F90D00081B
:100DB000D10D0008F10D0008164B01221A701CE03D
:100DC000154B01221A7018E0144B01221A7014E01E
:100DD000134B01221A7010E0124B01221A700CE022
:100DE000114B01221A7008E0104B01221A7004E026
:100DF0000F4B01221A7000E000BF02E0044BFF22FB
:100E00001A701720FFF7DAFCAAE7A9E7FC2D0120EA
:100E1000F42D0120B02C0120B12C0120B22C012096
:100E2000B32C0120B42C0120B52C0120B62C0120BC
:100E3000B72C012080B584B004AF022300930023B7
:100E40000193002302930023039312481249822244
:100E5000002300F019FB02230093002301930023D9
:100E60000293002303930D480D498222002300F0D2
:100E70000BFB022300930023019300230293002322
:100E80000393084808498222002300F0FDFA00F08D
:100E90000FFCFEE7C10A0008E8400008910C0008BA
:100EA000EC400008510D0008F040000880B483B009
:100EB00000AF78600B46FB70FB78002B06D0094B27
:100EC000084A116B7A680A431A6306E0054B054A23
:100ED000116B7A68D2430A401A630C37BD465DF83D
:100EE000047B70470038024080B483B000AF786064
:100EF0000B46FB70FB78002B06D0094B084A116C9F
:100F00007A680A431A6406E0054B054A116C7A6850
:100F1000D2430A401A640C37BD465DF8047B704723
:100F20000038024080B483B000AF78600B46FB709D
:100F3000FB78002B06D0094B084A516C7A680A43AB
:100F40005A6406E0054B054A516C7A68D2430A4060
:100F50005A640C37BD465DF8047B70470038024088
:100F600080B586B004AF00237B6000F051FA0F4BD0
:100F70001B68002B0FD00223009300230193002352
:100F80000293002303930A480A494FF48272002314
:100F900000F07AFA78607B68002B02D101F07CFBCC
:100FA000FEE77B6818460837BD4680BDE82C012067
:100FB000B5100008FC40000880B588B000AFF860AC
:100FC000B9607A603B600023FB611D4B1B68002BFE
:100FD00030D0BB683B617B687B61FB68BB61BB68F1
:100FE000052B1CDC00F0F8FF0346022B0BD1144B41
:100FF0001A6807F1100310461946BA6A002301F077
:101000007BFCF86116E00E4B1A6807F110031046DE
:1010100019460022002301F06FFCF8610AE0084B3A
:101020001A6807F11003104619463A68002301F0C8
:1010300023FDF861FB6918462037BD4680BD00BF1F
:10104000E82C012080B586B002AF78603960184B7B
:101050001B68DB68DB68FB60FB680433184601F043
:10106000F1F9FB68DB69012B1BD1FB689A697B688E
:101070001344F86819463A687B6800F0A7F80346FD
:10108000012B0ED100230093F86800217A68002319
:10109000FFF792FFB860BB68002B02D101F0FCFAA9
:1010A000FEE7FB685B6AF86898471037BD4680BD6D
:1010B000E02C012080B584B000AF786007F1080310
:1010C000184600F03FF8F860BB68F868194600F071
:1010D00003F800F0BDF8F1E780B584B000AF7860A8
:1010E000396000F01DFB07F10803184600F04EF8C8
:1010F000F860BB68002B1ED13B68002B0AD17A68D0
:10110000FB689A4206D800F019FB7868F968FFF787
:1011100099FF12E00A4B1A687968FB68CB1A1046EF
:10112000194601F021FF00F009FB0346002B04D112
:1011300001F07AFA01E000F001FB1037BD4680BDF6
:10114000E82C012080B485B000AF78600E4B1B689E
:101150001B68002B14BF00230123DBB21A467B68F7
:101160001A607B681B68002B05D1074B1B68DB6886
:101170001B68FB6001E00023FB60FB681846143726
:10118000BD465DF8047B7047E02C012080B584B03B
:1011900000AF786000F058FBF8600B4B1B68FA68F2
:1011A0009A4205D200F0DCF87B6801221A6002E066
:1011B0007B6800221A60044BFA681A60FB681846C4
:1011C0001037BD4680BD00BFEC2C012080B586B035
:1011D00000AFF860B9607A603B6000237B61FB6818
:1011E000BA685A60FB68FA681A61BA687B689A4202
:1011F00012D87A683B68D21AFB689B699A4202D37C
:1012000001237B611BE0104B1A68FB680433104616
:10121000194601F0DFF812E07A683B689A4206D27C
:10122000BA683B689A4202D301237B6107E0074B0F
:101230001A68FB6804331046194601F0CBF87B6945
:1012400018461837BD4680BDE42C0120E02C012053
:1012500080B58AB002AF70E0BB68002B6DDB3B69E4
:10126000FB61FB695B69002B04D0FB690433184602
:1012700001F0E8F83B1D1846FFF788FFB861BB682E
:10128000092B59D801A252F823F000BFB51200086B
:10129000B5120008B512000839130008071300083A
:1012A00031130008B5120008B51200083913000800
:1012B00007130008FA68FB699B691A44FB68F86920
:1012C0001146BA69FFF782FF0346012B1AD1FB6969
:1012D0005B6AF8699847FB69DB69012B12D1FA68F0
:1012E000FB699B69134400220092F86900211A46A9
:1012F0000023FFF761FE78617B69002B02D101F0CA
:10130000CBF9FEE719E0FA68FB699A61FB699B6912
:10131000002B02D101F0C0F9FEE7FB699A69BB69B5
:101320001344F8691946BA69BB69FFF74FFF04E037
:10133000F869FEF7BDFF00E000BF084B1A6807F12F
:101340000803104619460022002301F0FFFB034664
:10135000002B81D12037BD4680BD00BFE82C012085
:1013600080B588B002AF3DE0274B1B68DB681B6887
:101370007B61254B1B68DB68DB683B613B690433A1
:10138000184601F05FF83B695B6A386998473B692A
:10139000DB69012B26D13B699A697B691344FB60A9
:1013A000FA687B699A420ED93B69FA685A603B69D0
:1013B0003A691A61144B1A683B690433104619469E
:1013C00001F008F80EE000230093386900217A69E3
:1013D0000023FFF7F1FDB860BB68002B02D101F0DC
:1013E0005BF9FEE7084B1B681B68002BBCD1064B62
:1013F0001B687B60054B1A68034B1A60034B7A68C5
:101400001A601837BD4680BDE02C0120E42C012075
:1014100080B500AF01F018F9154B1B68002B24D1E3
:10142000144800F087FF144800F084FF134B114A62
:101430001A60134B104A1A600A200C21002201F096
:1014400019FA02460A4B1A60094B1B68002B02D19D
:1014500001F022F9FEE7064B1B68002B05D0044B78
:101460001B681846074901F057FD01F0FDF880BDE3
:10147000E82C0120B82C0120CC2C0120E02C0120EC
:10148000E42C01200441000880B58AB002AFF86066
:10149000B9603B601346FB80FB68002B02D101F072
:1014A000FBF8FEE7BB6A042B02D901F0F5F8FEE772
:1014B000FB881846396B00F019FDB861BB69002B39
:1014C00072D0BB691A6BFB8803F18043013B9B0020
:1014D00013447B617B6923F007037B617B6903F025
:1014E0000703002B02D001F0D7F8FEE7FB8800933A
:1014F000B869B968BA6A7B6B00F002FC7869F96870
:101500003A6800F0C9FF0246BB691A60FB6A002B0B
:1015100002D0FB6ABA691A6001F096F82E4B1B687C
:101520005A1C2D4B1A602D4B1B68002B09D12B4BDD
:10153000BA691A60284B1B68012B0FD100F028FCF8
:101540000CE0274B1B68002B08D1244B1B68DA6A80
:10155000BB6A9A4202D8214BBA691A60214B1B68B8
:101560005A1C204B1A601F4B1A68BB691A64BB696E
:10157000DA6A1D4B1B689A4203D9BB69DA6A1A4BB7
:101580001A60BB69DA6A13469B0013449B00174A32
:101590001A44BB6904331046194600F0F7FE0123D4
:1015A000FB6101F061F802E04FF0FF33FB61FB6982
:1015B000012B0BD10A4B1B68002B07D0074B1B6874
:1015C000DA6ABB6A9A4201D201F02EF8FB6918462A
:1015D0002037BD4680BD00BFC82D0120F02C012062
:1015E000D42D0120E42D0120D02D0120F42C012048
:1015F00080B586B000AF7860396000237B617B687E
:10160000002B02D101F048F8FEE73B68002B02D125
:1016100001F042F8FEE7234B1B68002B02D001F0DB
:101620003BF8FEE700F07CF81F4B1B683B617B68D2
:101630001A683B681344FB607B681A683B699A42EE
:101640000BD97B681A68FB689A4211D9FA683B6922
:101650009A420DD901237B610AE07B681A68FB6816
:101660009A4203D8FA683B699A4201D901237B6107
:101670007B68FA681A607B69002B08D00B4B1B68EB
:101680000433184600F0DEFEF86800F0F9FB00F0C5
:1016900055F8B860BB68002B01D100F0C5FF1837C2
:1016A000BD4680BDE82D0120CC2D0120F02C01206D
:1016B00080B586B004AF002300930023019300237C
:1016C0000293002303931248124982220023FFF75A
:1016D000DBFE78607B68012B02D1FFF741FC78606C
:1016E0007B68012B0AD100F0D7FF0B4B01221A6057
:1016F0000A4B00221A6000F02FFF05E07B68002BE8
:1017000002D100F0C9FFFEE70837BD4680BD00BF2B
:10171000E11C00080C410008D42D0120CC2D012033
:1017200080B400AF044B1B685A1C034B1A60BD46C3
:101730005DF8047B704700BFE82D012080B582B0C2
:1017400000AF00237B60384B1B68002B02D100F0F8
:10175000A3FFFEE700F078FF334B1B685A1E324BA5
:101760001A60314B1B68002B56D1304B1B68002B85
:1017700052D02FE02E4BDB68DB683B603B681833B0
:10178000184600F05FFE3B680433184600F05AFE2E
:101790003B68DA6A274B1B689A4203D93B68DA6ACE
:1017A000244B1A603B68DA6A13469B0013449B0083
:1017B000214A1A443B6804331046194600F0E6FDFE
:1017C0003B68DA6A1D4B1B68DB6A9A4202D31C4BEA
:1017D00001221A60164B1B68002BCBD1194B1B68DA
:1017E000002B11D00CE000F041F80346002B02D092
:1017F000134B01221A60134B1B685A1E114B1A60BF
:10180000104B1B68002BEED10D4B1B68012B03D135
:1018100001237B6000F008FF00F026FF7B6818467C
:101820000837BD4680BD00BFE82D0120C82D01202E
:10183000882D0120D02D0120F42C0120F02C012036
:10184000DC2D0120D82D012080B582B000AF00F042
:10185000FBFE054B1B687B6000F006FF7B681846AB
:101860000837BD4680BD00BFCC2D012080B586B0B5
:1018700000AF00237B614E4B1B68002B40F087803C
:101880004C4B1B685A1C4B4B1A604A4B1B683B6104
:101890003B69002B18D1484B1B681B68002B02D0FA
:1018A00000F0FAFEFEE7444B1B68FB60434B1A68EE
:1018B000414B1A60414BFA681A60414B1B685A1C35
:1018C0003F4B1A6000F054FB3E4B1B683A699A424A
:1018D0004ED3394B1B681B68002B01D1012300E05C
:1018E0000023002B04D0374B4FF0FF321A603FE04B
:1018F000314B1B68DB68DB68BB60BB685B687B6087
:101900003A697B689A4203D22E4B7A681A602FE0BC
:10191000BB680433184600F095FDBB689B6A002B3A
:1019200004D0BB681833184600F08CFDBB68DA6A37
:10193000254B1B689A4203D9BB68DA6A224B1A60AE
:10194000BB68DA6A13469B0013449B001F4A1A4483
:10195000BB6804331046194600F018FDBB68DA6A0C
:101960001B4B1B68DB6A9A4201D301237B61B0E702
:10197000174B1B68DA6A154913469B0013449B00FA
:101980000B441B68012B07D901237B6104E0114B39
:101990001B685A1C0F4B1A600F4B1B68002B01D0A1
:1019A00001237B617B6918461837BD4680BD00BFA7
:1019B000E82D0120CC2D0120802D0120842D012037
:1019C000E02D012020000020D02D0120F42C01204A
:1019D000F02C0120D82D0120DC2D012080B582B013
:1019E00000AF224B1B68002B03D0214B01221A6051
:1019F00038E01F4B00221A600BE01E4B1B68002BC7
:101A000002D100F049FEFEE71A4B1B685A1E194B23
:101A10001A60184B1A68184913469B0013449B0020
:101A20000B441B68002BE8D0124B1A6813469B002E
:101A300013449B00104A13447B607B685B685A68C0
:101A40007B685A607B685A687B6808339A4204D185
:101A50007B685B685A687B685A607B685B68DA6899
:101A6000064B1A600837BD4680BD00BFE82D012037
:101A7000DC2D0120D02D0120F42C0120F02C0120A0
:101A800080B584B000AF786039607B68002B02D1EC
:101A900000F002FEFEE7124B1B6818337868194607
:101AA00000F098FC0E4B1B680433184600F0CAFC8B
:101AB0003B68B3F1FF3F07D1094B1B68043309486A
:101AC000194600F063FC07E0074B1A683B681344B3
:101AD000FB60F86800F0D4F91037BD4680BD00BF48
:101AE000F02C0120B42D0120CC2D012080B584B034
:101AF00000AF786039607B68002B02D100F0CCFD2C
:101B0000FEE70C4B1B6818337868194600F03EFC62
:101B1000084B1B680433184600F094FC064B1A6807
:101B20003B681344FB60F86800F0AAF91037BD4623
:101B300080BD00BFF02C0120CC2D012080B584B0E9
:101B400000AF78607B68DB68DB68BB60BB68002B3C
:101B500002D100F0A1FDFEE7BB681833184600F083
:101B600071FC1E4B1B68002B1DD1BB68043318464B
:101B700000F068FCBB68DA6A194B1B689A4203D90B
:101B8000BB68DA6A164B1A60BB68DA6A13469B00B8
:101B900013449B00134A1A44BB6804331046194689
:101BA00000F0F4FB05E0BB6818330F48194600F05D
:101BB000EDFBBB68DA6A0D4B1B68DB6A9A4205D9FC
:101BC0000123FB600A4B01221A6001E00023FB6045
:101BD000FB6818461037BD4680BD00BFE82D0120C8
:101BE000D02D0120F42C0120882D0120F02C012083
:101BF000DC2D012080B582B000AF78607B68002BBF
:101C000002D100F049FDFEE7054B1A687B681A60B7
:101C1000044B1A687B685A600837BD4680BD00BF18
:101C2000E02D0120CC2D012080B584B000AF78607C
:101C300039607B68002B02D100F02EFDFEE73B6887
:101C4000002B02D100F028FDFEE700F0FDFC1C4B4C
:101C50001B68BB603B681B68B3F1FF3F02D10023E8
:101C6000FB6026E07B681A68164B1B689A4207D017
:101C70007B685A68BB689A4202D80123FB6018E06F
:101C80007B685B68BA68D21A3B681B689A420ED2BE
:101C90003B681A687B685968BB68CB1A1A443B6872
:101CA0001A607868FFF7A6FF0023FB6001E00123BC
:101CB000FB6000F0D9FCFB6818461037BD4680BDBC
:101CC000CC2D0120E02D012080B400AF034B012278
:101CD0001A60BD465DF8047B704700BFDC2D012013
:101CE00080B582B000AF786000F090F8034B1B68BD
:101CF000012B01D900F098FCF6E700BFF42C01207D
:101D000080B586B000AFF860B9607A603B600023B0
:101D10007B6112E0BA687B6913441A78F9687B69C1
:101D20000B4430331A71BA687B6913441B78002B5B
:101D300000D105E07B6901337B617B69092BE9D91F
:101D4000FB68002283F83D207B68042B01D9042323
:101D50007B60FB687A68DA62FB687A689A64FB6881
:101D60000433184600F006FBFB681833184600F0F1
:101D700001FBFB68FA681A617B68C3F10502FB6826
:101D80009A61FB68FA685A621837BD4680BD00BF89
:101D900080B582B000AF00237B600CE07A68134608
:101DA0009B0013449B00114A1344184600F0C2FAEA
:101DB0007B6801337B607B68042BEFD90C4800F013
:101DC000B9FA0C4800F0B6FA0B4800F0B3FA0B4829
:101DD00000F0B0FA0A4800F0ADFA0A4B044A1A6063
:101DE000094B044A1A600837BD4680BDF42C012017
:101DF000582D01206C2D0120882D01209C2D0120C3
:101E0000B42D0120802D0120842D012080B582B0C9
:101E100000AF28E0FFF784FC164B1B68002B14BFB3
:101E200000230123DBB27B60FFF788FC7B68002B7B
:101E300019D100F009FC0F4BDB68DB683B603B68A5
:101E40000433184600F0FEFA0B4B1B685A1E0A4B6F
:101E50001A600A4B1B685A1E084B1A6000F004FCFB
:101E6000386800F075F8054B1B68002BD2D1083795
:101E7000BD4680BD9C2D0120C82D0120B02D012024
:101E800080B582B000AF7860134B1B687A685A60E7
:101E9000124B1B687A689A4209D2114B1A680E4B92
:101EA0001B6804331046194600F094FA10E00D4BFD
:101EB0001A68094B1B6804331046194600F08AFA69
:101EC000094B1B687A689A4202D2074B7A681A60FB
:101ED0000837BD4680BD00BFF02C0120CC2D01206D
:101EE000842D0120802D01202000002080B584B0A9
:101EF00000AF03463960FB804C20FEF745F9F860DF
:101F0000FB68002B1FD03B68002B06D1FB889B0091
:101F10001846FEF739F9034600E03B68FA68136398
:101F2000FB681B6B002B05D1F868FEF7C1F9002395
:101F3000FB6008E0FB681A6BFB889B001046A5213C
:101F40001A4602F07DF8FB6818461037BD4680BD82
:101F500080B582B000AF78607B681B6B1846FEF7D7
:101F6000A7F97868FEF7A4F90837BD4680BD00BF21
:101F700080B483B000AF0E4B1B681B68002B01D1EF
:101F8000012300E00023002B04D00A4B4FF0FF3266
:101F90001A6008E0064B1B68DB68DB687B607B68C7
:101FA0005A68044B1A600C37BD465DF8047B7047D5
:101FB000802D01202000002080B483B000AF054BAD
:101FC0001B687B607B6818460C37BD465DF8047B58
:101FD000704700BFF02C012080B483B000AF0B4BE2
:101FE0001B68002B02D101237B6008E0084B1B68B3
:101FF000002B02D102237B6001E000237B607B6821
:1020000018460C37BD465DF8047B7047D42D01207F
:10201000E82D012080B584B000AF78607B68FB605C
:102020007B68002B4AD0FB68DA6A264B1B68DB6AA8
:102030009A4243D2FB689B69002B06DB214B1B684D
:10204000DB6AC3F10502FB689A61FB685969FB68AA
:10205000DA6A13469B0013449B001B4A13449942BF
:1020600001D1012300E00023002B22D0FB680433C0
:10207000184600F0E7F9134B1B68DA6AFB68DA626E
:10208000FB68DA6A114B1B689A4203D9FB68DA6A6B
:102090000E4B1A60FB68DA6A13469B0013449B00E0
:1020A000094A1A44FB6804331046194600F06EF9D9
:1020B00004E0044B1B68DA6AFB68DA621037BD463D
:1020C00080BD00BFF02C0120F42C0120D02D012078
:1020D00080B584B000AF78607B68FB607B68002BC4
:1020E00030D0FB68DA6AFB689B6C9A422AD0FB68A6
:1020F0000433184600F0A6F9FB689A6CFB68DA62B4
:10210000FB689B69002B05DBFB68DB6AC3F10502FA
:10211000FB689A61FB68DA6A0C4B1B689A4203D928
:10212000FB68DA6A094B1A60FB68DA6A13469B009F
:1021300013449B00064A1A44FB68043310461946B0
:1021400000F024F91037BD4680BD00BFD02D01201E
:10215000F42C012080B487B000AF78603960002390
:102160007B6100233B610023FB6000237B6176E001
:102170007B69012202FA03F33B613B681A683B6901
:102180001340FB60FA683B699A4265D17B681A6824
:102190007B695B00032101FA03F3DB431A407B6890
:1021A0001A607B681A683B681B7919467B695B007B
:1021B00001FA03F31A437B681A603B681B79012B11
:1021C00003D03B681B79022B2ED17B689A687B6910
:1021D0005B00032101FA03F3DB431A407B689A603A
:1021E0007B689A683B685B7919467B695B0001FAFA
:1021F00003F31A437B689A607B685A687B699BB2D9
:10220000012101FA03F3DB431A407B685A607B68C3
:102210005A683B689B7919467B699BB201FA03F3C4
:102220009BB21A437B685A607B68DA687B699BB211
:102230005B00032101FA03F3DB431A407B68DA6099
:102240007B68DA683B68DB7919467B695B0001FAD9
:1022500003F31A437B68DA607B6901337B617B6936
:102260000F2B85D91C37BD465DF8047B704700BF36
:1022700080B483B000AF78600B467B807B687A883F
:102280001A830C37BD465DF8047B704780B483B079
:1022900000AF78600B467B807B687A885A830C3766
:1022A000BD465DF8047B704780B485B000AF7860B0
:1022B00013460A467A807B700023FB600023BB60D4
:1022C0007A787B8803F007039B0002FA03F3FB6034
:1022D0007B88DB089BB21A467B88DB089BB21946D9
:1022E0007B68083153F821107B8803F007039B00BB
:1022F0000F2000FA03F3DB4319407B68083243F8F0
:1023000022107B88DB089BB21A467B68083253F8A0
:102310002220FB681343BB607B88DB089BB21A4614
:102320007B680832B96843F822101437BD465DF85F
:10233000047B704780B483B000AF78607B6803F1A2
:1023400008027B685A607B684FF0FF329A607B68B6
:1023500003F108027B68DA607B6803F108027B689E
:102360001A617B6800221A600C37BD465DF8047B59
:10237000704700BF80B483B000AF78607B680022F4
:102380001A610C37BD465DF8047B704780B485B098
:1023900000AF786039607B685B68FB603B68FA6817
:1023A0005A60FB689A683B689A60FB689B683A6869
:1023B0005A60FB683A689A603B687A681A617B6881
:1023C0001B685A1C7B681A601437BD465DF8047B95
:1023D000704700BF80B485B000AF786039603B685B
:1023E0001B68BB60BB68B3F1FF3F03D17B681B690F
:1023F000FB600CE07B680833FB6002E0FB685B6815
:10240000FB60FB685B681A68BB689A42F6D9FB6898
:102410005A683B685A603B685B683A689A603B68F8
:10242000FA689A60FB683A685A603B687A681A6191
:102430007B681B685A1C7B681A601437BD465DF8C0
:10244000047B704780B485B000AF78607B681B69FF
:10245000FB607B685B687A6892689A607B689B68BF
:102460007A6852685A60FB685A687B689A4203D15E
:102470007B689A68FB685A607B6800221A61FB6877
:102480001B685A1EFB681A60FB681B6818461437E5
:10249000BD465DF8047B704780B485B000AFF8603E
:1024A000B9607A60FB68043BFB60FB684FF08072A8
:1024B0001A60FB68043BFB60BA68FB681A60FB6843
:1024C000043BFB600C4AFB681A60FB68143BFB6032
:1024D0007A68FB681A60FB68043BFB60FB686FF07E
:1024E00002021A60FB68203BFB60FB681846143749
:1024F000BD465DF8047B7047FD24000880B500AF41
:10250000054B1B68B3F1FF3F02D000F0C5F8FEE7B2
:1025100000F0C2F8FEE700BF24000020064B196857
:102520000868B0E8F04F80F30988BFF36F8F4FF071
:10253000000080F311887047F02C012005480068E6
:10254000006880F3088862B6BFF34F8FBFF36F8FC8
:1025500000DF00BF08ED00E080B584B000AF2C4B79
:10256000FB60FB681B78DBB2BB60FB68FF221A7064
:10257000FB681B78DBB2FB71FB79DBB203F0500325
:10258000DAB2244B1A70244B07221A6009E0224B5E
:102590001B685A1E204B1A60FB79DBB25B00DBB272
:1025A000FB71FB79DBB2DBB25BB2002BEFDB1A4BCA
:1025B0001B681A02184B1A60174B1B6803F4E06281
:1025C000154B1A60BB68DAB2FB681A70134B134ADA
:1025D000126842F470021A60104B104A126842F0FE
:1025E00070421A6000F0A6F80D4B00221A6000F04D
:1025F000B3F80C4B0B4A126842F040421A60FFF7E6
:102600009DFFFFF77BFF002318461037BD4680BDB6
:1026100000E400E0EC2D0120F02D012020ED00E091
:102620002400002034EF00E080B400AF054B4FF0F1
:1026300080521A60BFF34F8FBFF36F8FBD465DF8B6
:10264000047B704704ED00E080B500AF00F024F893
:10265000044B1B685A1C034B1A60BFF34F8FBFF328
:102660006F8F80BD2400002080B500AF094B1B6830
:10267000002B02D100F010F8FEE7064B1B685A1E33
:10268000044B1A60034B1B68002B02D1002000F0A2
:102690000DF880BD24000020EFF311804FF05001B1
:1026A00081F3118870470023184600BF80F311881A
:1026B000704700BFEFF30980BFF36F8F124B1A68AA
:1026C0001EF0100F08BF20ED108A20E9F04F1060B7
:1026D0004DF8043D4FF0500080F31188FFF77EF96C
:1026E0004FF0000080F3118808BC19680868B0E852
:1026F000F04F1EF0100F08BFB0EC108A80F309886D
:10270000BFF36F8F704700BFF02C012080B500AF82
:10271000FFF7C2FFFFF7AAF80346002B03D0044BD4
:102720004FF080521A600020FFF7C0FF80BD00BF4D
:1027300004ED00E080B400AF044B054A1A60054B7D
:1027400007221A60BD465DF8047B704714E000E084
:102750003F90020010E000E0DFF80C00016841F457
:10276000700101607047000088ED00E080B582B024
:1027700000AFEFF305837B607B680F2B0CD90D4A0C
:102780007B6813441B78FB700B4B1B78FA789A42DA
:1027900002D2FFF781FFFEE7084B1B6803F4E062FB
:1027A000074B1B689A4202D9FFF776FFFEE708370E
:1027B000BD4680BDF0E300E0EC2D01200CED00E013
:1027C000F02D012080B584B000AF786039607B685F
:1027D000FB60FB68002B02D1FFF75EFFFEE7FFF70F
:1027E00033FFFB681A68FB68DB6BF968096C01FB57
:1027F00003F31A44FB685A60FB6800229A63FB6883
:102800001A68FB689A60FB681A68FB68DB6B013B1F
:10281000F968096C01FB03F31A44FB68DA60FB6892
:102820004FF0FF325A64FB684FF0FF329A643B6806
:10283000002B0ED1FB681B69002B14D0FB681033F2
:102840001846FFF77BF90346012B0CD1FFF7ECFE8E
:1028500009E0FB6810331846FFF76CFDFB68243372
:102860001846FFF767FDFFF7FFFE012318461037F4
:10287000BD4680BD80B588B000AFF860B960134632
:10288000FB710023FB61FB68002B2AD05420FDF76D
:102890007BFCB861BB69002B23D0FB68BA6802FBE4
:1028A00003F301337B617869FDF76EFC0246BB6977
:1028B0001A60BB691B68002B10D0BB69FA68DA6329
:1028C000BB69BA681A64B8690121FFF77BFFBB696D
:1028D000FA7983F85020BB69FB6102E0B869FDF723
:1028E000E7FCFB69002B02D1FFF7D6FEFEE7FB6990
:1028F00018462037BD4680BD80B588B000AFF8606F
:10290000B9607A603B600023FB61FB68BB61BB6917
:10291000002B02D1FFF7C0FEFEE7BB68002B03D1FE
:10292000BB691B6C002B01D1012300E00023002BAD
:1029300002D1FFF7B1FEFEE73B68022B03D1BB6972
:10294000DB6B012B01D1012300E00023002B02D11E
:10295000FFF7A2FEFEE7FFF73FFB0346002B02D185
:102960007B68002B01D1012300E00023002B02D162
:10297000FFF792FEFEE7FFF767FEBB699A6BBB6944
:10298000DB6B9A4202D33B68022B16D1B869B96857
:102990003A6800F0B9F9BB695B6A002B09D0BB69E2
:1029A00024331846FFF7CAF80346012B01D1FFF77D
:1029B0003BFEFFF759FE012359E07B68002B03D152
:1029C000FFF752FE002352E0FB69002B06D107F10E
:1029D00010031846FFF70EF90123FB61FFF744FED1
:1029E000FEF79EFEFFF730FEBB695B6CB3F1FF3F65
:1029F00002D1BB6900225A64BB699B6CB3F1FF3FF3
:102A000002D1BB6900229A64FFF72EFE07F1100283
:102A10003B1D10461946FFF707F90346002B1ED150
:102A2000B86900F061FA0346002B12D0BB6903F1CC
:102A300010027B6810461946FFF722F8B86900F0CB
:102A4000F1F9FEF77BFE0346002B0FD1FFF7ECFDFB
:102A50000CE0B86900F0E6F9FEF770FE8BE7B869A4
:102A600000F0E0F9FEF76AFE002300E083E7184675
:102A70002037BD4680BD00BF80B588B000AFF8608C
:102A8000B9607A603B60FB68BB61BB69002B02D117
:102A9000FFF702FEFEE7BB68002B03D1BB691B6C8E
:102AA000002B01D1012300E00023002B02D1FFF70E
:102AB000F3FDFEE73B68022B03D1BB69DB6B012B07
:102AC00001D1012300E00023002B02D1FFF7E4FD38
:102AD000FEE7FFF74BFEFFF7DFFD7861BB699A6BFE
:102AE000BB69DB6B9A4202D33B68022B24D1B869E5
:102AF000B9683A6800F008F9BB699B6CB3F1FF3F15
:102B000012D1BB695B6A002B13D0BB692433184612
:102B1000FFF714F80346002B0BD07B68002B08D07E
:102B20007B6801221A6004E0BB699B6C5A1CBB697C
:102B30009A640123FB6101E00023FB617869FFF7E0
:102B4000B5FDFB6918462037BD4680BD80B58AB00B
:102B500000AFF860B9607A603B6000237B62FB687D
:102B60003B623B6A002B02D1FFF796FDFEE7BB6894
:102B7000002B03D13B6A1B6C002B01D1012300E029
:102B80000023002B02D1FFF787FDFEE7FFF724FAB1
:102B90000346002B02D17B68002B01D1012300E00A
:102BA0000023002B02D1FFF777FDFEE7FFF74CFD76
:102BB0003B6A9B6B002B3BD03B6ADB68FB61386A4E
:102BC000B96800F009F93B68002B1CD13B6A9B6B8C
:102BD0005A1E3B6A9A633B6A1B68002B04D1FFF7BD
:102BE000EBF902463B6A5A603B6A1B69002B1BD01B
:102BF0003B6A10331846FEF7A1FF0346012B13D1A1
:102C0000FFF712FD10E03B6AFA69DA603B6A5B6A23
:102C1000002B09D03B6A24331846FEF78FFF03468A
:102C2000002B01D0FFF700FDFFF71EFD012366E03A
:102C30007B68002B03D1FFF717FD00235FE07B6A61
:102C4000002B06D107F114031846FEF7D3FF01232A
:102C50007B62FFF709FDFEF763FDFFF7F5FC3B6ABA
:102C60005B6CB3F1FF3F02D13B6A00225A643B6ABE
:102C70009B6CB3F1FF3F02D13B6A00229A64FFF7DD
:102C8000F3FC07F114023B1D10461946FEF7CCFF7A
:102C90000346002B2BD1386A00F010F90346002BB5
:102CA0001FD03B6A1B68002B08D1FFF7CDFC3B6AA5
:102CB0005B681846FFF7AEF9FFF7D6FC3B6A03F1F5
:102CC00024027B6810461946FEF7DAFE386A00F0E7
:102CD000A9F8FEF733FD0346002B0FD1FFF7A4FC44
:102CE0000CE0386A00F09EF8FEF728FD5EE7386ACF
:102CF00000F098F8FEF722FD002300E056E71846A2
:102D00002837BD4680BD00BF80B584B000AFF860F5
:102D1000B9607A60FB681B6C002B0CD1FB681B68E8
:102D2000002B51D1FB685B681846FFF7D1F9FB68AF
:102D300000225A6048E07B68002B1AD1FB689A6831
:102D4000FB681B6C1046B9681A4601F0DFF8FB6897
:102D50009A68FB681B6C1A44FB689A60FB689A6867
:102D6000FB685B689A422FD3FB681A68FB689A601D
:102D70002AE0FB68DA68FB681B6C1046B9681A46E3
:102D800001F0C4F8FB68DA68FB681B6C5B421A440C
:102D9000FB68DA60FB68DA68FB681B689A4207D256
:102DA000FB685A68FB681B6C5B421A44FB68DA607C
:102DB0007B68022B08D1FB689B6B002B04D0FB685F
:102DC0009B6B5A1EFB689A63FB689B6B5A1CFB68E3
:102DD0009A631037BD4680BD80B582B000AF786081
:102DE00039607B681B68002B19D07B68DA687B68C8
:102DF0001B6C1A447B68DA607B68DA687B685B6806
:102E00009A4203D37B681A687B68DA607B68DA6869
:102E10007B681B6C386811461A4601F077F8083752
:102E2000BD4680BD80B582B000AF7860FFF70CFC76
:102E300014E07B685B6A002B0AD07B682433184659
:102E4000FEF77CFE0346002B03D0FEF73DFF00E0BB
:102E500008E07B689B6C5A1E7B689A647B689B6C5D
:102E6000002BE6DC7B684FF0FF329A64FFF7FCFB37
:102E7000FFF7EAFB14E07B681B69002B0FD07B682F
:102E800010331846FEF75AFE0346002B01D0FEF71A
:102E90001BFF7B685B6C5A1E7B685A6400E003E092
:102EA0007B685B6C002BE6DC7B684FF0FF325A647A
:102EB000FFF7DAFB0837BD4680BD00BF80B584B0A0
:102EC00000AF7860FFF7C0FB7B689B6B002B02D1E3
:102ED0000123FB6001E00023FB60FFF7C5FBFB68FB
:102EE00018461037BD4680BD80B584B000AF78600D
:102EF000FFF7AAFB7B689A6B7B68DB6B9A4202D177
:102F00000123FB6001E00023FB60FFF7ADFBFB68E2
:102F100018461037BD4680BD80B485B000AF7860DC
:102F200039600023FB6014E00E4BFA6853F832302E
:102F3000002B0BD10B4BFA68396843F83210094A61
:102F4000FB68DB0013447A685A6005E0FB680133D4
:102F5000FB60FB68072BE7D91437BD465DF8047B9F
:102F6000704700BF0C2E012080B584B000AF7860A0
:102F700039607B68FB60FFF767FBFB685B6CB3F154
:102F8000FF3F02D1FB6800225A64FB689B6CB3F1DF
:102F9000FF3F02D1FB6800229A64FFF765FBFB68E4
:102FA0009B6B002B05D1FB68243318463968FEF76C
:102FB0009DFDF868FFF736FF1037BD4680BD00BFA6
:102FC00080B582B000AF78607B689BB21846FDF791
:102FD00063FD0837BD4680BD80B582B000AF0346B3
:102FE000FB71FB79194AA2FB03125209642101FB10
:102FF00002F29B1ADAB2164BA3FB0213DB08DBB218
:1030000003F00F03134AD35C184600F09BF8FB79DA
:103010000E4AA2FB03125209642101FB02F29B1A21
:10302000DAB20B4BA3FB0213D9080B469B000B44EF
:103030005B00D31ADBB203F00F03064AD35C1846D9
:1030400000F080F80837BD4680BD00BF1F85EB51FA
:10305000CDCCCCCC14410008B0B586B000AF87ED24
:10306000040BF860B9607A60D7E904014FF0000200
:103070004FF0000300F002FF0346002B23D0F86856
:10308000B96800F003F9786800F0B8F8BB6802335B
:10309000F868194600F0FAF81C4800F0AFF8BB6871
:1030A0000333F868194600F0F1F83C697B6983F056
:1030B00000452046294600F009FF0346DBB21846CA
:1030C000FFF78AFF1EE0F868B96800F0DFF878685B
:1030D00000F094F8BB680233F868194600F0D6F89F
:1030E0000B4800F08BF8BB680333F868194600F012
:1030F000CDF8D7E9040100F0E9FE0346DBB218463B
:10310000FFF76AFF1837BD46B0BD00BF2841000871
:103110002C41000880B582B000AF04200121FDF7EA
:10312000C5FE01233B7140F2FF333B600023BB71BE
:103130003B4603481946FFF70DF80837BD4680BDEA
:103140000008024080B582B000AF0346FB80FB88D8
:103150000D481946FFF78CF80B484FF48071FFF7C4
:1031600087F80120FFF72CFF07484FF48071FFF725
:103170008DF8FB8804481946FFF788F80120FFF70F
:103180001FFF0837BD4680BD0008024080B500AF74
:10319000FFF7C0FF2820FFF713FF17484FF4007117
:1031A000FFF774F814483021FFF762F80520FFF7A5
:1031B00007FF11483021FFF75BF80120FFF700FF00
:1031C0000D483021FFF754F80120FFF7F9FE3820B1
:1031D000FFF7B8FF0C20FFF7B5FF0120FFF7B2FFA4
:1031E0000620FFF7AFFF0220FFF7ACFF02484FF4C5
:1031F0000071FFF73DF880BD0008024080B582B045
:1032000000AF78607B681B781846FFF79BFF7B68F0
:1032100001337B607B681B78002BF3D10837BD46F8
:1032200080BD00BF80B582B000AF0346FB8016486A
:103230004FF48071FFF72AF813484FF40071FFF73D
:1032400025F811484FF48071FFF712F8FB880E48FB
:103250001946FFF70DF80120FFF7B2FE0A484FF4B8
:103260008071FFF713F8FB8807481946FFF70EF83F
:103270000120FFF7A5FE04484FF40071FEF7F8FFA8
:103280000837BD4680BD00BF0008024080B582B04F
:1032900000AF786039603B6843F080033B607B6837
:1032A000012B02D13B6840333B603B689BB2184620
:1032B000FFF7B8FF0837BD4680BD00BF80B485B0BA
:1032C00000AF786039600023FB817B681B88FB813D
:1032D000FB8903F44153FB813B681A883B685B8898
:1032E00013439AB23B689B8813439AB23B68DB88CE
:1032F00013439AB23B681B8913439AB23B685B89BC
:1033000013439AB23B689B8913439AB23B68DB89AB
:1033100013439AB2FB891343FB817B68FA891A80B5
:103320007B689B8B9BB223F400639AB27B689A8381
:103330003B681A8A7B681A821437BD465DF8047BA5
:10334000704700BF80B483B000AF78600B46FB705D
:10335000FB78002B08D07B681B889BB243F04003AE
:103360009AB27B681A8007E07B681B889BB223F0C7
:1033700040039AB27B681A800C37BD465DF8047B27
:10338000704700BF80B483B000AF78600B46FB701D
:10339000FB78002B08D07B689B889BB243F004032A
:1033A0009AB27B689A8007E07B689B889BB223F087
:1033B00004039AB27B689A800C37BD465DF8047BA3
:1033C000704700BF80B483B000AF78607B689B8992
:1033D0009BB218460C37BD465DF8047B704700BFB2
:1033E00080B483B000AF78600B467B807B687A88BE
:1033F0009A810C37BD465DF8047B704780B483B07A
:1034000000AF78600B46FB70FB78002B08D07B6820
:103410001B889BB243F400539AB27B681A8007E082
:103420007B681B889BB223F400539AB27B681A8096
:103430000C37BD465DF8047B704700BF80B485B093
:1034400000AF78600B467B800023FB737B681B8991
:103450009AB27B8813409BB2002B02D00123FB73EE
:1034600001E00023FB73FB7B18461437BD465DF873
:10347000047B704780B485B000AF7860396000236A
:10348000FB817B681B88FB817A68284B9A4213D0AA
:103490007A68274B9A420FD07B68B3F1804F0BD0EC
:1034A0007A68244B9A4207D07A68234B9A4203D019
:1034B0007A68224B9A4208D1FB8923F07003FB8182
:1034C0003B685A88FB891343FB817A681C4B9A42FC
:1034D0000CD07A681B4B9A4208D0FB8923F44073C6
:1034E000FB813B681A89FB891343FB817B68FA895E
:1034F0001A803B685A687B68DA623B681A887B6886
:103500001A857A68094B9A4203D07A68084B9A4226
:1035100004D13B689B7A1A467B681A867B68012235
:103520009A821437BD465DF8047B70470000014065
:10353000000401400004004000080040000C00406E
:10354000001000400014004080B483B000AF7860E9
:103550000B46FB70FB78002B08D07B681B889BB266
:1035600043F001039AB27B681A8007E07B681B88EE
:103570009BB223F001039AB27B681A800C37BD46D8
:103580005DF8047B704700BF80B485B000AF786001
:10359000396000237B810023FB810023BB817B6892
:1035A0001B8C9BB223F001039AB27B681A847B6860
:1035B0001B8CFB817B689B88BB817B681B8B7B8121
:1035C0007B8923F070037B817B8923F003037B815C
:1035D0003B681A887B8913437B81FB8923F00203B4
:1035E000FB813B689A89FB891343FB813B685A88BE
:1035F000FB891343FB817A681E4B9A4203D07A6899
:103600001D4B9A4223D1FB8923F00803FB813B68C1
:10361000DA89FB891343FB81FB8923F00403FB81D7
:103620003B689A88FB891343FB81BB8923F4807331
:10363000BB81BB8923F40073BB813B681A8ABB89B9
:103640001343BB813B685A8ABB891343BB817B68A8
:10365000BA899A807B687A891A833B689A687B6802
:103660005A637B68FA891A841437BD465DF8047B77
:10367000704700BF000001400004014080B485B0E5
:1036800000AF7860396000237B810023FB81002339
:10369000BB817B681B8C9BB223F010039AB27B68C2
:1036A0001A847B681B8CFB817B689B88BB817B6851
:1036B0001B8B7B817B8923F4E0437B817B8923F413
:1036C00040737B813B681B881B029AB27B89134342
:1036D0007B81FB8923F02003FB813B689B891B01D5
:1036E0009AB2FB891343FB813B685B881B019AB24A
:1036F000FB891343FB817A68224B9A4203D07A6894
:10370000214B9A422BD1FB8923F08003FB813B683C
:10371000DB891B019AB2FB891343FB81FB8923F0F0
:103720004003FB813B689B881B019AB2FB891343D2
:10373000FB81BB8923F48063BB81BB8923F40063D5
:10374000BB813B681B8A9B009AB2BB891343BB8138
:103750003B685B8A9B009AB2BB891343BB817B6841
:10376000BA899A807B687A891A833B689A687B68F1
:103770009A637B68FA891A841437BD465DF8047B26
:10378000704700BF000001400004014080B485B0D4
:1037900000AF7860396000237B810023FB81002328
:1037A000BB817B681B8C9BB223F480739AB27B68CD
:1037B0001A847B681B8CFB817B689B88BB817B6840
:1037C0009B8B7B817B8923F070037B817B8923F03A
:1037D00003037B813B681A887B8913437B81FB89C8
:1037E00023F40073FB813B689B891B029AB2FB891F
:1037F0001343FB813B685B881B029AB2FB8913432E
:10380000FB817A68224B9A4203D07A68214B9A4214
:103810002BD1FB8923F40063FB813B68DB891B020E
:103820009AB2FB891343FB81FB8923F48063FB81FC
:103830003B689B881B029AB2FB891343FB81BB89BF
:1038400023F48053BB81BB8923F40053BB813B68C5
:103850001B8A1B019AB2BB891343BB813B685B8AFD
:103860001B019AB2BB891343BB817B68BA899A80DA
:103870007B687A899A833B689A687B68DA637B689D
:10388000FA891A841437BD465DF8047B704700BF7F
:10389000000001400004014080B485B000AF7860B2
:1038A00039600023BB8100237B810023FB817B687F
:1038B0001B8C9BB223F480539AB27B681A847B687A
:1038C0001B8C7B817B689B88FB817B689B8BBB818E
:1038D000BB8923F4E043BB81BB8923F44073BB81E4
:1038E0003B681B881B029AB2BB891343BB817B894F
:1038F00023F400537B813B689B891B039AB27B892D
:1039000013437B813B685B881B039AB27B8913431B
:103910007B817A68114B9A4203D07A68104B9A42A5
:103920000AD1FB8923F48043FB813B681B8A9B01FE
:103930009AB2FB891343FB817B68FA899A807B6882
:10394000BA899A833B689A687B681A647B687A892B
:103950001A841437BD465DF8047B704700000140AF
:103960000004014080B485B000AF78600B467B80D6
:103970000023FB817B681B8BFB81FB8923F0080301
:10398000FB81FA897B881343FB817B68FA891A8360
:103990001437BD465DF8047B704700BF80B485B026
:1039A00000AF78600B467B800023FB817B681B8B1C
:1039B000FB81FB8923F40063FB817B881B029AB2A5
:1039C000FB891343FB817B68FA891A831437BD4650
:1039D0005DF8047B704700BF80B485B000AF7860AD
:1039E0000B467B800023FB817B689B8BFB81FB89E3
:1039F00023F00803FB81FA897B881343FB817B68F2
:103A0000FA899A831437BD465DF8047B704700BF7E
:103A100080B485B000AF78600B467B800023FB81CB
:103A20007B689B8BFB81FB8923F40063FB817B8894
:103A30001B029AB2FB891343FB817B68FA899A8344
:103A40001437BD465DF8047B704700BF81F000412C
:103A500002E000BF83F0004330B54FEA41044FEA73
:103A6000430594EA050F08BF90EA020F1FBF54EA0E
:103A7000000C55EA020C7FEA645C7FEA655C00F0AA
:103A8000E2804FEA5454D4EB5555B8BF6D420CDD7B
:103A90002C4480EA020281EA030382EA000083EAFE
:103AA000010180EA020281EA0303362D88BF30BD9E
:103AB00011F0004F4FEA01314FF4801C4CEA1131F4
:103AC00002D0404261EB410113F0004F4FEA033353
:103AD0004CEA133302D0524263EB430394EA050FDE
:103AE00000F0A780A4F10104D5F1200E0DDB02FA4D
:103AF0000EFC22FA05F2801841F1000103FA0EF2E1
:103B0000801843FA05F359410EE0A5F120050EF1A6
:103B1000200E012A03FA0EFC28BF4CF0020C43FAD7
:103B200005F3C01851EBE37101F0004507D54FF0E4
:103B3000000EDCF1000C7EEB00006EEB0101B1F534
:103B4000801F1BD3B1F5001F0CD349085FEA30007A
:103B50004FEA3C0C04F101044FEA445212F5800F85
:103B600080F09A80BCF1004F08BF5FEA500C50F122
:103B7000000041EB045141EA050130BD5FEA4C0C05
:103B8000404141EB010111F4801FA4F10104E9D18E
:103B900091F0000F04BF01460020B1FA81F308BF85
:103BA0002033A3F10B03B3F120020CDA0C3208DD51
:103BB00002F1140CC2F10C0201FA0CF021FA02F12C
:103BC0000CE002F11402D8BFC2F1200C01FA02F19C
:103BD00020FA0CFCDCBF41EA0C019040E41AA2BFC1
:103BE00001EB0451294330BD6FEA04041F3C1CDA89
:103BF0000C340EDC04F11404C4F1200220FA04F0A9
:103C000001FA02F340EA030021FA04F345EA030152
:103C100030BDC4F10C04C4F1200220FA02F001FA14
:103C200004F340EA0300294630BD21FA04F0294696
:103C300030BD94F0000F83F4801306BF81F480112F
:103C40000134013D4EE77FEA645C18BF7FEA655CA2
:103C500029D094EA050F08BF90EA020F05D054EA74
:103C6000000C04BF1946104630BD91EA030F1EBF79
:103C70000021002030BD5FEA545C05D1400049417D
:103C800028BF41F0004130BD14F580043CBF01F570
:103C9000801130BD01F0004545F0FE4141F4700156
:103CA0004FF0000030BD7FEA645C1ABF1946104631
:103CB0007FEA655C1CBF0B46024650EA013406BF32
:103CC00052EA033591EA030F41F4002130BD00BFF1
:103CD00090F0000F04BF0021704730B54FF48064AE
:103CE00004F132044FF000054FF0000150E700BF2F
:103CF00090F0000F04BF0021704730B54FF480648E
:103D000004F1320410F0004548BF40424FF000017A
:103D10003EE700BF42004FEAE2014FEA31014FEABD
:103D200002701FBF12F07F4393F07F4F81F060510C
:103D3000704792F0000F14BF93F07F4F704730B57B
:103D40004FF4607401F0004521F0004120E700BF0E
:103D500050EA010208BF704730B54FF000050AE095
:103D600050EA010208BF704730B511F0004502D596
:103D7000404261EB41014FF4806404F132045FEA98
:103D8000915C3FF4DCAE4FF003025FEADC0C18BF3D
:103D900003325FEADC0C18BF033202EBDC02C2F133
:103DA000200300FA03FC20FA02F001FA03FE40EAC5
:103DB0000E0021FA02F11444C1E600BF4FF0FF3CAF
:103DC00006E000BF4FF0010C02E000BF4FF0010C15
:103DD0004DF804CD4FEA410C7FEA6C5C4FEA430C8E
:103DE00018BF7FEA6C5C1BD001B050EA410C0CBFDD
:103DF00052EA430C91EA030F02BF90EA020F00203F
:103E0000704710F1000F91EA030F58BF994208BFA5
:103E100090422CBFD8176FEAE37040F00100704762
:103E20004FEA410C7FEA6C5C02D150EA013C07D1B9
:103E30004FEA430C7FEA6C5CD6D152EA033CD3D004
:103E40005DF8040B704700BF8446104662468C46FE
:103E50001946634600E000BF01B5FFF7B7FF002831
:103E600048BF10F1000F01BD4DF808EDFFF7F4FF5A
:103E70000CBF012000205DF808FB00BF4DF808EDE5
:103E8000FFF7EAFF34BF012000205DF808FB00BF08
:103E90004DF808EDFFF7E0FF94BF012000205DF82A
:103EA00008FB00BF4DF808EDFFF7CEFF94BF0120DF
:103EB00000205DF808FB00BF4DF808EDFFF7C4FFD8
:103EC00034BF012000205DF808FB00BF4A0011D27A
:103ED00012F5001211D20DD56FF47873B3EB625264
:103EE0000ED44FEAC12343F0004343EA505323FA70
:103EF00002F070474FF00000704750EA013002D1E5
:103F00004FF0FF3070474FF000007047844641EAA1
:103F1000000313F003036DD1403A41D351F8043B41
:103F200040F8043B51F8043B40F8043B51F8043B93
:103F300040F8043B51F8043B40F8043B51F8043B83
:103F400040F8043B51F8043B40F8043B51F8043B73
:103F500040F8043B51F8043B40F8043B51F8043B63
:103F600040F8043B51F8043B40F8043B51F8043B53
:103F700040F8043B51F8043B40F8043B51F8043B43
:103F800040F8043B51F8043B40F8043B51F8043B33
:103F900040F8043B51F8043B40F8043B403ABDD2A2
:103FA000303211D351F8043B40F8043B51F8043B44
:103FB00040F8043B51F8043B40F8043B51F8043B03
:103FC00040F8043B103AEDD20C3205D351F8043BD3
:103FD00040F8043B043AF9D2043208D0D2071CBF9F
:103FE00011F8013B00F8013B01D30B8803806046C8
:103FF000704700BF082A13D38B078DD010F003033E
:104000008AD0C3F10403D21ADB071CBF11F8013BAD
:1040100000F8013B80D331F8023B20F8023B7BE7FC
:10402000043AD9D3013A11F8013B00F8013BF9D227
:104030000B7803704B7843708B78837060467047C1
:10404000F0B4840743D0541E002A3ED0CDB20346BC
:1040500003E0621E002C38D0144603F8015B9A0777
:10406000F7D1032C2AD9CDB245EA05250F2C45EA14
:10407000054515D9A4F110073F0903F1100606EB19
:1040800007161A46156055609560D5601032B24229
:10409000F8D104F00F040137032C03EB07130DD9FB
:1040A0001E462246043A032A46F8045BFAD8221F29
:1040B00022F003020432134404F003042CB1C9B209
:1040C0001C4403F8011BA342FBD1F0BC704714460B
:1040D0000346C6E7437800004178000043790000BA
:1040E000417900007443000050574D004C43440098
:1040F0006E524632344C303100000000546D722054
:1041000053766300546D72510000000049444C45E1
:10411000000000003031323334353637383941420F
:10412000434445462E0000002D0000002B000000F7
:10413000F82B0100F82B0100E7E7E7E7E7000000B4
:10414000E7E7E7E7E7000000E204E204B004E20486
:08415000FFFFFFFFAAAAAAAAC3
:0400000508000000EF
:00000001FF
